:020000040800F2
:10000000800500204501000883270008AF24000870
:100010008127000811090008552B00080000000086
:10002000000000000000000000000000872700081A
:100030002109000800000000852700088927000822
:100040005F0100085F0100085F0100085F01000810
:100050005F0100085F0100085F0100085F01000800
:100060005F0100085F0100085F0100081509000832
:100070005F0100085F0100085F0100085F010008E0
:100080005F0100085F010008490800085F010008DF
:100090005F0100085F0100085F0100085F010008C0
:1000A0005F0100085F0100085F010008F1270008F8
:1000B0005F0100085F0100085F0100085F010008A0
:1000C0005F0100085F0100085F0100085F01000890
:1000D0005F0100085F0100085F0100085F01000880
:1000E0005F0100085F0100085F0100085F01000870
:1000F0005F0100085F0100085F0100085F01000860
:100100005F0100085F0100085F0100085F0100084F
:100110005F0100085F0100085F0100085F0100083F
:100120005F0100085F0100085F0100085F0100082F
:10013000DFF80CD000F0F8FA0048004785340008DA
:10014000800500200648804706480047FEE7FEE796
:10015000FEE7FEE7FEE7FEE7FEE7FEE7FEE7FEE777
:10016000EF27000831010008202A04DB203A21FA99
:1001700002F00021704721FA02F3D040C2F12002C0
:100180009140084319467047D2B201E000F8012BB4
:10019000491EFBD270470022F6E710B513460A4607
:1001A00004461946FFF7F0FF204610BD80EA010221
:1001B00010B502F00043400022D04A001FD0010ECB
:1001C00001EB1261C0F35600C2F3560240F4000086
:1001D00042F40002A0FB022000047F39140400D086
:1001E000401C50EA124001D44000491EC2B20C0625
:1001F00004EBD010401C4008802A02D003E000200D
:1002000010BD20F00100002900DA0020184310BDC5
:1002100030B480EA010202F0004530F0004221F0E3
:10022000004013D090B1C30DD40DC2F31601C0F33A
:100230001600E41A41F4000140F400027D349142BA
:1002400001D3641C00E04900002C02DA30BC00201D
:1002500070474FF400000023914201D3891A0343F1
:1002600040084FEA4101F7D151B1914202D14FF01C
:10027000004105E002D24FF0010101E06FF0010101
:1002800003EBC450284430BC00F05FB89623002232
:10029000114600F063B800F0004230F000400AD090
:1002A000C10D01F56071C0F3160042EA0151C208A8
:1002B00040071143704700200146704730B50B4698
:1002C000014600202022012409E021FA02F59D4286
:1002D00005D303FA02F5491B04FA02F52844151E5A
:1002E000A2F10102F1DC30BD2DE9F05F05460020EE
:1002F00092469B4688460646814640241BE0284697
:10030000414647462246FFF72FFF53465A46C01A3A
:10031000914110D311461846224600F017FA2D1AC3
:1003200067EB01084F4622460120002100F00EFA3B
:1003300017EB00094E41201EA4F10104DFDC484602
:1003400031462A464346BDE8F09F0029A8BF7047C2
:10035000401C490008BF20F00100704710B4B0FAFB
:1003600080FC00FA0CF050EA010404BF10BC704796
:1003700049B1CCF1200421FA04F411FA0CF118BFB0
:10038000012121430843A3EB0C01CB1D4FEA00617F
:100390004FEA102042BF002010BC704700EBC35052
:1003A00010440029A4BF10BC7047401C490008BF7E
:1003B00020F0010010BC70472DE9FE4F804681EA15
:1003C0000300C00F0C46009021F0004123F00045CF
:1003D000B8EB0200A94105D24046214690461C4692
:1003E0000B46024623F00040104347D0270DC7F3C9
:1003F0000A00C3F30A510290401A019040286BDAB8
:10040000C3F3130040F4801B0098924620B10023F0
:10041000D2EB030A63EB0B0B01985946C0F1400283
:10042000504600F093F906460D4650465946019A4B
:1004300000F09BF910EB08006141002487EA11529B
:1004400084EAE7731A4340D0009A62B3019A012A02
:100450004FEA075215DC001B61EB02014FF000422E
:1004600002EA0752CDE90042001C41F580113246F4
:100470002B4600F09BF903B0BDE8F08F40462146C3
:10048000F9E7001B61EB0201001C41F58013001825
:100490005B412018A2F5001747EB030140EAD57035
:1004A000B6196D4111E06D084FEA360645EAC07590
:1004B0004FEA0752001B61EB0201001C41F580115D
:1004C00049084FEA30000019514132462B4603B02B
:1004D000BDE8F04F00F05BB9009801224000002316
:1004E000D0EB020263EBE073009821464FEAE07420
:1004F000B8EB000061EB0401E9E783F000435BE740
:1005000081F0004158E72DE9FE4F81EA030404F031
:10051000004421F0004100944FF0000B23F0004311
:1005200050EA01045ED052EA03045BD0C3F30A54DC
:10053000C1F30A552C44A4F2F3340194A0FB0254F5
:10054000C1F3130141F48011C3F3130343F4801387
:1005500001FB024400FB034E840A970A44EA8154DB
:1005600047EA8357A4FB076802958D0A05FB0785B8
:100570004FEA932C04FB0C542705029D4FEA0658C2
:1005800047EA1637B5EB08056EEB070C870E920E9F
:1005900047EA811742EA8312A7FB0201B6EB0B017F
:1005A00064EB00042B0D43EA0C335E1844EB1C5043
:1005B000DA465146E7FB0201C5F313044FEA0B3359
:1005C00043EA14534FEA0432019C43EA0603A4F1C0
:1005D0000C040294009CCDE900B400F0E7F803B0ED
:1005E000BDE8F08F00200146F9E72DE9F04D81EAE2
:1005F000030404F0004B21F0004514464FF0000ABC
:1006000023F0004150EA050220D054EA01021DD037
:10061000C5F30A570246C5F31303C1F31300C1F330
:100620000A5640F4801543F48013A7EB0608101B0C
:10063000D64608F2FD3873EB050002D308F1010835
:1006400001E092185B41B8F1000F03DA0020014687
:10065000BDE8F08D00204FF48011064684460EE080
:10066000171B73EB050705D3121B63EB050306434A
:100670004CEA010C49084FEA300092185B4150EAFD
:100680000107EDD152EA030012D082EA040083EAA6
:100690000501084305D0101BAB4106D201220023FF
:1006A00006E000224FF0004302E06FF00102531019
:1006B0001AEB06004CEB085110EB0A0041EB0B0162
:1006C000BDE8F04D00F063B8C1F30A52C1F3130165
:1006D00040F2FF3341F480119A4202DA00200146D1
:1006E000704740F233439A42A2F2334202DC524254
:1006F000FFF73ABD00F02AB830B5041E71F10004CE
:1007000004DB4FF00044404264EB0101141E73F11E
:10071000000405DB1C464FF00043524263EB040328
:10072000994208BF904230BD064C074D06E0E06894
:1007300040F0010394E8070098471034AC42F6D328
:10074000FFF7FAFCD8340008F8340008202A04DB4C
:10075000203A00FA02F1002070479140C2F12003D4
:1007600020FA03F3194390407047202A06DBCB1789
:10077000203A41FA02F043EAE07306E041FA02F35C
:10078000D040C2F12002914008431946704710B58D
:10079000141E73F1000408DA401C41F100019218A4
:1007A0005B411A4301D120F0010010BD2DE9F04D4D
:1007B00092469B4611B1B1FA81F202E0B0FA80F2A2
:1007C00020329046FFF7C2FF04460F4640EA0A0077
:1007D00041EA0B0153465A46084313D0114653EAE7
:1007E000010019D0C8F140025046FFF7BDFC054694
:1007F0000E46504659464246FFF7A8FF084305D02B
:10080000012004E020463946BDE8F08D0020054374
:1008100046EAE0762C4337430A986305E40AA0EBE6
:1008200008000022FD0A44EA47540A3002D500209D
:100830000146E9E7010510196941DDE9084500199C
:100840006941BDE8F04DA2E7014800F0AEB90000F3
:100850002400002070B5044600688168C943C907B8
:100860001CD1816821F00101816000F065FE054620
:100870000FE000BF00F060FE401B022809D9A06A0B
:1008800040F01000A062E06A40F00100E062012048
:1008900070BD20688068C043C007EBD0002070BDE9
:1008A000F8B500260446009600688168C943C90768
:1008B00028D0816841F00101816013481349006824
:1008C000B0FBF1F000E0401E00900028FBD100F0EA
:1008D00033FE054611E000BF00F02EFE401B02284B
:1008E0000BD9A06A40F01000A062E06A40F001005D
:1008F000E06284F824600120F8BD20688068C0436D
:10090000C007E9D10020F8BD1C00002040420F00C4
:10091000FEE70000014800F06BBB0000540000201F
:100920007047704730B5B3F5804F05D06FF0704118
:1009300040F82210002030BD8C690B688D6823437D
:100940004C688989240144EA0524234343EA014190
:1009500050F82230014C23401943E9E70000F0CF62
:1009600010B50A6850F8223023F0010340F8223015
:100970008C68082C23D000234A682243CC681C438F
:100980000B6922431A434B690E4C1A43CB691A4335
:100990000B6A1A434B6A1A438B6A1A43CB6A1A438F
:1009A0000B6B1A438B6913434A6B09681A4350F85F
:1009B0002130A343134340F82130002010BD4023D1
:1009C000DAE700007FFF0F0030B5D1E9003443EAD9
:1009D00004138C688D89240244EA054423430C8A5D
:1009E000094D00EB820005EB045423430C7D6D019F
:1009F00005EB0464896923430B43416801F04041DE
:100A00000B434360002030BD0000F0FF7047000042
:100A1000F8B50024009490F824202546012A12D02D
:100A2000012280F824204A681F23072A0DD2066875
:100A3000776B521E02EB820293409F430B689340F8
:100A40001F43776319E00220F8BD06680D2A0AD219
:100A5000376BD21F02EB820293409F430B68934097
:100A60001F43376309E0F76A0D3A02EB82029340B5
:100A70009F430B6893401F43F7620A680723066889
:100A80000A2A0AD3F7680A3A02EB420293409F43CC
:100A90008B6893401F43F76008E0376902EB42021E
:100AA00093409F438B6893401F4337610A68102A25
:100AB00001D0112A20D1124B02689A4217D19368B3
:100AC0001B0219D4936843F400039360096810294A
:100AD00012D10C490C4A0968B1FBF2F101EB81011A
:100AE000490000E0491E00910029FBD104E0816A21
:100AF00041F020018162012480F824502046F8BD95
:100B0000002401401C00002040420F0010B50F4996
:100B100088421AD100F046F80D4C80B22080FFF7D1
:100B2000B5FB0C49FFF774FB0B49FFF73FFB606017
:100B3000FFF7B1FB02460B4608A002F00DF8218832
:100B4000BDE810400EA002F007B810BD2400002040
:100B50000000002000F07F453333534050413120E6
:100B60005472756520566F6C746167652076616C90
:100B70007565203A2025312E3466200D0A000000CC
:100B8000504131204144435F56616C7565202020FF
:100B90002076616C7565203A202564202020200D88
:100BA0000A0000000068C06C704710B50446006879
:100BB0004168890626D50168890723D5A16AC90637
:100BC00003D4A16A41F40071A1628168C1F342417A
:100BD000072910D1217B71B9416821F020014160C2
:100BE000A06A20F48070A062A06AC00403D4A06A46
:100BF00040F00100A0622046FFF788FF21686FF0F7
:100C0000120008602068416809062ED5016849076E
:100C10002BD5A16AC90603D4A16A41F40051A1628F
:100C20008168C1F30231072909D04168490515D40B
:100C30008168C1F34241072910D1217B71B9416814
:100C400021F080014160A06A20F48050A062A06A77
:100C5000C00503D4A06A40F00100A0622046FFF75F
:100C6000D5FE21686FF00C000860206841684906D5
:100C70000DD50068C0070AD0A06A40F48030A06299
:100C8000204600F095F821686FF00100086010BD63
:100C90002DE9F04104004FF000057FD0A06A002646
:100CA00028B9E66284F82460204600F083F82046E4
:100CB000FFF7D0FDA16AC90600D420B1A06A40F0B8
:100CC0001000A0626AE0A16A21F4885141F002019B
:100CD000A162334923688B42E16904D1B1F5402F09
:100CE00001D14FF40021277B4FF4807C41EA470279
:100CF00061680A43A168614508D0012906D0002136
:100D000094F814E0BEF1010F02D00AE06146F7E763
:100D1000C7B1A76A47F02007A762E76A47F0010753
:100D2000E7625F6827F469470F435F60236899684B
:100D30001C4F394011439960A16861450BD00129CE
:100D400009D00CE0DFF860E0A7690EEB47370F43EE
:100D500047F40061E5E7218A0D05A5F580152168B6
:100D6000CB6A23F470032B43CB62216889680F4B55
:100D70001940914208D1E662A16A21F0020141F0D6
:100D80000101A162BDE8F081A06A20F0020040F0FC
:100D90001000A062E06A40F00100E0620120F1E78B
:100DA000003C0140FDF7E1FF00E0FFFFFE0E1FFFEA
:100DB0007047000070B586B0002605460096019683
:100DC0000296039600681E49884236D11D498869FB
:100DD00040F400708861886900F4007004908869AC
:100DE00040F0040088618869694600F004000490BE
:100DF000032000900190144800F09CFA144C134812
:100E0000C4E900068020C4E902604000206180003F
:100E100060612020A061C001E061204600F00CFA72
:100E200008B1FFF77EFD2C62002211461220656298
:100E300000F0EEFB122000F0DDFB06B070BD0000FC
:100E40000024014000100240000801400800024058
:100E50005400002070B5044690F8240001280DD0FD
:100E6000012084F824002046FFF71AFD02004FF00D
:100E7000000005D084F82400104670BD022070BD2B
:100E8000A16A40F60163994341F48071A162224D49
:100E900023682249AB4218D10E6816F4702F14D083
:100EA000A66A46F48016A6620E68760505D5A66A7F
:100EB00026F4005646F48056A662A66AF6040AD5C1
:100EC000E66A26F00606E66206E0A66A26F48016C2
:100ED000A6625E68E9E7E06284F824006FF0020031
:100EE00018602068436843F02003436020688368EB
:100EF000C3F34243072B05D1A84208D1096811F476
:100F0000702F04D0816841F480118160B4E781685A
:100F100041F4A001F9E70000002801400424014049
:100F200070B54379012B20D001254571022303714F
:100F30000668346802F0100340F6FE729A4094434B
:100F4000D1E900210A439A402243326002681468C2
:100F5000C02199408C431460026813688B4313606E
:100F6000057100214171084670BD022070BD70B549
:100F7000040003D02079002510B105E0012070BDE8
:100F80006571204600F008F80220207125610120DB
:100F90002071002070BD000000B585B000210091D7
:100FA00001910291039100680E49884218D10E48C0
:100FB000C16941F00051C161C16901F00051049162
:100FC000816941F0040181618069694600F0040093
:100FD00004901020009003200190044800F0AAF92A
:100FE00005B000BD00740040001002400008014040
:100FF0002DE9F05FC16B0A6801680B68046C4FF063
:10100000040808FA04F8844D844E854FDFF814C2B2
:10101000DFF81492DFF814A2DFF814B2DFF814E25C
:1010200018EA020F65D05FEA437862D50A68920633
:1010300003D40A6822F004020A60DFF8F0814FF45A
:101040008062016808F1140813011402414524D993
:10105000A9420DD0B1420FD0B9421AD0614515D086
:10106000494515D0514501D1120312E0594501D12E
:1010700004220EE0714501D140220AE06D4D143585
:10108000A94206D06B4A2832914201D11A4600E0AB
:1010900022466749091F0A6029E0A94213D0B142DC
:1010A00015D0B94220D061451BD049451BD05145D0
:1010B00002D14FF4800217E0414502D14FF0806227
:1010C00012E0594501D104220EE0714501D14022C0
:1010D0000AE0584D1435A94206D0564A28329142AA
:1010E00001D11A4600E022464B4908394A60C16ADC
:1010F00071E04FF0020808FA04F818EA020F70D005
:101100005FEA83786DD50A68920606D40A6822F0F1
:101110000A020A60012180F82110DFF810814FF4E3
:101120000072016808F1140813011402414524D922
:10113000A9420DD0B1420FD0B9421AD0614515D0A5
:10114000494515D0514501D1120312E0594501D14D
:1011500002220EE0714501D120220AE0354D1435FE
:10116000A94206D0334A2832914201D11A4600E002
:1011700022462F49091F0A6029E0A94213D0B14233
:1011800015D0B94220D061451BD049451BD05145EF
:1011900002D14FF4001217E0414502D14FF0007226
:1011A00012E0594501D102220EE0714501D1202201
:1011B0000AE0204D1435A94206D01E4A2832914239
:1011C00001D11A4600E02246134908394A6000213D
:1011D00080F82010816A00291CD0BDE8F05F084724
:1011E000FFE70825A540154214D01A0712D50A6852
:1011F00022F00E020A6090F84020C36B012101FA30
:1012000002F25A60816380F82110002180F82010DA
:10121000016BE0E7BDE8F09F080002401C000240BF
:101220003000024044000240580002406C0002407E
:10123000080402401C04024030B560B11A4B026839
:1012400014219A4209D2194B1344B3FBF1F18900DE
:10125000016417490AE0012030BD134B5B4213447F
:10126000B3FBF1F1890001640F490839C163022120
:1012700080F82110136843F6F0718B43F0E90114F4
:101280002143D0E902452C432143046921434469A9
:1012900021438469214319431160002141630122E4
:1012A00042770177084630BD08040240F8FFFDBFD1
:1012B0000000024030B585B00020009001900290FF
:1012C000039017480168002927D1012101601548C2
:1012D000416941F4807141614069022400F48070E9
:1012E000049041F20100CDE900040325694603950D
:1012F0000D4800F01FF84FF68070CDE900046946F4
:1013000003950A4800F016F84CF23370CDE900045A
:1013100069460395064800F00DF805B030BD0000A1
:101320000800002000100240002001400018014089
:10133000001401402DE9F84FDFF8C891002409F1AD
:10134000040A0AF1040B23460F270BF1040ED1E027
:101350000125A54006EA0502AA4276D1DFF8A8C118
:101360004E68A6EB0C0866452BD00DDC032E34D05E
:1013700005DC36B3012E19D0022E2FD11BE0112E21
:1013800016D0122E2AD119E0B8F5881F19D006DC24
:10139000B8F5803F15D0B8F5801F1FD111E0B8F522
:1013A000001F0ED0B8F5041F18D10AE0CB6815E075
:1013B000CB681B1D12E0CB6808330FE0CB680C3301
:1013C0000CE08B682BB1012B4FF0080303D0456173
:1013D00004E0042302E0056100E00023FF2A01D8B5
:1013E000064601E000F104064FEA840501D9A5F1A3
:1013F0002005D6F8008007FA05FC28EA0C0803FA55
:1014000005F548EA0508C6F800804D68ED0070D57E
:101410003E4DAE6946F00106AE61AD6924F00306AB
:1014200005F0010500953A4D06EB050CDCF8085077
:10143000A607360F07FA06F825EA0805DFF8D48074
:10144000404503D14FF0000825E052E0DFF8C880A6
:10145000404502D14FF001081DE0DFF8C080404553
:1014600002D14FF0020816E0DFF8B480404502D107
:101470004FF003080FE0DFF8AC80404502D14FF099
:10148000040808E0DFF8A080404502D14FF00508CD
:1014900001E04FF0060808FA06F848EA0508CCF81B
:1014A00008804D68D9F80060ED034D4601D516431C
:1014B00000E096432E604D68DAF80060AD035546B3
:1014C00001D5164300E096432E604D68DBF80060BE
:1014D000ED025D4601D5164300E096432E604D684F
:1014E000DEF80060AD02754601D5164300E0964374
:1014F0002E60641C0A681646E2407FF429AFBDE8FE
:10150000F88F00000004014000001110001002409C
:101510000000014000080140000C014000100140A3
:101520000014014000180140001C01400AB1016193
:1015300070470904FBE7000001488068704700001D
:1015400010000020024881680278114481607047D1
:1015500010000020074810B5016841F0100101603B
:10156000032000F075F8002000F006F800F024F8E1
:10157000002010BD0020024070B50D4D04464FF410
:101580007A712878B1FBF0F00A490968B1FBF0F0F4
:1015900000F096FB48B9102C07D200222146501EBD
:1015A00000F036F800206C6070BD012070BD0000B6
:1015B000100000201C0000200C4808B5816941F093
:1015C00001018161816901F001010091C16941F06E
:1015D0008051C161C06900F08050009004484168AA
:1015E00021F0E06141F00071416008BD001002404F
:1015F00000000140002809DB00F01F02012191409A
:101600004009800000F1E020C0F8001170470000A0
:10161000F0B40E4B1B680C46C3F30223C3F107055D
:10162000042D00D90425191D072901D2002300E04B
:10163000DB1E012606FA05F1491E214099409E4015
:10164000761E16403143F0BC01F096BA0CED00E076
:10165000064900F0070208684FF6FF03184040EA09
:101660000220034A10430860704700000CED00E0C0
:101670000000FA052DE9F84305460078354CC0070F
:1016800054D0E0690026C00008D4E06940F08050E2
:10169000E061E069012600F0805000902E4801686A
:1016A000C90512D40168804641F480710160FFF7DA
:1016B00043FF074605E000BFFFF73EFFC01B64285D
:1016C00023D8D8F80000C005F6D5206A10F4407081
:1016D00021D0A98801F4407181421CD0206A1F49A1
:1016E000012220F440700A6000220A602062C007D4
:1016F00011D0FFF721FF074641F2883808E000BF0C
:10170000FFF71AFFC11B414502D90320BDE8F8834A
:10171000206A8007F4D5206A696820F44070084385
:1017200020621EB1E06920F08050E06128788007D7
:1017300005D56068A96820F44040084360602878B7
:10174000C00605D56068696920F4800008436060C0
:101750000020DBE7001002400070004040044242DD
:101760002DE9F0470F46050061D0434E306800F088
:101770000700B84209D2306820F0070038433060D3
:10178000306800F00700B84251D128683B4C81070F
:1017900012D5400703D5606840F4E06060602878A7
:1017A000000703D5606840F4605060606068A96815
:1017B00020F0F000084360602878C00728D06868EF
:1017C000012810D02168022810D0890700292EDABC
:1017D000616821F0030101436160FFF7ADFE8046BF
:1017E00041F288390DE021688903EFE78901EDE7CF
:1017F000FFF7A2FEA0EB0801494502D90320BDE88E
:10180000F0876068696800F00C00B0EB810FEFD1E1
:10181000306800F00700B8420BD9306820F00700AC
:1018200038433060306800F00700B84201D0012032
:10183000E5E72878400705D56068E96820F4E060AE
:10184000084360602878000706D56068296920F49D
:10185000605040EAC100606000F038F86168084AF2
:10186000C1F30311515CC84006490860064800688E
:10187000FFF782FE0020C2E7002002400010024075
:10188000C03400081C000020140000200448054952
:1018900000684968044AC1F30221515CC84070479E
:1018A0001C00002000100240D03400080448054904
:1018B00000684968044AC1F3C221515CC8407047BE
:1018C0001C00002000100240D034000812A185B096
:1018D0000FC98DE80F0014A0144A006804905168E5
:1018E000134801F00C03042B10D0082B0ED1C1F3C8
:1018F0008343C9031DF803000AD5516804AAC1F344
:101900004041515C0A4A5043B0FBF1F005B07047CA
:1019100008494843FAE700000203040506070809DE
:101920000A0B0C0D0E0F10100102000000100240F7
:1019300000127A0000093D002DE9F84F040070D034
:101940002078C04DC00749D06868C0F381000128E5
:1019500007D06868C0F38100022809D16868C00315
:1019600006D52868800339D560680028E7D035E0BF
:101970006068B0F5803F0BD010B1B0F5A02F11D04A
:10198000286820F480302860286820F4802002E055
:10199000286840F480302860606890B1FFF7CCFD83
:1019A00006460AE0286840F480202860F0E700BF7F
:1019B000FFF7C2FD801B642873D828688003F7D521
:1019C0000CE0FFF7B9FD064605E000BFFFF7B4FDE8
:1019D000801B6428F0D828688003F7D420789A4EBA
:1019E00080074FF001094FF0000839D5686810F002
:1019F0000C0F07D06868C0F38100022809D168681D
:101A0000C00306D42868800714D52069012808D1AE
:101A100010E02069B0B1C6F80090FFF78DFD0746D1
:101A200005E00AE1FFF788FDC01B0228C4D828683A
:101A30008007F7D52868616920F0F80040EAC10006
:101A400028600DE0C6F80080FFF776FD074604E049
:101A5000FFF772FDC01B022823D828688007F7D43F
:101A6000207800072CD57948A169D9B1C0F8009039
:101A7000FFF762FD074604E0FFF75EFDC01B02288A
:101A80000FD8686A8007F7D571484FF4FA5100689B
:101A9000B0FBF1F0009000BF0098411E0091FAD217
:101AA0000EE080E0C0F80080FFF746FD074604E046
:101AB000FFF742FDC01B022875D8686A8007F7D47B
:101AC0002078400760D5E8690027C00008D4E8699D
:101AD00040F08050E861E869012700F080500090F4
:101AE0005C480168C90513D40168834641F48071DC
:101AF0000160FFF721FD824606E000BFFFF71CFDF5
:101B0000A0EB0A0064284ED8DBF80000C005F5D52C
:101B1000E06801280AD008B1052813D0286A20F00F
:101B200001002862286A20F0040002E0286A40F0E0
:101B300001002862E06841F2883B98B1FFF7FCFCA5
:101B400082460BE0286A40F004002862EEE700BFFE
:101B5000FFF7F2FCA0EB0A0159455AD8286A800722
:101B6000F6D50CE0FFF7E8FC824605E0FFF7E4FC61
:101B7000A0EB0A0159454CD8286A8007F6D41FB15A
:101B8000E86920F08050E861E06988B36968C1F3D2
:101B90008101022944D00228C6F8608004D0FFF7F2
:101BA000CBFC044638E034E0FFF7C6FC074604E00F
:101BB000FFF7C2FCC01B02282BD828688001F7D48D
:101BC000206AB0F5803F05D16868A16820F4003034
:101BD00008436860D4E908010843696821F4741176
:101BE00008436860C6F86090FFF7A6FC044606E06C
:101BF00025E000BFFFF7A0FC001B022809D82868D9
:101C00008001F7D51BE000BFFFF796FC001B022800
:101C100002D90320BDE8F88F28688001F4D40EE0D3
:101C20000128F7D06868226A00F48031914204D11B
:101C3000616A00F47010884201D00120EAE70020B8
:101C4000E8E70000001002400000424280044242E7
:101C50001C0000200070004070B515460E460400C0
:101C600007D0A069B0F5807F03D094F8410010B18F
:101C700007E0012070BD002084F84000204600F0FD
:101C80001DF804F108012068FEF76AFE3146A268DB
:101C90002068FEF799FED4E901022946236BFEF77E
:101CA00041FEA168206850F8212042F0010240F86E
:101CB0002120012084F84100002070BDFFF7FABA0E
:101CC00010B5401EB0F1807F01D3012010BD4FF050
:101CD000E02460610F21601700F04EFF0020A0613A
:101CE00007202061002010BD7047704770B590F844
:101CF0003C20012A2CD0012480F83C40022280F8AC
:101D00003D2003685A689D6822F070060A683243D5
:101D10005A60104B02689A420ED00F4B9A420BD079
:101D2000B2F1804F08D00D4B9A4205D00C4B9A422D
:101D300002D00C4B9A4204D1496825F08003194324
:101D4000916080F83D40002180F83C10084670BD4D
:101D5000022070BD002C014000340140000400400E
:101D600000080040000C004010B5040003D094F8B7
:101D70003D0010B107E0012010BD002084F83C00B8
:101D8000204600F01FF8022084F83D00211D206845
:101D900000F034FD012084F8460084F83E0084F809
:101DA0003F0084F8400084F8410084F8420084F841
:101DB000430084F8440084F8450084F83D00002086
:101DC00010BD000000B585B0002100910191029185
:101DD00003910068124988421FD11248816941F479
:101DE00000618161816901F400610491816941F0C0
:101DF000040181618069694600F0040004904FF499
:101E0000807000900848FFF795FA002211461B20C9
:101E1000FFF7FEFB1B20FFF7EDFB05B000BD000048
:101E2000002C0140001002400008014070B504463B
:101E300090F83C00012817D0012584F83C5002207E
:101E400084F83D002068826822F0770222F47F4205
:101E500082600868502830D00DDC20284DD005DC89
:101E600098B310283BD148E0022070BD302844D000
:101E7000402834D139E0602828D0702806D0B0F549
:101E8000805F2CD0B0F5005F29D10AE0CB68D1E9A2
:101E90000121206800F005FD2068816841F077018C
:101EA00009E0CB68D1E90121206800F0FAFC206844
:101EB000816841F48041816011E0CA684968206806
:101EC00000F044FD5021206807E016E0CA68496828
:101ED000206800F083FD6021206800F0ECFC84F8AD
:101EE0003D50002084F83C0070BDCA6849682068F5
:101EF00000F02CFD40212068EFE7226801461046E3
:101F0000EBE770472DE9F041054690F83C000C46A0
:101F1000012836D0012085F83C008AB3042A42D03B
:101F20002868082A51D0D4E90023E168066A26F41B
:101F300080560662C669076A26F4407646EA03239D
:101F40004FF6FF7606EA013123F4704319434FF44C
:101F5000005627F4005306EA02321A43C1610262B6
:101F60002868C16921F44061C1612868C169A2681B
:101F700041EA0221C161002085F83C00BDE8F08102
:101F800001E00220FAE7D4E90012E368286800F0D3
:101F9000EFFC2868816921F00C0181612868816962
:101FA000A26811430FE0D4E90012E368286800F04A
:101FB00027FD2868816921F4406181612868816971
:101FC000A26841EA02218161D5E7D4E90027267B96
:101FD000016A21F480710162C169036A21F0030181
:101FE000394321F0F00731074FF4007647EA1161D9
:101FF00023F4007306EA02221A43C16102622868D0
:10200000C16921F00C01C1612868C169A26811434E
:10201000B0E710B5040003D094F83D0010B107E01C
:10202000012010BD002084F83C00204600F01EF87E
:10203000022084F83D00211D206800F0DFFB012014
:1020400084F8460084F83E0084F83F0084F840009D
:1020500084F8410084F8420084F8430084F8440086
:1020600084F8450084F83D00002010BD7047000052
:1020700010B5044651B104290DD0082910D094F8A8
:10208000410094F84520012811D10EE094F83E005B
:1020900094F84220F7E794F83F0094F84320F2E7E1
:1020A00094F8400094F84420EDE7012A01D0012083
:1020B00010BD022051B1042911D0082918D084F88C
:1020C000410084F845000C291BD13CE084F83E0017
:1020D00084F842002068C26842F0020210E084F8EE
:1020E0003F0084F843002068C26842F0040207E021
:1020F00084F8400084F844002068C26842F0080276
:10210000C2600122206800F0BFFB114920688842AC
:102110000ED0104988420BD0B0F1804F08D00E4944
:10212000884205D00D49884202D00D49884204D129
:10213000816801F00701062903D0016841F001011F
:102140000160002010BD2068C26842F01002D7E78D
:10215000002C014000340140000400400008004011
:10216000000C004070B50446006801694FF000059E
:10217000C943890715D4C168C943890711D4E91E29
:10218000016101202077206880698007204602D005
:10219000FFF7B7FE04E000F098F8204600F096F84C
:1021A000257720680169C943490717D4C168C94325
:1021B000490713D46FF004010161022020772068E1
:1021C000806910F4407F204602D0FFF79AFE04E0B9
:1021D00000F07BF8204600F079F825772068016947
:1021E000C943090716D4C168C943090712D46FF05F
:1021F00008010161042020772068C069800720461B
:1022000002D0FFF77EFE04E000F05FF8204600F009
:102210005DF8257720680169C943C90617D4C168EC
:10222000C943C90613D46FF010010161082020775B
:102230002068C06910F4407F204602D0FFF761FE9D
:1022400004E000F042F8204600F040F825772068CE
:102250000169C943C90708D1C168C943C90704D185
:10226000891E0161204600F032F820680169C943E7
:10227000090609D4C168C943090605D46FF0800175
:1022800001612046FFF730FD20680169C943490616
:1022900009D4C168C943490605D46FF04001016102
:1022A000204600F040F820680169C94389060BD434
:1022B000C168C943890607D46FF020010161204637
:1022C000BDE87040FFF711BD70BD704770477047A3
:1022D00070B5044690F83C00012812D0012584F81E
:1022E0003C50022084F83D00204600F0ECFA01004A
:1022F0004FF0000007D084F83D5084F83C000120E6
:1023000070BD022070BD2168CA6822F04002CA6018
:102310002168CA6822F48042CA6084F83D5084F87B
:102320003C00002070BD704770B5040004D094F8E4
:102330003900002510B106E0012070BD84F8385046
:10234000204600F023F8242084F839002068C16872
:1023500021F40051C160204600F06EFB2068016945
:1023600021F4904101612068416921F02A01416115
:102370002068C16841F40051C160E563202084F801
:10238000390084F83A00002070BD000030B585B0F7
:102390000024009401940294039400681449884234
:1023A00024D11448816941F480418161816901F43B
:1023B00080410491816941F00401816180690E4D81
:1023C00000F0040004904FF400700090022001908F
:1023D0000320039069462846FEF7ACFF2815CDE997
:1023E0000004694628460294FEF7A4FF05B030BDFC
:1023F0000038014000100240000801402DE9F84378
:10240000044690F839001F4616460D4620284CD148
:10241000C5B1BEB194F83800012846D0012084F837
:1024200038004FF00008C4F83C80212084F83900BF
:10243000FFF782F8A6848146E684A068B0F5805F45
:1024400003D004E00120BDE8F883206928B12E46BE
:102450005FF0000584F838800EE00026FAE780215E
:10246000204600F045FBA0B9AEB116F8010B21687B
:102470004860E08C401EE084E08C4B464FF0000248
:1024800000970028EBD14FF04001204600F030FBD0
:1024900030B10320D7E735F8020BC0F30800E6E7B8
:1024A000202084F839000020CDE70220CBE7FEE7AA
:1024B0003EB500241548009401941349029401602C
:1024C0008915816004730475C46102250561446047
:1024D000FEF7DEFB08B1FEF724FA01200090CDE9FB
:1024E000010469460948FEF793FA08B1FEF719FAA4
:1024F00069460648CDE90045FEF78AFA002801D072
:10250000FEF70FFA3EBD0000002401402400002029
:102510001CB500240C4900940A4801940860084640
:10252000FEF725FD08B1FEF7FCF90094002269468C
:1025300005480194FEF7F4FC002801D0FEF7F1F9FC
:102540001CBD00000074004098000020094808B538
:10255000416941F0010141614069002200F0010040
:10256000009011460B20FFF753F8BDE808400B2000
:10257000FFF740B80010024000B587B01C21684644
:10258000FDF709FE17484FF020411022016016495F
:102590004160062181600021C160C0E904128161AF
:1025A000C16113020162C0E90913C16201634163A1
:1025B00081630F20FF230090CDE90103CDE90302E1
:1025C0001120CDE90501002269460648FFF744FBCA
:1025D00008B1FEF7A6F90548C16941F48061C161FF
:1025E00007B000BDAC000020040100A000000140C5
:1025F00030B585B000241F480094019402940394E0
:10260000816941F004018161816901F00401049153
:10261000816941F008018161816901F0080104913B
:10262000816941F480718161816901F48071049153
:10263000816941F040018161816901F040010491AB
:10264000816941F02001816180690B4D00F020001B
:102650000490002201212846FEF768FF0220012194
:1026600003900091CDE9011469462846FEF762FE09
:1026700005B030BD00100240000C014010B590B014
:10268000002409940A940B94142104A80C94FDF7D7
:1026900082FD2C480D940E940094019402942849D4
:1026A0000394C0E900144FF6FF71C0E902410461D0
:1026B00044618461FFF758FB08B1FEF732F94FF42B
:1026C0008050099009A91F48FFF7B0FB08B1FEF739
:1026D00028F91C48FFF79DFC08B1FEF722F90420F9
:1026E00004905020CDE9050404A916480894FFF78A
:1026F000EFFD08B1FEF715F90D940DA911480E94E0
:10270000FFF7F4FA08B1FEF70CF90120CDE900401B
:102710000294002269460B480394FFF7F3FB08B1CB
:10272000FEF7FFF802200090019004226946054858
:10273000FFF7E8FB002801D0FEF7F3F810B010BD5A
:10274000002C0140F40000200C4810B50A4901603B
:102750004FF4E1314160002181600C22C160C0E989
:1027600004128161C161FFF7DFFD002803D0BDE8DD
:102770001040FEF7D6B810BD003801403C010020E3
:10278000FEE7704770477047FEF7DCBE30B595B086
:1027900028216846FDF7FFFC14210AA8FDF7FBFC81
:1027A00018210FA8FDF7F7FC01210804CDE900105E
:1027B0000024029402250491CDE907504FF4E01063
:1027C00009906846FFF7B8F80F20CDE90A056802BE
:1027D000CDE90C4002210AA80E94FEF7C1FFA80320
:1027E00011900F950FA8FEF745FF15B030BD70474B
:1027F0000148FFF7B7BC0000F4000020F0B5026804
:102800001C4B1D4D1D4E1E4F1E4C4FF0804C9842D0
:1028100009D0A04207D0604505D0A84203D0B042FD
:1028200001D0B84204D122F0700E4A6842EA0E028A
:10283000984209D0A04207D0604505D0A84203D0F5
:10284000B04201D0B84203D122F44075CA682A438D
:102850004D6922F080022A4302608A68C2620A68D7
:102860008262984201D0A04201D10969016301212D
:102870004161F0BD002C0140000400400008004010
:10288000000C00400034014010B501F01F0301218D
:10289000046A99408C430462016A9A4011430162C0
:1028A00010BD10B5846842EA032224F47F440A4331
:1028B0002243826010BD826822F070020A4342F017
:1028C00007018160704710B503689A6822F07004B0
:1028D0004A68224322F007040A6822439A604A6841
:1028E00012F00F0F30D11211082A2DD2DFE802F0BA
:1028F0002C2C2C2C0B2127040B69D1E90221006818
:10290000FFF7CFFF20E00A68052A10D00268136A9B
:10291000146A24F00104146202689469096924F0BD
:10292000F00444EA01119161006803620CE00120A7
:1029300010BD0A698968006800F008F804E00A69B7
:102940008968006800F04AF8002010BD10B5036ADD
:10295000046A24F001040462846924F0F00444EA67
:10296000021423F00A020A438461026210BD0000CF
:1029700070B5046A24F0010404628469056A124E89
:10298000B0420ED0114EB0420BD0B0F1804F08D003
:102990000F4EB04205D00F4EB04202D00E4EB042A4
:1029A00003D124F00304144301E044F001041A07A6
:1029B00024F0F00444EA126225F00A0301F00A014F
:1029C00019438261016270BD002C01400034014056
:1029D0000004004000080040000C004010B5036AED
:1029E00023F0100303628369046A23F4704343EA0B
:1029F000023224F0A00343EA01118261016210BD9A
:102A000030B5046A24F0100404628469056A24F471
:102A1000407444EA022222F470444FF6FF7202EA44
:102A200003322243A02425F0A00304EA0111194334
:102A30008261016230BD000070B504460068016922
:102A4000E26821F44051114301612169A068084303
:102A5000616908432168CA6841F20C639A430243E2
:102A6000CA6020684169A26921F440711143416143
:102A70001E492068884202D1FEF718FF01E0FEF7E8
:102A800005FF00EBC00101EB0012606864218000CB
:102A9000B2FBF0F3B3FBF1F36FF018067343B2FB34
:102AA000F0F5B2FBF0F605EB8305322303EB0515D9
:102AB000B5FBF1F5B6FBF1F605F0F00505EB0615F3
:102AC000B2FBF0F6B2FBF0F0B0FBF1F06FF01802E1
:102AD000504306EB800003EB0010B0FBF1F02168DF
:102AE00000F00F002844886070BD000000380140ED
:102AF0002DE9F041984617460E460446069D1DE016
:102B0000681C1BD02DB1FEF717FDA0EB0800A842F2
:102B100014D92068C16821F4D071C160206841696E
:102B200021F001014161202084F8390084F83A0045
:102B3000002084F838000320BDE8F0812068006898
:102B400036EA000004D00020B842D9D00020F3E7D4
:102B50000120F9E7FEE700000FB4054B10B503A90B
:102B6000044A029800F0EAF810BC5DF814FB00007B
:102B70006D340008200000200907090E002804DB3E
:102B800000F1E02080F80014704700F00F0000F121
:102B9000E02080F8141D704702E008C8121F08C129
:102BA000002AFAD170477047002001E001C1121FCE
:102BB000002AFBD1704700002DE9FF5F82B00021A1
:102BC000DDE90430020DDDF840B0034318D044F6CF
:102BD0001050A2F2FF3242431514119801281FD061
:102BE000A5EB0B00401C5FEA000A4FF000064E4FB9
:102BF000DFF83891B046504615D5CAF1000413E00D
:102C0000119801244AA3012801D16FEA0B0102980F
:102C1000119AC0E90031C0E9024206B0BDE8F09F58
:102C2000CBF10000DFE704460021404A491842EB9F
:102C30000450CDE9001012E0E00707D032463B46D1
:102C400040464946FDF75FFC8046894632463B4692
:102C500010461946FDF757FC06460F466410002C37
:102C6000EAD1DDE90401DDE90023BAF1000F06DA5B
:102C7000FDF749FC42464B46FDF745FC05E0FDF7F4
:102C8000B4FC42464B46FDF7B0FC04460E4600221B
:102C9000284BFDF731FD03D84FF0FF30014607E028
:102CA0000022254B20463146FDF786FBFDF70CFD43
:102CB000102409E0002C0ADB0A220023FDF714FB94
:102CC000039B30321A55641E50EA0102F2D1641C93
:102CD000039AC4F111031444119A012A03D001226A
:102CE00008430DD10AE0084304D000204FF0110B37
:102CF000119072E7A3EB0B056D1E0DE05B4504DD43
:102D00004FF0000205F1010504E003DA4FF0000284
:102D1000A5F10105002AECD002981199C0E9023111
:102D2000C0E9004579E70000000014400000F03FD2
:102D3000300000000000F0430000E03F2DE9FF4FAD
:102D400095B09B468946064600250FE2252877D197
:102D500000242746F84A0121059400E0044316F8B0
:102D6000013F203B01FA03F01042F7D130782A28C6
:102D700011D06FF02F033078A0F13002092A16D855
:102D8000059A44F0020402EB820203EB4202104473
:102D9000761C0590EFE759F8042B0592002A03DA18
:102DA000504244F40054059044F00204761C3078FC
:102DB0002E2816D116F8010F44F004042A280DD04D
:102DC0006FF02F023078A0F13003092B09D807EB00
:102DD000870302EB4303C718761CF3E759F8047B1B
:102DE000761C30786C280FD006DC4C2817D0682869
:102DF0000DD06A2814D104E0742810D07A280FD19D
:102E00000DE044F400140AE044F4801401E044F4BA
:102E100040147278824202D104F58014761C761C2C
:102E2000307866280BD013DC582877D009DC0028CE
:102E300075D04528F6D04628F4D047281AD19DE110
:102E400018E0632835D0642879D0652812D195E13F
:102E5000702873D008DC6728F1D069286FD06E28FD
:102E60000DD06F2806D1B5E073282CD0752875D009
:102E7000782874D05A46179990476D1C75E1C4F3B1
:102E80000250022809D003280DD0D9F800100428D8
:102E90000DD00D6009F1040967E1D9F80010EA17B7
:102EA000C1E90052F6E7D9F800100D80F2E70D7085
:102EB000F0E719F8041B8DF8001000208DF80100D0
:102EC000EA46012003E059F804AB4FF0FF306107F8
:102ED0004FF0000102D40DE008F101018846B9422B
:102EE0000FDA8045F8DB1AF808100029F4D108E061
:102EF00008F1010188468142FADB1AF8081000291E
:102F0000F6D105985B46A0EB080721463846179A8C
:102F100000F094FA284400EB080507E04DE029E1B1
:102F20000DE01AF8010B5A4617999047B8F10108BD
:102F3000F7D25B4621463846179A13E142E00A224F
:102F40000092C4F302524FF0000A022A08D059F846
:102F500004CB032A4FEAEC710AD00DE029E02AE005
:102F600009F1070121F00702F2E802C1914609E0E8
:102F70000FFA8CFC4FEAEC71042A03D14FFA8CFC57
:102F80004FEAEC71002907DA0A460021DCF1000C57
:102F900061EB02012D2202E0220504D52B228DF8DF
:102FA0000420012203E0E20701D02022F7E7904647
:102FB00059E00A2102E010220DE010214FF0000A32
:102FC00000910BE010224FF0000A44F0040408279F
:102FD000009203E008224FF0000A0092C4F302526C
:102FE000022A05D059F804CB0021032A08D009E0B1
:102FF00009F1070121F00702F2E802C1914605E05C
:103000001FFA8CFC042A01D10CF0FF0C4FF00008D1
:10301000220728D5702806D0009B83F0100353EABE
:103020000A0305D00EE040228DF80420012208E0BA
:103030005CEA010206D030228DF804208DF80500EC
:1030400002229046009B83F0080353EA0A030AD148
:103050005CEA010201D1620705D530228DF8042017
:103060004FF001087F1E582804D034A003900EA80A
:1030700002900DE036A0F9E753466046009AFDF74E
:1030800033F984460398825C0298401E02900270D5
:103090005CEA0100F0D1029806A9081A00F1200AA2
:1030A000600702D524F4803400E00127574502DD93
:1030B000A7EB0A0000E0002000EB0A010090059851
:1030C0004144401A0590E00306D45B462146179A16
:1030D000059800F0B3F90544002706E001A85A4618
:1030E000C05D179990476D1C7F1C4745F6DBE003D8
:1030F0000CD55B462146179A059800F09FF90544C8
:1031000004E030205A46179990476D1C0099481EDC
:1031100000900029F5DC08E0029802995A460078F0
:10312000491C0291179990476D1CBAF10001AAF150
:10313000010AF1DC65E10000092801003031323379
:1031400034353637383961626364656600000000E3
:1031500030313233343536373839414243444546CD
:103160000000000000F058F90544761C3078002873
:103170007FF4ECAD19B02846BDE8F08F620700D4AB
:10318000062709F1070222F0070CFCE80223E146BA
:1031900003F000485FEA080C02D00FF2702C0DE03B
:1031A0005FEA045C02D50FF2682C07E05FEAC47C9A
:1031B00002D00FF2602C01E0AFF2700C4FF0FF383C
:1031C00023F00043CDF850C065280CD006DC45281C
:1031D00009D046281DD047283DD13DE0662818D0AB
:1031E00067287ED138E00021112F01DB112000E09B
:1031F000781CCDE9000106A90EA8FFF7DDFCDDE98A
:103200000F010E9A03910021009207F1010A049127
:103210004DE04FF000400097CDE9011006A90EA83F
:10322000FFF7CAFCDDE90F0203920E9B1199002201
:10323000DDF80CA00093049211B9791C00EB010A8F
:10324000B7EB0A0004D4C0F1FF3007F1010A049083
:10325000AAEB0700019044E0012F00DA01270021CA
:10326000112F01DD112000E03846CDE9000106A94B
:103270000EA8FFF7A1FCDDE90F010E9A03910021D2
:1032800004910092BA4621070CD40399514500DA03
:103290008A46BAF1010F05DD009AAAF10101515CDD
:1032A000302908D0B84202DA10F1040F06DA012101
:1032B000CDE9011015E0AAF10101E9E7002805DCDC
:1032C000049901440491AAEB000102E0411C51451C
:1032D00000DD8A460499401A401C01904FF00040DE
:1032E0000290200704D40198504501DBCDF80480FA
:1032F00000208DF84F0002980DF14F07B0F1004FFC
:1033000025D02B200E9002984FF0020800280CDAEE
:10331000404202902D200E9007E00A210298FCF70F
:10332000CDFF3031029007F8011DB8F10001A8F17E
:103330000108F2DC02980028EFD1791E0E9808707F
:10334000307800F0200040F0450007F8020D12A888
:10335000C01B00F107081498007800B1012000EBB1
:103360000A01019801EBE07105984144401A401EA2
:103370000590E00306D45B462146179A059800F0B5
:103380005DF805441498007818B15A46179990478B
:103390006D1CE00324D55B462146179A059800F082
:1033A0004DF805441CE00498002807DBDDE9030123
:1033B000884203DD0098405C179901E0179930209E
:1033C0005A469047049805F10105401C0490019865
:1033D000401E019004D12E205A46179990476D1C2B
:1033E000BAF10001AAF1010ADDDC05E017F8010BD2
:1033F0005A46179990476D1CB8F10001A8F10108D1
:10340000F4DC5B462146179A0598ABE62D000000D8
:103410002B000000200000002DE9F04104460025AB
:103420001E461746880404D405E039462020B047DC
:103430006D1C641EF9D52846BDE8F0812DE9F041E8
:10344000044600251E469046C80301D5302700E0FB
:103450002027880404D505E041463846B0476D1C56
:10346000641EF9D52846BDE8F081000013B54FF67B
:10347000FF73012269460248FEF7C0FF00981CBD99
:103480003C010020FEF766F8FFF780F9FFF7B0F87F
:10349000FFF75CF8FFF770F8FFF70AF8FFF738F866
:1034A000FFF7ECF8FFF750F900210348FEF7E0FDC5
:1034B0000248FDF7CFFCFEE7F400002024000020C6
:1034C00000000000000000000102030406070809D4
:1034D0000000000001020304F8340008000000208E
:1034E00024000000982B00081C3500082400002050
:1034F0005C050000A82B0008000000000000000090
:1035000000000000000000000100000010000000AA
:0C351000000000000024F4000000000097
:0400000508000131BD
:00000001FF
