:020000040800F2
:10000000909000209D0100084B470008C94200085D
:1000100049470008850B00087D55000800000000D6
:100020000000000000000000000000006D4F00080C
:10003000010F000800000000C5470008A14F00089C
:10004000B7010008B7010008B7010008B7010008B0
:10005000B7010008B7010008B7010008D91100086E
:10006000DB110008B7010008B7010008B70100085C
:10007000B7010008B7010008B7010008B701000880
:10008000B7010008B7010008B7010008B701000870
:10009000B7010008B7010008B7010008B701000860
:1000A000B7010008B7010008B70100085150000867
:1000B000B7010008B7010008B7010008B701000840
:1000C000B7010008B7010008B7010008B701000830
:1000D000B70100086555000871550008B701000810
:1000E000D1110008B7010008B7010008B7010008E6
:1000F000B7010008B7010008B7010008B701000800
:10010000B7010008B7010008B7010008B7010008EF
:10011000B7010008515200085D500008B7010008FF
:10012000510E0008B7010008B7010008B701000828
:10013000B7010008B7010008B7010008B7010008BF
:10014000B7010008B7010008B7010008B7010008AF
:10015000B7010008B7010008B7010008B70100089F
:10016000B7010008B7010008B7010008B70100088F
:10017000B7010008B7010008B7010008000000003F
:10018000B7010008B7010008DFF80CD000F05EFBF3
:1001900000480047219700089090002006488047BB
:1001A00006480047FEE7FEE7FEE7FEE7FEE7FEE75C
:1001B000FEE7FEE7FEE7FEE735500008890100088C
:1001C0002DE9F05F0546002092469B46884606468C
:1001D000814640241BE0284641464746224600F01F
:1001E00086FA53465A46C01A914110D31146184612
:1001F000224600F06DFA2D1A67EB01084F462246A1
:100200000120002100F064FA17EB00094E41201E86
:10021000A4F10104DFDC484631462A464346BDE8E6
:10022000F09F00000649074A0868504343F239022C
:10023000104408604008704701490860704700009A
:10024000540100206D4EC64140EA01039B0703D0D4
:1002500009E008C9121F08C0042AFAD203E011F805
:10026000013B00F8013B521EF9D27047D2B201E0C7
:1002700000F8012B491EFBD270470022F6E710B5AB
:1002800013460A4604461946FFF7F0FF204610BD04
:10029000421C10F8011B0029FBD1801A704730B5B1
:1002A00004460020034600E05B1C934203D2E05C5E
:1002B000CD5C401BF8D030BD2DE9FE4F804681EA71
:1002C0000300C00F0C46009021F0004123F00045D0
:1002D000B8EB0200A94105D24046214690461C4693
:1002E0000B46024623F00040104347D0270DC7F3CA
:1002F0000A00C3F30A510290401A019040286BDAB9
:10030000C3F3130040F4801B0098924620B10023F1
:10031000D2EB030A63EB0B0B01985946C0F1400284
:10032000504600F0D5F906460D4650465946019A0A
:1003300000F0EDF910EB08006141002487EA11524A
:1003400084EAE7731A4340D0009A62B3019A012A03
:100350004FEA075215DC001B61EB02014FF000422F
:1003600002EA0752CDE90042001C41F580113246F5
:100370002B4600F0EDF903B0BDE8F08F4046214672
:10038000F9E7001B61EB0201001C41F58013001826
:100390005B412018A2F5001747EB030140EAD57036
:1003A000B6196D4111E06D084FEA360645EAC07591
:1003B0004FEA0752001B61EB0201001C41F580115E
:1003C00049084FEA30000019514132462B4603B02C
:1003D000BDE8F04F00F0ADB90098012240000023C5
:1003E000D0EB020263EBE073009821464FEAE07421
:1003F000B8EB000061EB0401E9E783F000435BE741
:1004000081F0004158E72DE9FE4F81EA030404F032
:10041000004421F0004100944FF0000B23F0004312
:1004200050EA01045ED052EA03045BD0C3F30A54DD
:10043000C1F30A552C44A4F2F3340194A0FB0254F6
:10044000C1F3130141F48011C3F3130343F4801388
:1004500001FB024400FB034E840A970A44EA8154DC
:1004600047EA8357A4FB076802958D0A05FB0785B9
:100470004FEA932C04FB0C542705029D4FEA0658C3
:1004800047EA1637B5EB08056EEB070C870E920EA0
:1004900047EA811742EA8312A7FB0201B6EB0B0180
:1004A00064EB00042B0D43EA0C335E1844EB1C5044
:1004B000DA465146E7FB0201C5F313044FEA0B335A
:1004C00043EA14534FEA0432019C43EA0603A4F1C1
:1004D0000C040294009CCDE900B400F039F903B09B
:1004E000BDE8F08F00200146F9E72DE9F04D81EAE3
:1004F000030404F0004B21F0004514464FF0000ABD
:1005000023F0004150EA050220D054EA01021DD038
:10051000C5F30A570246C5F31303C1F31300C1F331
:100520000A5640F4801543F48013A7EB0608101B0D
:10053000D64608F2FD3873EB050002D308F1010836
:1005400001E092185B41B8F1000F03DA0020014688
:10055000BDE8F08D00204FF48011064684460EE081
:10056000171B73EB050705D3121B63EB050306434B
:100570004CEA010C49084FEA300092185B4150EAFE
:100580000107EDD152EA030012D082EA040083EAA7
:100590000501084305D0101BAB4106D20122002300
:1005A00006E000224FF0004302E06FF0010253101A
:1005B0001AEB06004CEB085110EB0A0041EB0B0163
:1005C000BDE8F04D00F0B5B80EB5C10F80EAE0709F
:1005D0000844CA07002140F233438DE80E000A4662
:1005E0000B4600F0B5F803B000BD0EB540F2334144
:1005F00002910021CDE900110A460B4600F0A8F84F
:1006000003B000BD70B5C1F30A5201F000450024EB
:10061000C1F3130140F2FF3341F480119A4201DA31
:10062000002070BD40F233439A42A2F2334203DC11
:10063000524200F05CF800E090402C43F1D0404280
:1006400070BDC1F30A5210B5C1F3130140F2FF337C
:1006500041F480119A4201DA002010BD40F2334388
:100660009A42A2F2334203DC524200F040F810BD3D
:10067000904010BDC1F30A52C1F3130140F2FF33A1
:1006800041F480119A4202DA00200146704740F29C
:1006900033439A42A2F2334202DC524200F027B8BE
:1006A00000F016B830B50B46014600202022012488
:1006B00009E021FA02F59D4205D303FA02F5491B30
:1006C00004FA02F52844151EA2F10102F1DC30BD46
:1006D000202A04DB203A00FA02F100207047914002
:1006E000C2F1200320FA03F3194390407047202AF7
:1006F00004DB203A21FA02F00021704721FA02F3CC
:10070000D040C2F120029140084319467047202A88
:1007100006DBCB17203A41FA02F043EAE07306E029
:1007200041FA02F3D040C2F1200291400843194639
:10073000704710B5141E73F1000408DA401C41F133
:10074000000192185B411A4301D120F0010010BD55
:100750002DE9F04D92469B4611B1B1FA81F202E0CB
:10076000B0FA80F220329046FFF7B2FF04460F46FF
:1007700040EA0A0041EA0B0153465A46084313D0A7
:10078000114653EA010019D0C8F140025046FFF764
:10079000AEFF05460E46504659464246FFF798FFC3
:1007A000084305D0012004E020463946BDE8F08D1D
:1007B0000020054346EAE0762C4337430A98630558
:1007C000E40AA0EB08000022FD0A44EA47540A307C
:1007D00002D500200146E9E7010510196941DDE96C
:1007E000084500196941BDE8F04DA2E770B521F058
:1007F000004303430CD0C1F30A550024D5EB040594
:1008000064EB0403D617AD1AB34102DB00200146A6
:1008100070BD201841EB025170BD000030B5041EC0
:1008200071F1000404DB4FF00044404264EB01012D
:10083000141E73F1000405DB1C464FF000435242C6
:1008400063EB0403994208BF904230BD064C074D4C
:1008500006E0E06840F0010394E807009847103490
:10086000AC42F6D3FFF794FC18DA000838DA000837
:100870002DE9F04D00231A461B1A8A4103DB0020A4
:100880000146BDE8F08DC1F30A52C1F3130141F4F2
:1008900080154FF0000BD10702D100186D41521E98
:1008A0000027044640F2FF11384601EB620A3E463B
:1008B0008046024600204FF48011FFF718FFC2194E
:1008C0007141BB1846EB0100B4EB030C75EB000C57
:1008D00004D3E41A65EB000517460E46241908F107
:1008E00001006D4180463428E3DDF91946EB06002E
:1008F000091BA84103D24FF0FF32134601E000224A
:1009000013461BEB070046EB0A51BDE8F04DFFF71D
:1009100010BF30B58C1810F8012B12F00F0301D165
:1009200010F8013B120906D110F8012B03E010F872
:10093000015B01F8015B5B1EF9D101E001F8013BAD
:10094000521EFBD1A142E6D3002030BD10B503F00A
:1009500001FE03F097FD06220D490E4800F0E4FF6A
:1009600003F0DEFD00231A4619460B4801F0DCF8BF
:1009700000231A461021084801F0D6F80021064845
:1009800001F0DFF8BDE810401021034801F0D9B8AC
:10099000883E0020A0080020480A002010B501462B
:1009A000806B026C12F0500F05D0026CD20626D577
:1009B00000F022FF10BD016C41F400710164016878
:1009C0008A6812F0405F17D1027EAAB9CA6A12F48F
:1009D000700F02D08A6852050ED44A6822F02002B5
:1009E0004A60016C21F480710164016CC90403D474
:1009F000016C41F00101016400F0FCFE10BD806B50
:100A0000C26CBDE810400846104710B5806B40210D
:100A10000164416C41F00401416400F0EDFE10BD41
:100A200010B5806B00F0E7FE10BD0000464910B520
:100A30004A6822F440324A604A6843681A434A606E
:100A400001684A6822F480724A6001684A68036952
:100A500042EA03224A6001684A6822F040724A6012
:100A600001684A6883681A434A6001688A6822F408
:100A700000628A6001688A68C3681A438A60816A72
:100A80006FF07062D14201688A6822F070628A60F9
:100A900001688A680CD0836A1A438A6001688A6890
:100AA00022F040528A6001688A68C36A1A4301E0F2
:100AB00022F040528A6001688A6822F002028A604D
:100AC00001688A68037E42EA43028A6090F8201037
:100AD000002901684A680FD042F400624A60016848
:100AE0004A6822F460424A6001684A68174C436AC7
:100AF00004EB43331A4301E022F400624A600168C8
:100B0000CA6A22F47002CA620168CA6A838B104CF6
:100B100004EB03531A43CA6201688A6822F4007224
:100B20008A6001688A6890F8303042EA43228A601D
:100B300001688A6822F480628A6001688A68406974
:100B400042EA8020886010BD0023014000E0FFFFE2
:100B50000000F0FF1CB50A480849016053214160BC
:100B600040F2E7318160C16002F09CFD00200090FE
:100B700001906946024802F04DFD1CBD0010004086
:100B8000080A0020FEE70000164810B590ED000BA3
:100B900051EC100BFFF736FD134900B291EC061B28
:100BA00091ED060B06F068F90346002211460F4846
:100BB00000F0BAFF0E4890ED000B51EC100BFFF760
:100BC00021FD094900B2383191EC061B91ED060B6D
:100BD00006F0B8F903460022BDE810401021034892
:100BE00000F0A2BF68000020983D0020480A0020C5
:100BF0007000002070B5054601F06AFF074C61687F
:100C0000401AB0F5FA7F07D301F062FF6060284612
:100C1000BDE8704000F004B870BD00003000002056
:100C2000F0B5404E054687B03078022701280AD03B
:100C3000002402280DD0052803D1284607F0E4F847
:100C4000347007B0F0BD3770284607F0ADF836A015
:100C500044E031783EA004F057FD284607F0E6F85E
:100C600000283ED00320307022463D4C6E68394645
:100C7000E270A2706270277013463AA0009204F0EE
:100C800043FD300E6072C6F307432372C6F307229A
:100C9000E271F1B2A17100903BA004F035FDA868AB
:100CA000060EC0F307436673C0F307222373C1B275
:100CB000E272A1723CA0009604F026FDE868050EE1
:100CC000C0F307436574C0F307222374C1B2E27313
:100CD000A1733EA0009504F017FD45A004F014FD9B
:100CE000AFE7686A807A0428ABD9042030702846C0
:100CF00007F08AF8484868606FF07F40A86047486E
:100D0000E860281D08F0FCF9024645A101A804F09E
:100D10000BFD44A004F0F8FC01A947A004F0F4FC8A
:100D20008FE7000030000020202053746174653A82
:100D3000204C6F6F6B696E6720666F72204448436A
:100D40005020736572766572202E2E2E0A000000E8
:100D5000444843505F73746174653D25640A000024
:100D6000380C0020204D41432020B5D8D6B73A207A
:100D70002020202020202020256420256420256498
:100D80002025640A000000002044484350204745C5
:100D9000542049503A20202020202025642025641A
:100DA0002025642025640A002044484350204745FC
:100DB0005420D7D3CDF8D1DAC2EB3A2025642025D0
:100DC000642025642025640A000000002044484374
:100DD000502047455420C4ACC8CFCDF8B9D83A20EC
:100DE00025642025642025642025640A0000000075
:100DF00020BFC9D2D4BDF8D0D0C1B4BDD354435064
:100E0000B7FECEF1C6F7A3ACB7A2CBCDCAFDBEDD0F
:100E10002E2E2E0A00000000C0A803AEC0A80301B9
:100E200025730000444843502054696D656F757404
:100E3000202121200A000000537461746963204955
:100E40005020616464726573733A2025730A000050
:100E5000014800F0BFBE0000E80800200168182328
:100E6000CAB2103AB2FBF3F2054B6FF30901032A41
:100E70009B5CC36500D9091D816508467047000069
:100E8000CAD7000810B5014600208B698A6A4FF066
:100E9000C07453B1B3F5005F15D072B1012A0CD004
:100EA000022A0AD0032A09D104E01AB1012A06D085
:100EB000022A03D1C96AC90100D5012010BDC96A3F
:100EC000A142FAD010BD002AF7D0012AF2D0022A9E
:100ED000F3D0032AF3D010BD30B50468256825F49B
:100EE00080252560046863608368402B036803D015
:100EF00099600068C26030BD9A600068C16030BD12
:100F00007047000010B503F03BFB0022012125488B
:100F100001F0D8FD00224FF48071234801F0D2FD8A
:100F200003F0A6FB01222149214802F0B3FE1F4C29
:100F30000122611C1F4802F0ADFE0122A11C1E48C7
:100F400002F0A8FE1DA1214804F0EEFB1F48FFF7A8
:100F50009FF982B24FF47A7423461C49144802F078
:100F6000BFFF1BA11E4804F0DFFB1D48FFF790F9EF
:100F700082B223461A49104802F0B2FF08F094FBEF
:100F800003F0E4FB174804F0FBFA03F0F1FFFFF76E
:100F9000DDFC04F093FBFFF7DDFDBDE810401248D7
:100FA00002F0BABB00000240001002400500002021
:100FB0004809002088090020C8090020B4AEBFDA23
:100FC000CDA8D1B6B3C9B9A60A000000A00200207E
:100FD0005253323332CDA8D1B6B3C9B9A60A0000F4
:100FE000A007002068020020080A002010B51A4C53
:100FF000184A0020C4E900204FF6FF71C4E902013D
:1010000004F1400103232061C1E900300123C1E95B
:1010100002300861C1E90503C861086250622046D8
:1010200002F08BFB21686FF0010008612068016805
:1010300041F0040101602068C16841F00101C16014
:10104000002211461B2001F0B1FDBDE810401B201D
:1010500001F09EBD000001407C0A0020064908B551
:1010600009684FF4FA52B1FBF2F14143009100BF1D
:10107000491E0091FBD208BD1800002038B5044677
:10108000006800F58050816941F480118161206819
:1010900000F58050806900900120FFF7DFFF206895
:1010A000009900F58050816138BD00002DE9F041C4
:1010B000044621B14FF40060E060C000A060E06928
:1010C0000025002861D028462368402619683A4A3E
:1010D0001140D4E902273A43024342F40070084326
:1010E000186020680768012000F0E6FE20680760AD
:1010F0002068466020684668012000F0DDFE206818
:101100004660206885602068C560216888694FF660
:101110004172104040F0800088612068866901209B
:1011200000F0CAFE206886612068C5612068C56934
:10113000012000F0C1FE2068C561226802F58052DE
:1011400090691E4908401E4901439161206800F5DD
:1011500080508569012000F0AFFE206800F58050C6
:1011600085612068174900F580500160206800F50E
:1011700080500568012000F09FFE206800F5805037
:101180000560A069012803D009E04FF480609BE767
:10119000206800F58050C1690B4A1143C161606944
:1011A0000A4982880A640278D0F8010042EA0020E5
:1011B0004864BDE8F08100000F8120FF233FDEF886
:1011C000040020028020C102400001000080024093
:1011D0004FF4006001F082BB70477047002229B1D4
:1011E00001291AD002291BD04FF440720E490B6816
:1011F00023F440730B600B6813430B600A6822F002
:10120000F8020A600A68022303EBC00002430A6086
:10121000086840F48030086070474FF48072E5E75A
:101220004FF40072E2E70000103C024013480168EE
:1012300089050FD5016821F400710160016841F44E
:1012400000610160016821F400610160016841F4FE
:1012500000710160016849050FD5016821F48061C2
:101260000160016841F480510160016821F48051FE
:101270000160016841F4806101607047003C0240F8
:1012800008490A6822F440720A600A6842F00402BF
:101290000A600A684FF4803343EA002002430A6080
:1012A00070470000103C0240064A136823F4407364
:1012B000136013681360136843F001031360017037
:1012C00070470000103C0240094910B50C6824F436
:1012D00040740C600C6844F440740C600C6844F07A
:1012E00001040C600260BFF36F8F436010BD00000B
:1012F000103C0240074A136823F4407313601368DC
:1013000043F480731360136843F00103136001809A
:1013100070470000103C0240074A136823F44073F2
:101320001360136843F400731360136843F0010300
:101330001360016070470000103C024017490868C4
:10134000C206174805D5C26942F01002C2611022D8
:101350000A600A68920605D5C26942F00802C261B5
:1013600020220A600A68520605D5C26942F00402CA
:10137000C26140220A600A68120605D5C26942F0BD
:101380000202C26180220A600A68920705D5C2691A
:1013900042F02002C2610220086070470C3C02400B
:1013A0005C0A002070B5114904460020C86101F0B4
:1013B0008FFB06460E4D09E0601C07D024B101F0FA
:1013C00087FB801BA04201D9032070BD2868C003A1
:1013D000F2D42868C00701D001202860286810F0E6
:1013E000F200F2D0FFF7AAFF012070BD5C0A0020D6
:1013F0000C3C02400021A0F100634FF48042934274
:101400003FD321490144914201D2012139E01F49D2
:101410000144914201D2022133E01D49014491422D
:1014200001D203212DE01B490144B1F5803F01D2D7
:10143000042126E0184942184FF400318A4201D2B3
:1014400005211EE0154A02448A4201D2062118E015
:10145000134A02448A4201D2072112E0114A02448F
:101460008A4201D208210CE00F4A02448A4201D28A
:10147000092106E00D4A1044884201D20A2100E009
:101480000B2108467047000000C0FFF70080FFF7FF
:101490000040FFF70000FFF70000FEF70000FCF738
:1014A0000000FAF70000F8F70000F6F70000F4F784
:1014B0002DE9F047444E002406F1180556F82400A3
:1014C000FFF793F805EBC402641CE4B2C2E9000123
:1014D000062CF3D33C4A002148323C4C02F1100365
:1014E00002F1200602F1300C02F1400802F150092D
:1014F00005EBC100491C90ED000BA078C9B202EBCE
:10150000C00787ED000B05EBC107491C97ED000BE9
:1015100003EBC007C9B287ED000B05EBC107491CFF
:1015200097ED000B06EBC007C9B287ED000B05EB8A
:10153000C107491C97ED000B0CEBC007C9B287ED42
:10154000000B05EBC107491C97ED000B08EBC0072A
:10155000C9B287ED000B05EBC107491C97ED000BE5
:1015600009EBC007401C87ED000BC9B2A07006292B
:10157000BED3C0B2022825D11348483007F028FF57
:10158000114884ED020B583007F022FF0E4884ED1D
:10159000040B683007F01CFF0B4884ED060B783015
:1015A00007F016FF084884ED080B883007F010FF9D
:1015B000054884ED0A0B983007F00AFF84ED0C0B08
:1015C0000020A070BDE8F087883E00204800002081
:1015D0002DE9F041254A0026254D1088254C142878
:1015E00026D3264924480968B0F90000496AC0EBAF
:1015F000004001442960A888081A00B26881696027
:10160000002800DA40426881298908442881168030
:10161000E0881B49401CE0800888401C08806078F6
:10162000401C6070A088401CA0802078401C207066
:10163000E088322818D12F893846FEF7D6FF9FED73
:10164000111B53EC112BFEF750FFFEF7DBFFA881B7
:1016500039460EA004F058F82E81E680BDE8F0412E
:101660000121104801F027BABDE8F0810A000020EE
:10167000783E0020480000201C0000207C0A00204A
:101680005001002000000000000046403173C4DA21
:10169000CAFDB5BDB5C4C2F6B3E5CEAAA3BA2564EA
:1016A000200A00000000024078B50024009490F861
:1016B0003C20012A19D0012280F83C200A68072327
:1016C0000568092A13D9EE680A3A02EB42029340F0
:1016D0009E43EE600B788A680A3B03EB43039A4013
:1016E0000368DD682A43DA6010E0022078BD2E69C5
:1016F00002EB420293409E432E610B788A6803EB13
:1017000043039A4003681D692A431A614A681F23EC
:10171000072A13D205686E6B521E02EB82029340B9
:101720009E436E630B790A885B1E92B203EB8303C0
:101730009A4003685D6B2A435A6327E005680D2AC7
:1017400012D22E6BD21F02EB820293409E432E6375
:101750000B790A88DB1F92B203EB83039A4003687C
:101760001D6B2A431A6311E0EE6A0D3A02EB820206
:1017700093409E43EE620B790A880D3B92B203EBD5
:1017800083039A400368DD6A2A43DA62164B0568D0
:10179000144A9D4206D10D68122D03D1556845F4B7
:1017A0008005556005689D4218D10B68102B01D04B
:1017B000112B13D1536843F40003536009681029B7
:1017C0000CD10A490A4A0968B1FBF2F101EB810127
:1017D000490000E0491E00910029FBD180F83C40FF
:1017E000002078BD002301400020014018000020A7
:1017F00040420F0070477047704770B504004FF0CB
:10180000000503D0206C002610B107E0012070BD58
:10181000204600F01DF8666484F83C60206CC00629
:1018200010D4206C20F4885040F002002064204640
:10183000FFF7FCF86664206C20F0020040F0010025
:10184000206400E0012584F83C60284670BD00005B
:101850002DE9F041064600682E4986B0884256D1EF
:101860002D480025016841F480610160006800F4A2
:101870008060059028481438016841F0200101601B
:101880000068264C00F020000590402000900320C6
:10189000CDE901056946204601F02CF88020009032
:1018A0006946204601F026F8A715694620460097AC
:1018B00001F020F8601500906946204601F01AF802
:1018C0004FF4806869462046CDF8008001F012F898
:1018D000082000906946204601F00CF8114C104891
:1018E00020608005C4E901058013E560C4E9048037
:1018F0008000C4E90607C000C4E908050120C4E966
:101900000A052046256300F035FAB463A66306B0E5
:10191000BDE8F0810022014044380240001402403A
:1019200010640240E8080020F8B50E460021044685
:10193000009190F83C00012807D0012084F83C0079
:1019400020688368DB0702D011E00220F8BD8368BD
:1019500043F0010383603748374B0068B0FBF3F076
:1019600000EB400000E0401E00900028FBD1206802
:101970008368DB075CD0236C40F20165AB4343F422
:10198000807323644068400505D5206C20F4005026
:1019900040F480502064206CC00404D5606C20F0BA
:1019A0000600606400E0616484F83C10A16B244888
:1019B000224DC863A16B23480864A16B2248C86408
:1019C00021686FF0220008602068416841F0806162
:1019D00041602068816841F480718160216813460C
:1019E00032464C31A06B00F02FFA68681749C006E8
:1019F000206806D088421BD1816811F0405F13D067
:101A000016E08842F8D0124A904203D1D1F804235C
:101A1000D206F1D00F4A90420AD1D1F8041301F056
:101A20001F011029E8D303E0816841F08041816003
:101A30000020F8BD1800002040420F0000230140A4
:101A40009D090008210A00080B0A00080020014037
:101A5000002101400022014070B54379012B1AD0CA
:101A6000012646710223037105682C6840F6FE7357
:101A700093409C43D1E900310B43934023432B60B7
:101A800001680B68C0249440A3430B6006710021D9
:101A90004171084670BD022070BD70B5040003D0CE
:101AA0002079002510B105E0012070BD6571204648
:101AB00000F008F80220207125610120207100202B
:101AC00070BD000010B50068144986B0884223D16B
:101AD00013480021026842F000520260006800F0E2
:101AE000005005900E481038026842F00102026072
:101AF00000680C4C00F001000590102000900320BD
:101B0000CDE901016946204600F0F4FE2020009056
:101B10006946204600F0EEFE06B010BD007400409D
:101B2000403802400000024018B504680094006884
:101B3000104421B1143000900360002018BD08301B
:101B4000F9E730B54279012A16D001224271022309
:101B5000037103681D6802FA01F425431D60002922
:101B600001680B680AD00C6803F4802304F4601445
:101B7000B3F5802F0FD015E0022030BD0C6803F0C4
:101B8000040304F03804042B0CD1382C0AD14B6820
:101B900043F0010305E0B4F5601F03D14B6843F047
:101BA00002034B60027100214171084630BD90F87C
:101BB0003510022903D0802141650120704705219D
:101BC00080F835100068016821F0010101600020F3
:101BD000704700002DE9F84304464FF00009CDF8A6
:101BE000009063484FF41651A56D0068B0FBF1F703
:101BF0002E6894F85C10082000FA01F131420FD0F1
:101C000021680A6852070BD50A6822F004020A60AC
:101C100094F85C108840A860606D40F00100606539
:101C200094F85C104FF0010808FA01F0304208D037
:101C300021684969090604D5A860606D40F002007A
:101C4000606594F85C1004208840304208D0216818
:101C50000968890704D5A860606D40F004006065DC
:101C600094F85C1010208840304218D02168096830
:101C7000090714D5A86020680168490304D50068E5
:101C8000000308D5A16C07E00168C90503D4016809
:101C900021F008010160216C09B12046884794F8C1
:101CA0005C1020208840304231D021680968C90684
:101CB0002DD5A86094F8350005282068016806D065
:101CC000490347D5006800031DD4616C1CE021F076
:101CD000160101602068416921F080014161206C9A
:101CE00008B9A06C20B12068016821F008010160EA
:101CF00094F85C103F208840A86084F8349084F801
:101D00003580216D1FE0E16B09B120468847606D89
:101D100000282BD0606DC00714D0052084F8350052
:101D20002068016821F0010101600098401C0090CA
:101D3000B84203D820680068C007F6D184F8349010
:101D400084F83580E16C002910D001B02046BDE850
:101D5000F04308470168C905D5D4016821F0100196
:101D6000016084F8349084F83580CCE7BDE8F883CE
:101D7000180000202DE9F041044600F0A9FE0646B7
:101D80005CB1002584F83450022084F835002068C6
:101D9000016821F0010101600DE00120BDE8F08142
:101DA00000F096FE801B052805D9202060650320E1
:101DB00084F83500F2E720680068C007F0D1226897
:101DC000116820480140D4E901031843D4E90336DF
:101DD0003343184363691843A3691843E3691843FD
:101DE000236A18430843616A042903D1D4E90B1319
:101DF00019430843106020684069666A20F00701B3
:101E000030460E43012704280CD1A06A0643E06A3D
:101E100040B12046FFF736F820B14020606584F8D5
:101E20003570BAE7206846612046FFF717F894F846
:101E30005C203F2191408160656584F83570002009
:101E4000ACE700003F8010F02DE9F0410446866DBC
:101E500090F83400002501280DD0012084F83400CA
:101E600094F835700020012F07D084F83400022543
:101E70002846BDE8F0810220FBE7022784F8357090
:101E800060652046FFF728F894F85C103F208840F2
:101E9000B0602068016841F016010160206C20B13B
:101EA0002068016841F0080101602068016841F084
:101EB00001010160DCE7000070B5044600F008FE97
:101EC0000546601C02D004480078044400F000FE7F
:101ED000401BA042FAD370BD0C0000202DE9F04158
:101EE000054690F845000C46012875D0012685F876
:101EF0004560022085F84400002C70D02A681168E3
:101F000041480140D4E900031843D4E902373B4378
:101F10001843AB6818432369184363691843EB6897
:101F20001843A3691843E3691843236A1843636A93
:101F30001843A36A18430843106028680768012003
:101F4000FFF7BAFF28680760D4E90B010843D4E91A
:101F50000D1211430843E16B0843216C0843616C87
:101F60000843A16C08432968486028684768012035
:101F7000FFF7A2FF286847602968E06C886029683D
:101F8000206DC8602A6891694FF641700140D4E91C
:101F900016031843B4F85470236E43EA07431843FA
:101FA000636E1843A36E18430843906128688769DD
:101FB0000120FFF781FF28688761D4E91B010843EE
:101FC0002968C8612868C4690120FFF775FF28687F
:101FD000C46114E000E002E00220BDE8F08129685D
:101FE000086820F49042D5E90203184310430860C2
:101FF000286804680120FFF75FFF2868046005F87F
:10200000446F00206870E8E70F8120FF2DE9F0435E
:1020100090F845400025012C0DD04FF0010C80F8C0
:1020200045C0022480F8444044F2F4574FF0004980
:102030005E1E816217E00220BDE8F08301EB4514CB
:10204000C4F80090C5EBC51808EB480802EB8808F7
:10205000C4E90178B54204D204F12008C4F80C8028
:1020600000E0E1606D1C9D42E8D3026802F58052F9
:10207000D16080F844C0002180F845100846DBE7B5
:102080002DE9F043914690F845200024012A0AD01A
:10209000012680F84560022280F844204FF4801C1D
:1020A0005D1EC1621BE00220BDE8F08301EB44121B
:1020B000C2F800C0C4EBC41707EB470809EB880758
:1020C0009760C7691FB9176847F440071760AC42AB
:1020D00003D202F12007D76000E0D160641C9C426B
:1020E000E4D3026802F58052116180F84460002157
:1020F00080F845100846D7E710B590F8451001293B
:1021000013D0012280F84520022180F84410816A12
:102110000C680023002C27DB0C68E40518D5846BC1
:10212000641C8463012C02D002E0022010BD016314
:1021300041630C68C4F30D44241FC463046BA4689A
:102140000464C96840F8281F02774377002010BD57
:102150000C68A40503D58263C0E90C1302E0846B0C
:10216000641C8463C968816200F8442F43700120B5
:1021700010BD00002DE9FC474FF000060400B146F9
:10218000009603D094F8440018B107E00120BDE8A0
:10219000FC8784F84560204600F0E2F86648016854
:1021A00041F480410160006800F480400190634880
:1021B000016821F4000101600168226A1143016095
:1021C000206800F58050016841F00101016000F0D5
:1021D0007FFC05464FF4FA7709E000BF00F078FC79
:1021E000401BB84203D9032004F8440F67E020687D
:1021F00000F580500068C007F0D12068006920F029
:102200001C0500F09FFD4E494E4A0144914202D206
:1022100045F0080516E04C494C4A0144914202D26F
:1022200045F00C050EE04A494A4A0144914209D35F
:10223000494908444949884202D245F0040501E071
:1022400045F01005206805614FF40042002120464A
:1022500000F030FA0125A8BBFF20FFF72DFE6068D3
:1022600088B300F035FC804641F288376A46012188
:10227000204600F0D5F800F02BFCA0EB0800B84297
:1022800017D800984007F1D54FF48052002120461E
:1022900000F010FAB0B900F01BFC80466A4601213C
:1022A000204600F0BDF800F013FCA0EB0800B84297
:1022B0000AD901212046FEF7F9FE04F8445F032005
:1022C000667064E724E018E000988006E6D56A4668
:1022D0001021204600F0A4F8D0B90098410703D59A
:1022E0004FF40061E16000E0E660800701D5A66080
:1022F00019E04FF48040A06015E0E068A168C008D4
:1023000040EA510082B20021204600F0D3F930B1FA
:1023100001212046FEF7CAFE84F8445036E740F615
:10232000FF70FFF7C9FD49462046FEF7BFFE84F85F
:10233000445000202BE7000044380240043801409C
:1023400000D3CEFEC0E1E40040F1E9FD40787D011C
:1023500000796CFC005A6202001F0AFA80F0FA024F
:10236000F0B52B4887B00024016841F001010160FD
:10237000016801F001010591016841F0040101606B
:10238000016801F004010591016841F0400101601C
:10239000016801F040010591016841F000710160A0
:1023A000016801F000710591016841F080610160F0
:1023B000016801F080610591016841F000610160F0
:1023C0000068022500F0006005903220CDE900058C
:1023D00002AA03260B2782E8D00069460D4800F0C8
:1023E00089FA8620CDE9000502AA694682E8D00074
:1023F000094800F07FFA4FF4D040CDE9000502AA69
:10240000694682E8D000054800F074FA07B0F0BDD4
:10241000303802400008024000000240001802402C
:102420002DE9F047044690F84400914682281DD0DB
:10243000822084F84400226810694FF6FF7500F08E
:102440001C03208A05EAC02018434FF4F86303EA0E
:102450008111014321F0020040F00105156100F0F7
:1024600037FB064601274FF4803810E00220BDE814
:10247000F08700BF00F02CFB801B404505D304F81B
:10248000447F002060700320F1E720680569E807B9
:10249000F0D12068406981B2C9F8001084F8447016
:1024A0000020E4E7F8B5044690F84500012839D04B
:1024B000012584F84550022084F844002068002655
:1024C000016841F00801016020680068009028461A
:1024D000FEF7C4FD2168009808602068016841F09B
:1024E000040101602068006800900120FEF7B6FD3D
:1024F0002168009808602046FEF7C0FD206800F5BE
:102500008050816941F400518161206800F580505C
:10251000816941F00201816184F8445084F845608A
:102520000020F8BD0220F8BDF8B5044690F845003B
:10253000012839D0012584F84550022084F8440050
:10254000206800F58050816921F400518161206884
:1025500000F58050816921F0020181612068002628
:10256000016821F0040101602068006800900120EA
:10257000FEF774FD2168009808602046FEF77EFD96
:102580002068016821F0080101602068006800905F
:102590000120FEF763FD21680098086084F844502C
:1025A00084F845600020F8BD0220F8BDF0B590F831
:1025B00045200023012A11D0012780F8457002220E
:1025C00080F84420002459B1C66A3268002A0ADA29
:1025D000122100F8441F44700120F0BD0220F0BD1C
:1025E00000F8447FF7E740F2F455A9420BD9B1FB5C
:1025F000F5FCB1FBF5F205FB1C1CBCF1000F00D093
:10260000521C012A43D1326842F040523260C26A01
:10261000C1F30C015160C16A0A6842F000420A60CD
:10262000C16AC968C16234E0D6F800C02CF0405CD1
:10263000C6F800C033B9C66AD6F800C04CF0805C5A
:10264000C6F800C0C66A7560561EB34214D1C66A89
:10265000D6F800C04CF0005CC6F800C0C2F101061C
:10266000C6EBC61606EB4606D0F82CC001EB860674
:10267000C6F30C06CCF80460C66AD6F800C04CF06D
:10268000004CC6F800C0C66A5B1CF668C66293427E
:10269000CAD3016801F580514A69520705D5042261
:1026A0004A61016801F580514C6000F8447F447034
:1026B0000020F0BD2DE9F041044690F84400422886
:1026C0001ED0422084F84400236818694FF6FF7634
:1026D00000F01C05208A06EAC02028434FF4F86564
:1026E00005EA8111014390B241F003055861206869
:1026F000056100F0EDF9064601274FF4803810E03F
:102700000220BDE8F08100BF00F0E2F9801B4045E7
:1027100005D304F8447F002060700320F1E72068AF
:102720000569E807F0D184F84470EAE72DE9F0473D
:10273000044622480F46017E01290AD00121804625
:1027400001764CF250394846FEF72CFE020003D0C9
:102750002FE00220BDE8F0874FF0FF30386020689E
:10276000174D012801D0A6681CE0207C6168FEF7A7
:1027700087FD4846FEF716FE0246286820F0040052
:10278000286014E0217C3046FEF728FD4846FEF71D
:1027900009FE0200286820F0FA00286001D03E609F
:1027A00005E0761CD4E902100844B042EAD8FEF7EE
:1027B0003DFD002188F818101046CBE75C0A002088
:1027C000103C02400348016841F0004101600020D4
:1027D00070470000103C02402DE9F0471B4E0546B3
:1027E0001446307E1F468946012808D001203076E5
:1027F0004CF250384046FEF7D5FD18B114E00220E7
:10280000BDE8F0879DB1012D16D0022D19D02246CA
:102810003B464846FEF758FD4046FEF7C3FD0C49CF
:102820000A6822F001020A6000213176E8E7E1B28D
:102830004846FEF739FDEFE7A1B24846FEF75AFDDC
:10284000EAE721464846FEF767FDE5E75C0A002017
:10285000103C0240074900200A68002A09DA054AAC
:10286000054B0C3A1360054B13600968002900DA28
:1028700001207047103C024023016745AB89EFCD32
:102880002DE9FF474FF40068404520D1114D002449
:102890006E4602AF05F10809295D002207200AF003
:1028A00025FF3055295D002208200AF01FFF38550A
:1028B000315D29B108B1012100E0002109F80410BF
:1028C000641CE4B2082CE7D30349C1F80080BDE8DA
:1028D000FF87000020000020143C0140044910B58F
:1028E0000A68024202D00860FFF7CAFF10BD00006C
:1028F000143C01402DE9F84F00224FF00108032558
:102900004FF00F0E0B6808FA02F42340A3426ED179
:102910004E68012E05D0022E03D0112E01D0122EAA
:1029200012D186684FEA420C05FA0CF7BE43CF6815
:1029300007FA0CF7374387604668A6430C79C4F35F
:102940000014944034434460C668570005FA07FCFD
:102950008C6826EA0C06BC403443C4604C68022CE8
:1029600001D0122C13D1D40800EB8404A346D4F870
:10297000209054074FEAD46A0EFA0AF629EA0609AB
:102980000E6906FA0AF646EA0906CBF820600668E0
:102990000C7926EA0C0604F00304BC4034430460BE
:1029A0004C68E40065D5364C266846F480462660BF
:1029B000246822F0030604F480440094314C34442B
:1029C000A446D4F808489607370F0EFA07F6B44322
:1029D0002D4EB04201D1002624E02C4EB04201D150
:1029E00001261FE02A4EB04202D102261AE040E042
:1029F000284EB04201D1032614E0274EB04201D147
:102A000004260FE0254EB04201D105260AE0244EEF
:102A1000B04201D1062605E0224EB04201D1072680
:102A200000E00826BE402643CCF808681E4E3468F5
:102A30004F689C43FF0300D51C4334601A4C241D8F
:102A400026684F689E43BF0300D51E432660164E7E
:102A5000083634684F689C43FF0200D51C4334603D
:102A6000114E0C3634684F689C43BF0200D51C439E
:102A70003460521C102AFFF445AFBDE8F88F000007
:102A8000443802400030014000000240000402408F
:102A900000080240000C02400010024000140240F6
:102AA00000180240001C0240003C01400069084040
:102AB00000D001207047426931EA020200D10904C6
:102AC000816170470AB1816170470904FBE700002A
:102AD00001488068704700000C00002002488168AF
:102AE00002781144816070470C0000200B4810B53B
:102AF000016841F400710160016841F48061016086
:102B0000016841F480710160032000F06FF800203B
:102B100000F006F800F024F8002010BD003C024050
:102B200070B50D4D04464FF47A712878B1FBF0F082
:102B30000A490968B1FBF0F000F052FD48B9102CC9
:102B400007D200222146501E00F030F800206C60B1
:102B500070BD012070BD00000C0000201800002096
:102B60000A4808B5016841F480410160006800F43A
:102B7000804000900548001F016841F080510160CD
:102B8000006800F08050009008BD0000443802400A
:102B9000002809DB00F01F0201219140400980005C
:102BA00000F1E020C0F8001170470000F0B40E4BB7
:102BB0001B680C46C3F30223C3F10705042D00D99B
:102BC0000425191D072901D2002300E0DB1E012680
:102BD00006FA05F1491E214099409E40761E164096
:102BE0003143F0BC02F0CCBD0CED00E0064900F032
:102BF000070208684FF6FF03184040EA0220034A24
:102C000010430860704700000CED00E00000FA057A
:102C10002DE9F0470E46050065D0DFF81481D8F89D
:102C20000000F7B200F00F00B04207D288F8007041
:102C3000D8F8000000F00F00B04254D128683D4C95
:102C4000810712D5400703D5206840F4E05020608A
:102C50002878000703D5206840F460402060206891
:102C6000A96820F0F000084320602878C0072DD024
:102C7000304968680839012812D0022813D0032887
:102C800011D00968890700292DDA216821F0030194
:102C900001432160FFF71CFF814641F2883A0EE0B4
:102CA00009688903EFE709688901ECE7FFF710FF7E
:102CB000A0EB0901514502D90320BDE8F087206847
:102CC000696800F00C00B0EB810FEFD1D8F800106C
:102CD000404601F00F01B14207D90770006800F0CB
:102CE0000F00B04201D00120E7E72878400705D562
:102CF0002068E96820F4E050084320602878000745
:102D000006D52068296920F4604040EAC1002060AF
:102D100000F03EF82168084AC1F30311515CC84035
:102D20000649086006480068FFF7FAFE0020C4E77D
:102D3000003C024008380240D2D7000818000020AA
:102D400010000020014800687047000018000020B3
:102D50000448054900680968044AC1F38221515CAE
:102D6000C84070471800002008380240E2D7000829
:102D70000448054900680968044AC1F34231515CBE
:102D8000C84070471800002008380240E2D7000809
:102D9000154810B5006810F00C02144813D01449FF
:102DA000042A0FD0082A0ED10F4C241F2268236852
:102DB00002F03F025B0207D52068C0F38810A0FB39
:102DC000010106E0084610BD2168C1F38811A1FB8E
:102DD00000010023FDF7F4F92168C1F30141491C0A
:102DE0004900B0FBF1F010BD083802400024F400A7
:102DF00040787D012DE9F84F040076D02078DFF887
:102E000038A3CE4DC00749D0DAF800105046C1F3C0
:102E10008101012908D00068C0F3810002280AD18D
:102E2000281D0068400206D52868800336D56068F2
:102E30000028E2D032E06068B0F5803F10D0B0F5F5
:102E4000A02F286810D020F480302860286820F453
:102E5000802028606068A0B1FFF73AFE06460CE0CB
:102E6000286840F48030F4E740F480202860F7E7D9
:102E7000FFF72EFE801B642873D828688003F7D5DF
:102E80000CE0FFF725FE064605E000BFFFF720FE39
:102E9000801B6428F0D828688003F7D42078DFF8F6
:102EA000A08280074FF000093ED5DAF800105046A6
:102EB00011F00C0F09D00068C0F3810002280BD17B
:102EC0009D48001F0068400206D42868800715D579
:102ED000E068012809D111E0E068B8B10120C8F824
:102EE0000000FFF7F5FD064605E020E1FFF7F0FDE5
:102EF000801B0228C0D828688007F7D52868216978
:102F000020F0F80040EAC10028600DE0C8F8009009
:102F1000FFF7DEFD064604E0FFF7DAFD801B02281E
:102F20001FD828688007F7D42078000722D5824E62
:102F3000844861696C3671B101210160FFF7C8FDF9
:102F4000074604E0FFF7C4FDC01B022809D830681B
:102F50008007F7D50EE0C0F80090FFF7B9FD0746EF
:102F600005E082E0FFF7B4FDC01B02287DD8306881
:102F70008007F7D42078400768D5DFF8BCB1002778
:102F80000BF1380BDBF80000C0000BD4DBF80010AD
:102F900041F08051CBF80010DBF80000012700F071
:102FA00080500090684E3068C00510D4306840F4FE
:102FB00080703060FFF78CFD009005E0FFF788FD22
:102FC0000099401A022850D83068C005F6D55A4EEC
:102FD000A068683601280FD00528306810D020F08E
:102FE00001003060306820F004003060A068B8B1A3
:102FF000FFF76EFD00900FE0306840F00100F4E74D
:1030000040F004003060F7E7FFF762FD0099411AD5
:1030100041F28830814266D830688007F4D50EE0EE
:10302000FFF756FD009007E0FFF752FD0099411AA7
:1030300041F28830814256D830688007F4D42FB1ED
:10304000DBF8001021F08051CBF80010A069D0B35C
:10305000DAF800205146C2F38102022A4AD002283F
:10306000484607D0C8F8600000E03CE0FFF730FDBC
:1030700004463BE04746C8F86000FFF729FD0646D6
:1030800005E000BFFFF724FD801B02282BD828682D
:103090008001F7D4D4E907010843A16A2B4A490803
:1030A00002EB0141626A41EA8211084394F82C1054
:1030B00040EA01612048001F016001203866FFF7E7
:1030C00007FD044605E034E0FFF702FD001B02287F
:1030D00009D828688001F7D52BE000BFFFF7F8FC7E
:1030E000001B022802D90320BDE8F88F2868800160
:1030F000F4D41EE00128F7D00868E26900F48001EA
:10310000914214D1226A00F03F0191420FD147F65B
:10311000C071626A0140914209D1A26A00F4403153
:10312000914204D1E16A00F07060884201D0012030
:10313000DAE70020D8E700000838024000380240F3
:1031400000004742800E4742007000400000FFFF31
:103150002DE9F84F044640680025984616460F466C
:103160004FF0040BB0F5827F01D1A06888B194F8CC
:103170005000012818D0012084F85000FFF7A8FC67
:10318000814694F851004FF0000A01280ED0022524
:103190007DE084F851B013460A462046CDF8008001
:1031A00000F02CF9BDE8F88F0220FBE7002F6DD06E
:1031B000002E6BD084F851B0C4F854A0A763A68742
:1031C000E687C4F830A0A4F834A0A4F836A0C4F868
:1031D00040A0C4F844A0A068B0F5004F04D1206816
:1031E000016821F48041016020680168490603D428
:1031F000016841F040010160E068D8B139E0206821
:103200008168C90709D0007BA16B0870A06B401CC6
:10321000A063E08F401EE0870CE0FFF759FCA0EBB5
:103220000901414503D3B8F1FF3F03D036E0B8F1BF
:10323000000F33D0E08F0028E1D11DE020688168C5
:10324000C90709D0C068A16B0880A06B801CA0636F
:10325000E08F401EE0870CE0FFF73AFCA0EB09018D
:10326000414503D3B8F1FF3F03D017E0B8F1000F99
:1032700014D0E08F0028E1D14A464146204601F0B3
:10328000D1FD08B120206065606D00B101250120ED
:1032900084F8510084F850A0284683E70325F6E718
:1032A0002DE9F84F044690F8500000271D461646B9
:1032B000894601280DD04FF0010B84F850B0FFF77C
:1032C00007FC804694F85100BA46012804D0022732
:1032D0008EE00220BDE8F88FB9F1000F7DD0002EFE
:1032E0007BD0032084F85100C4F854A0C4F8309077
:1032F000A686E686C4F838A0A4F83CA0A4F83EA0B0
:10330000C4F844A0C4F840A0A068B0F5004F04D1B0
:103310002068016841F48041016020680168490625
:1033200003D4016841F040010160E068B0F5006F2E
:10333000606803D030B3012E24D040E008B1012EE4
:103340001CD1206B21680088C86006E02068816875
:10335000890709D5216B0988C160206B801C206317
:10336000E08E401EE08609E0FFF7B2FBA0EB08000C
:10337000A84202D3681C01D031E07DB3E08E002862
:10338000E4D11FE0206B21680078087306E0206814
:103390008168890709D5216B09780173206B401C6E
:1033A0002063E08E401EE08609E0FFF791FBA0EB72
:1033B0000800A84202D3681C01D010E075B1E08E6D
:1033C0000028E4D142462946204601F059FD08B1C3
:1033D00020206065A06820B107E008E0FFE7032730
:1033E00006E02068C16880680090606D00B1012728
:1033F00084F851B084F850A038466BE72DE9F84FB7
:10340000044690F8500000270A9E1D4692468B46BF
:103410004FF0010901280ED0012084F85000FFF779
:1034200057FB804694F85100616801280CD0B1F533
:10343000827F07D102E00220BDE8F88FA16809B9B8
:10344000042801D00227C2E0BBF1000F27D0BAF157
:10345000000F24D01DB394F85100042802D0052099
:1034600084F8510000206065C4F838A0E587A5877E
:10347000C4F830B0E586A5862064606420680168E1
:10348000490603D4016841F040010160E068B0F5ED
:10349000006F606805D0E8B3012D46D07FE00127BA
:1034A00095E008B1012D39D1206B21680088C860F2
:1034B000206B801C2063E08E401EE0862EE020689A
:1034C000816889070FD5E18E69B1B9F1010F0AD181
:1034D000216B0988C160206B801C2063E08E401E38
:1034E000E0864FF0000920688168C9070CD0E18FA1
:1034F00051B1C068A16B0880A06B801CA063E08FF5
:10350000401EE0874FF00109FFF7E2FAA0EB080048
:10351000B04200E009E001D3701C50D1E08E0028D9
:10352000CDD1E08F0028CAD13FE0206B2168007820
:103530000873206B401C2063E08E401EE0862EE066
:103540002068816889070FD5E18E69B1B9F1010F53
:103550000AD1216B09780173206B401C2063E08E37
:10356000401EE0864FF0000920688168C9070CD032
:10357000E18F51B1C068A16B0870A06B401CA063C3
:10358000E08F401EE0874FF00109FFF7A1FAA0EBA2
:103590000800B04202D3701C01D010E07EB1E08E72
:1035A0000028CDD1E08F0028CAD1424631462046BE
:1035B00001F066FC28B101272020606507E00327A1
:1035C00005E0A06818B92068C168806800900120F3
:1035D00084F85100002084F8500038462CE77047EA
:1035E00010B5401EB0F1807F01D3012010BD4FF017
:1035F000E02460610F21601702F0C2F80020A06192
:1036000007202061002010BD10B5FFF7E8FF10BDB6
:103610007047704770B590F83C20012A32D00124E1
:1036200080F83C40022280F83D2003685A689D687B
:1036300022F070060A6832435A60134B02689A42BD
:1036400014D0B2F1804F11D0104B9A420ED0104BD3
:103650009A420BD00F4B9A4208D00F4B9A4205D09A
:103660000E4B9A4202D00E4B9A4204D1496825F083
:1036700080031943916080F83D40002180F83C10A0
:10368000084670BD022070BD0000014000040040EB
:1036900000080040000C00400004014000400140D0
:1036A0000018004010B5040003D094F83D0010B19C
:1036B00007E0012010BD002084F83C00204600F007
:1036C0000DF8022084F83D00211D206801F0CCFC9B
:1036D000012084F83D00002010BD000008B50068FE
:1036E0000B49884212D10B48016841F0100101607A
:1036F0000068002200F01000009001213620FFF742
:1037000055FABDE808403620FFF742BA08BD000070
:1037100000100040403802400168CA6842F00102CF
:10372000CA600068816801F00701062903D00168BA
:1037300041F001010160002070472DE9F0410D4684
:10374000040003D094F83D0018B108E00120BDE862
:10375000F081002084F83C00204600F03BF8022075
:1037600084F83D002068816844F20702914381603B
:10377000211D206801F078FC226890689169166A22
:103780002B68AF69034340F20330814341EA0721CC
:10379000A868EF6908434FF6FC418843E96840EAAE
:1037A0000720014328692F6A000140EA07300843D7
:1037B00069686D6926F0AA0646EA051529439360F3
:1037C0002268906120680162012084F83D00002099
:1037D000BDE7000070B50068174986B0884228D15F
:1037E0001648016841F001010160006800F0010025
:1037F000059012481438016841F001010160006829
:10380000022500F0010005904FF480700090012423
:10381000CDE901540A4E694630460494FFF76AF830
:1038200060020090CDE90154694630460494FFF7E8
:1038300061F806B070BD000000000140443802404D
:103840000000024010B50446006891B1042904D07C
:103850000122002101F06CFC206801225FF00401CC
:1038600001F066FC2068016841F001010160002060
:1038700010BD01220021F3E7704770B504460068CF
:1038800001694FF00005C943890715D4C168C943D0
:10389000890711D4E91E0161012020772068806921
:1038A0008007204602D0FFF7E7FF04E000F098F819
:1038B000204600F096F8257720680169C94349073A
:1038C00017D4C168C943490713D46FF004010161DB
:1038D000022020772068806910F4407F204602D0C3
:1038E000FFF7CAFF04E000F07BF8204600F079F80B
:1038F000257720680169C943090716D4C168C943FF
:10390000090712D46FF008010161042020772068B4
:10391000C0698007204602D0FFF7AEFF04E000F048
:103920005FF8204600F05DF8257720680169C943FB
:10393000C90617D4C168C943C90613D46FF0100172
:103940000161082020772068C06910F4407F20467C
:1039500002D0FFF791FF04E000F042F8204600F0AB
:1039600040F8257720680169C943C90708D1C168B3
:10397000C943C90704D1891E0161204600F032F80D
:1039800020680169C943090609D4C168C943090609
:1039900005D46FF0800101612046FFF739FE2068F1
:1039A0000169C943490609D4C168C943490605D418
:1039B0006FF040010161204600F036F8206801698F
:1039C000C94389060BD4C168C943890607D46FF07F
:1039D000200101612046BDE87040FFF71ABE70BDAE
:1039E0007047704702680B4882420BD10A48006852
:1039F0000068C3060948B0F9001001D5491E00E06F
:103A0000491C01800648824203D106480188491CAE
:103A100001807047000001407C0A00201C0000204B
:103A2000001000400A0000207047704770B502681F
:103A300004461068D168536910F00F0F52D003F09C
:103A4000010501F490762E435FD0C20705D0CA0568
:103A500003D5E26B42F00102E263420705D5DA07C3
:103A600003D0E26B42F00202E263820705D5DA0777
:103A700003D0E26B42F00402E263020707D501F0D3
:103A800020022A4303D0E26B42F00802E263E26BB9
:103A9000002A33D0800604D5880602D5204601F0DE
:103AA0001DFC20684069E16BC0F38010090700D459
:103AB00028B3204601F004FC2068416949061AD564
:103AC000416921F040014161606BA0B11B49016572
:103AD000606BFEF76CF8002810D0606B016DBDE8DC
:103AE00070400847830610D58B060ED52046BDE8EA
:103AF000704001F0F3BB2046FFF797FF70BD2046F2
:103B0000FFF793FF0020E06370BD030606D50B06A8
:103B100004D52046BDE8704001F0C0BC4006F3D596
:103B20004806F1D5D168204621F04001D16020211E
:103B300084F8391000F031FA70BD0000B15200086D
:103B400070B5040004D094F83900002510B106E0E7
:103B5000012070BD84F83850204600F023F824205E
:103B600084F839002068C16821F40051C160204602
:103B700001F000FC2068016921F490410161206896
:103B8000416921F02A0141612068C16841F4005176
:103B9000C160E563202084F8390084F83A000020F1
:103BA00070BD00002DE9F047054600683249334CEE
:103BB0000226012786B04FF007094FF0030888421C
:103BC00016D1206840F0020020602068DFF8B0A025
:103BD00000F002000590C0208DE8C1036946504600
:103BE000FEF788FE8020009069465046FEF782FE70
:103BF00024492868DFF890A0884215D1206840F059
:103C0000080020602068694600F0080005906020E8
:103C10008DE8C103D1465046FEF76CFE402000906F
:103C200069464846FEF766FE1849286888421FD153
:103C3000206840F004002060206800F00400059037
:103C4000206840F0080020602068694600F0080005
:103C5000059041F204008DE8C101082004900C4851
:103C6000FEF748FE0420009069465046FEF742FEEB
:103C700006B0BDE8F0870000001001403038024077
:103C80000004024000440040000C0240005000408C
:103C90000008024090F83A30202B22D1F9B1F2B15D
:103CA00090F83830012B1CD081628285C2850021BA
:103CB000C163222280F83A2080F838100168CA686F
:103CC00042F48072CA6001684A6942F001024A61A6
:103CD0000068C16841F02001C160002070470120E8
:103CE00070470220704700002DE9F05F07465F4CE7
:103CF00000685D49661D4FF04A094FF0010A4FF018
:103D0000100B4FF0000888426BD1594D601D297887
:103D100000784A2901D13B2802D04A2849D04AE0FC
:103D2000687801283ED1A878012812D151A15848BD
:103D300001F0FAFC5648FCF7ABFA82B24FF47A7302
:103D40005349544800F0CCF801F050FA6878012843
:103D500028D1A878022812D14FA14D4801F0E4FCE7
:103D60004B48FCF795FA82B24FF47A7348494948B8
:103D700000F0B6F801F01CFA6878012812D1A87892
:103D800003280FD14BA1424801F0CEFC4048FCF77C
:103D90007FFA82B24FF47A733D493E4800F0A0F8B2
:103DA00001F034FA85F8008084F8048084F80180FA
:103DB00011E0227912B14A2907D00CE085F8009071
:103DC00084F801A084F804B005E0217919B1617884
:103DD0006854491C617025490122491D2D48FFF78F
:103DE00059FF3B49386888423BD13A4D29784A29E6
:103DF00002D170783B2803D070784A2818D019E097
:103E00003448FCF745FA82B24FF47A7331493248AC
:103E100000F066F800F0C2F8404600E0A854A1782F
:103E20004A1ED2B2A270F9D228702071A07011E09F
:103E3000227912B14A2907D00CE085F8009084F865
:103E400002A084F804B005E0217919B1A178685482
:103E5000491CA1700122711CBDE8F05F1F48FFF7EB
:103E600019BFBDE8F09F00000010014000000020D5
:103E7000A0030020D3EB4E4F78B7D6CEF6D2C7BD05
:103E8000F8D0D0CAFDBEDDC1B4BDD30A0000000029
:103E9000A002002048090020D3EBCEE5C6F8B7D633
:103EA000CEF6D2C7BDF8D0D0CAFDBEDDC1B4BDD3F9
:103EB0000A000000D3EBB7A2B6AFBBFAB2E2CBD98F
:103EC000BDF8D0D0CAFDBEDDC1B4BDD30A0000002C
:103ED00000440040A0040020C809002088090020F8
:103EE0002DE9F843044690F839001F4616460D4662
:103EF000202850D1B5B1AEB194F8380001284AD08D
:103F0000012084F838004FF00008C4F83C802120DC
:103F100084F83900FEF7DCFDA6848146E68484F847
:103F2000388026E00120BDE8F883E08C401EE08464
:103F3000A0684B46B0F5805F4FF000024FF0800163
:103F40002046009703D001F0DAFAE8B90DE001F05D
:103F5000D6FAC8B928882168C0F3080048602069EB
:103F600008B16D1C05E0AD1C03E0216815F8010BDC
:103F70004860E08C0028D8D14B46002240212046E2
:103F8000009701F0BCFA08B10320CCE7202084F8A8
:103F900039000020C7E70220C5E770472DE9F04748
:103FA0007B4C00267B4D6078662803D1A078A870F2
:103FB0002E706E70A8784FF47A7701281BD0DFF846
:103FC000D8914FF00108022846D003287BD073A176
:103FD000754801F0A9FB7448FCF75AF982B23B46D8
:103FE00071497248FFF77CFF6078012821D1BDE854
:103FF000F04705F0D7BD6EA16B4801F095FB6A480C
:10400000FCF746F982B23B4667496848FFF768FF0C
:1040100006F0F2F96078062807D05A280BD03A2823
:1040200007D1BDE8F04706F029BEA078E870E07837
:104030002871BDE8F08762A15B4801F075FB5A4822
:10404000FCF726F982B23B4657495848FFF748FF2C
:10405000BDE8F04700F0B8BB5DA1534801F064FB38
:104060005148FCF715F982B23B464F494F48FFF7DC
:1040700037FF6078082810D00928DAD15AA14A48B9
:1040800001F052FB4848FCF703F982B23B4646492F
:104090004648FFF725FF2E70CBE758A1424801F0B4
:1040A00043FB4148FCF7F4F882B23B463E493F48A7
:1040B000FFF716FFA17889F8001085F80080BDE8A9
:1040C000F04700F003B952A1374801F02DFB364804
:1040D000FCF7DEF882B23B4633493448FFF700FF75
:1040E0006078082814D05A2828D007283DD00928FD
:1040F0009FD14DA12C4801F017FB2B48FCF7C8F8C5
:1041000082B23B4628492948FFF7EAFE6E7090E7E5
:104110004AA1254801F008FB2348FCF7B9F882B210
:104120003B4621492148FFF7DBFEA17889F80010C2
:1041300085F80180BDE8F04701F058BAA078444CFA
:104140003038C2B2227043A1454801F0EDFA44482C
:10415000FCF79EF882B23B4641494248FFF7C0FE59
:1041600009F0B2FA227840A103E04448A27844A1C1
:1041700002700D4801F0D8FA0B48FCF789F83B466D
:10418000BDE8F04782B208490848FFF7A9BE000021
:10419000A00400204A01002040000020C7D0BBBB83
:1041A000B5BDD6F7D2B30A00A0020020480900200E
:1041B000C7D0BBBBB5BDB5F7CAD4D2B3C3E60A00FE
:1041C000D0DEB8C4504944B2CECAFD0A0000000097
:1041D000C7D0BBBBB5BDC6FBD3CDB3B5BCECB2E25B
:1041E000D2B3C3E60A000000B0B4CFC2C6FBD3CD41
:1041F000B3B5BDE1CAF8BCECB2E20A00B0B4CFC2BC
:10420000C6FBD3CDB3B5BFAACABCBCECB2E20A00B0
:10421000C7D0BBBBB5BDB2F1D3CDB3B5BCECB2E238
:10422000D2B3C3E60A000000B0B4CFC2B2F1D3CD1E
:10423000B3B5BDE1CAF8BCECB2E20A00B0B4CFC27B
:10424000B2F1D3CDB3B5BFAACABCBCECB2E20A008E
:10425000400100206E332E76616C3D256400000025
:10426000A006002088090020B8C4B1E4B1BBB2E2C6
:10427000B8D7CAFDCEAAA3BA25640A00410100201E
:10428000B8C4B1E4B5E3BBF0B7BDCABDCEAAA3BA0A
:1042900025640A0010B50A4C207832280ED309484C
:1042A0000178012903D04078012803D004E000F010
:1042B0000DF801E001F09AF90020207010BD000017
:1042C000490000204A010020FEE700002DE9F041EE
:1042D00058A15B4801F028FA5948FBF7D9FF82B290
:1042E0004FF47A773B4656495648FFF7F9FD544D4F
:1042F00022243B462C70012229465248FFF7F0FD4C
:10430000514E52A1284696ED000B53EC102B01F0B4
:104310000BFA2846FBF7BCFF82B23B4629464948C8
:10432000FFF7DEFD2C703B46012229464548FFF78A
:10433000D7FD09F0C9F947A1284601F0F5F928464B
:10434000FBF7A6FF82B23B4629463E48FFF7C8FD71
:104350002C703B46012229463A48FFF7C1FD96EDF5
:10436000020B3AA153EC102B284601F0DDF9284648
:10437000FBF78EFF82B23B4629463248FFF7B0FD7D
:104380002C703B46012229462E48FFF7A9FD09F073
:104390009BF9328A32A1284601F0C6F92846FBF77C
:1043A00077FF82B23B4629462648FFF799FD09F080
:1043B0008BF9728A2DA1284601F0B6F92846FBF741
:1043C00067FF82B23B4629461E48FFF789FD09F088
:1043D0007BF929A1284601F0A7F92846FBF758FFE9
:1043E00082B23B4629461748FFF77AFD2C703B46C0
:1043F000012229461348FFF773FD96ED060B13A122
:1044000053EC102B284601F08FF92846FBF740FFAC
:1044100082B23B4629460B48FFF762FD2C703B46B3
:10442000012229460748FFF75BFDBDE8F04109F08E
:104430004BB900007431312E7478743D00000000D7
:10444000A00600208809002030880020252E326632
:10445000000000007431322E7478743D00000000BA
:104460006E322E76616C3D25640000006E332E7630
:10447000616C3D25640000007431332E7478743D06
:10448000000000002DE9FF4123482249012401607A
:104490004FF480314160002104618160047680F82E
:1044A00020101E4AC0E90A210625C561C16080F8B6
:1044B00030404461FDF7A1F90426CDE900640224EF
:1044C000694615480294FDF7EFF80527CDE9007419
:1044D00069461148FDF7E8F80320CDE90050694628
:1044E0000D48FDF7E1F80720CDE9000669460A48C6
:1044F000FDF7DAF80820CDE9000769460648FDF720
:10450000D3F80920CDE9000569460348FDF7CCF84A
:10451000BDE8FF8100220140A00800200100000F3B
:104520001CB50B49094808600846FDF7B6FA00209B
:10453000009002200190002269460548FDF78CFAA0
:10454000102269460248FDF787FA1CBD007400403E
:10455000480A0020094808B5016841F4800101605B
:104560000068002200F48000009011463820FEF719
:104570001DFBBDE808403820FEF70ABB303802407A
:104580002DE9F04387B014216846FBF776FE3348E7
:104590000025016841F004010160016801F0040197
:1045A0000591016841F040010160016801F040019E
:1045B0000591016841F001010160016801F001010C
:1045C0000591016841F0100101600068DFF89080FA
:1045D00000F010004FF4707405900122214640460F
:1045E000FEF770FADFF87C904FF4C077012239466D
:1045F0004846FEF767FA009401AA0124032682E8E0
:10460000700069464046FEF775F901AA009782E8F6
:10461000700069464846FEF76DF901AA0094DFF87C
:10462000488082E8700069464046FEF763F9270239
:1046300001A8009780E870000C4C69462046FEF700
:1046400059F9012211464046FEF73CFA012239464B
:104650002046FEF737FA07B0BDE8F0833038024055
:104660000008024000180240000002400010024012
:10467000F8B5002201212520FEF798FA2520FEF743
:1046800087FA002201212620FEF790FA2620FEF765
:104690007FFA002201213520FEF788FA3520FEF747
:1046A00077FA24480024016841F010010160006895
:1046B000214900F01000009020484FF4E1370C260B
:1046C0000160C0E90174C460C0E904468461C4614A
:1046D000FFF736FA174D2D1F286840F40030286088
:1046E0002868174900F400300090144840300160F9
:1046F0004FF41651C0E90114C460C0E90446846156
:10470000C461FFF71DFA286840F48010286028680B
:104710000C4900F480100090084880300160C0E926
:104720000174C460C0E904468461C461BDE8F84016
:10473000FFF706BA44380240001001404809002043
:104740000044004000500040FEE7704700B587B0CD
:1047500005F06CF805F04AF9002003900490114A26
:10476000114905908DE8070005AB04AA03A90F487D
:1047700005F06EF90D4805F0C7F90C4890F83300C4
:10478000400706D50AA000F0BFFF084805F0FCF975
:1047900002E0064805F0BEF90949044805F0ECF9C5
:1047A00007B000BD958400088185000868020020DC
:1047B000B3C9B9A6C1ACBDD3CDF8BFA80A000000EB
:1047C0008D860008704700002DE9F04703F07AFB62
:1047D000A049A14CA14D4871CA78A14EA14F4FF4F8
:1047E0007A79012A0AD0022A62D0032A6FD1884638
:1047F000097901296CD005296BD0E9E009790129F3
:104800000CD005291ED0022930D003295FD1002801
:1048100040D004F029F887ED000B41E020B104F00E
:1048200023F884ED000B05E003F0D8FFFBF7DDFE75
:10483000C4E9000105F056FF94ED000B8AA153EC8A
:10484000102BF6E020B104F00FF885ED000B05E029
:1048500003F0C4FFFBF7C9FEC5E9000106F012F83A
:1048600095ED000B87A153EC102BE2E020B103F093
:10487000FBFF86ED000B05E003F0B0FFFBF7B5FE94
:10488000C6E9000106F0D0F896ED000B84A153ECC8
:10489000102BCEE003F0A2FFFBF7A7FEC7E9000153
:1048A00005F052FE97ED000B84A153EC102BC0E0F5
:1048B000097901290ED0052920D0022933D00329F6
:1048C00005D178B303F0D0FF87ED020B45E0BEE0E1
:1048D0004BE05EE020B103F0C7FF84ED020B05E082
:1048E00003F07CFFFBF781FEC4E9020105F0B6FE90
:1048F00094ED020B77A153EC102B9AE020B103F05A
:10490000B3FF85ED020B05E003F068FFFBF76DFEDA
:10491000C5E9020105F070FF95ED020B74A153EC9F
:10492000102B86E013E020B103F09EFF86ED020B12
:1049300005E003F053FFFBF758FEC6E9020106F05D
:104940002DF896ED020B71A153EC102B71E003F0E2
:1049500045FFFBF74AFEC7E9020105F0AFFD97ED01
:10496000020B71A153EC102B63E020B103F07CFF2C
:1049700084ED040B05E003F031FFFBF736FEC4E9DC
:10498000040105F027FE94ED040B6DA153EC102BF0
:1049900012E020B103F068FF85ED040B05E003F0A1
:1049A0001DFFFBF722FEC5E9040105F0DFFE95EDD2
:1049B000040B6AA153EC102B6F4800F0B5FE6E4853
:1049C000FBF766FC82B24B466B496C48FFF788FAEE
:1049D00098F80410022909D0032938D198F8050065
:1049E000D0B103F041FF87ED040B1BE098F8050000
:1049F00020B103F039FF86ED040B05E003F0EEFE75
:104A0000FBF7F3FDC6E9040105F082FF96ED040B08
:104A10005BA153EC102B0CE003F0E0FEFBF7E5FD8F
:104A2000C7E9040105F004FD97ED040B5BA153EC0D
:104A3000102B514800F078FE4F48FBF729FC4B46FD
:104A4000BDE8F04782B24C494C48FFF749BABDE88F
:104A5000F08700004A010020983D0020D03D002052
:104A6000083E0020403E0020D0DEB8C4636C6F7367
:104A7000655F54312E4B70CEAAA3BA252E33660A39
:104A800000000000D0DEB8C4636C6F73655F543201
:104A90002E4B70CEAAA3BA252E33660A0000000062
:104AA000D0DEB8C4636C6F73655F54332E4B70CE29
:104AB000AAA3BA252E33660A00000000D0DEB8C4CF
:104AC000636C6F73655F532E4B70CEAAA3BA252E0D
:104AD00033660A00D0DEB8C4636C6F73655F54310F
:104AE0002E4B69CEAAA3BA252E33660A0000000019
:104AF000D0DEB8C4636C6F73655F54322E4B69CEE1
:104B0000AAA3BA252E33660A00000000D0DEB8C47E
:104B1000636C6F73655F54332E4B69CEAAA3BA25BD
:104B20002E33660A00000000D0DEB8C4636C6F73D9
:104B3000655F532E4B69CEAAA3BA252E33660A00B1
:104B4000D0DEB8C4636C6F73655F54312E4B64CE96
:104B5000AAA3BA252E33660A00000000D0DEB8C42E
:104B6000636C6F73655F54322E4B64CEAAA3BA2573
:104B70002E33660A00000000A00200204809002031
:104B8000D0DEB8C4636C6F73655F54332E4B64CE54
:104B9000AAA3BA252E33660A00000000D0DEB8C4EE
:104BA000636C6F73655F532E4B64CEAAA3BA252E38
:104BB00033660A0010B50A4C207800280FD009A0EF
:104BC00000F0A2FD0F48FBF763FB82B24FF47A734B
:104BD0000C490D48FFF784F900202070E07010BDEB
:104BE000000000205253323332BDD3CAD5B5BDCDFB
:104BF000EAD5FBCAFDBEDD2CCAFDBEDDCEAAA3BA36
:104C00000A000000A00500204809002070B54C49AA
:104C10004C4D00200A5C2A54401CC0B21E28F9D317
:104C2000A87817287BD148490020087035F8030F71
:104C300040BAFBF7DAFC454CC4E90001688840BA89
:104C4000FBF7D3FCC4E90201A88840BA2082E888B7
:104C500040BA6082288940BAFBF7C7FCC4E9060164
:104C60003BA1414800F060FD3F48FBF711FB82B2D9
:104C70004FF47A752B463C493C48FFF731F994EDE7
:104C8000000B3BA153EC102B374800F04DFD36488C
:104C9000FBF7FEFA82B22B4633493448FFF720F97E
:104CA00094ED020B35A153EC102B2F4800F03CFD86
:104CB0002D48FBF7EDFA82B22B462B492B48FFF724
:104CC0000FF9228A30A1284800F02EFD2648FBF774
:104CD000DFFA82B22B4624492448FFF701F9628AA1
:104CE0002CA1214800F020FD1F48FBF7D1FA82B229
:104CF0002B461D491D48FFF7F3F894ED060B28A13C
:104D000053EC102B184800F00FFD1748FBF7C0FAC2
:104D100082B22B4614491548FFF7E2F800E00EE096
:104D200022A1114800F000FD0F48FBF7B1FA2B4615
:104D3000BDE8704082B20C490C48FFF7D1B870BD95
:104D400068010020308600204801002030880020C3
:104D5000CEE5C6F8B7D6CEF6D2C7B2E2C1BFCAFD1D
:104D6000BEDDA3BA0A000000A0020020480900200E
:104D7000434F3220A3BA252E34660A00434F20A3A6
:104D8000BA252E34660A0000484320A3BA25640AD7
:104D9000000000004E4F20A3BA25640A0000000066
:104DA0004F3220A3BA252E34660A0000CEE5C6F89D
:104DB000B7D6CEF6D2C7B2E2C1BFCDEAB1CFA3BA61
:104DC0000A00000070B5154D0024012200210A20C0
:104DD00008F08CFC2855641CE4B2132CF5D3297917
:104DE0000F4841290FD100218170698949BA81801A
:104DF000A98949BA01EBC10202EB01114FF6FF721A
:104E000002EA8101C180818802784378890012FB1F
:104E100003F2B1FBF2F1818070BD00002C84002010
:104E200040010020F8B5044640684FF48273984270
:104E300021D1A0684FF48065B0F5004F01D0A842A1
:104E40000AD12068066826F040060660606898422D
:104E500011D1A068A8420ED000920B4600228021FA
:104E6000204600F039F8002804D0606D40F02000A2
:104E700060650320F8BD00920B4600220121EFE798
:104E800038B504461248134B0068B0FBF3F04FF4FA
:104E90007A73584300906068B0F5827F0DD10B465D
:104EA000009200228021204600F016F870B1606D5B
:104EB00040F020006065032038BD009830B1401EEE
:104EC000009020688068C0430006F6D5002038BDF9
:104ED0001800002000366E012DE9F0411D461746EE
:104EE0000E460446DDF8188008E0681C06D0FDF781
:104EF000EFFDA0EB0800A8420BD255B120688068F6
:104F000036EA000030D00020B842EED10020BDE8E3
:104F1000F0812068416821F0E00141606068B0F5EF
:104F2000827F0BD1A068B0F5004F02D0B0F5806F42
:104F300004D12068016821F040010160A06AB0F549
:104F4000005F09D12068016821F4005101602068E8
:104F5000016841F400510160012084F851000020F3
:104F600084F850000320D2E70120CDE7704700000D
:104F700010B5FCF73BF800210548FEF763FC04215F
:104F80000348FEF75FFCBDE8104002A000F0BCBB88
:104F90007C0A0020C6F4B6AFB1E0C2EBC6F70A0047
:104FA00010B5FDF79BFDBDE81040FEF72DBB0000DE
:104FB00030B593B030216846FBF75FF914210CA897
:104FC000FBF75BF919480025016841F08051016049
:104FD000006800F0805011901548016841F480414C
:104FE00001600068022400F48040119001200390C9
:104FF00010200490009406940820CDE90750A820C2
:10500000CDE9090404200B906846FDF7F3FE0CA9D6
:105010000F2081E831004FF4A0500F90E002109073
:1050200005210CA8FDF7F4FD13B030BD4038024057
:10503000007000400548016841F4700101600349B7
:105040004FF00060803908607047000088ED00E094
:105050000148FEF712BC00007C0A00200148FEF760
:105060000CBC0000080A0020F0B50268254C264D53
:10507000264E274F274B4FF0804CA04209D0604569
:1050800007D0A84205D0B04203D0B84201D0984220
:1050900004D122F0700E4A6842EA0E02A0421BD0F0
:1050A000604519D0A84217D0B04215D0B84213D0ED
:1050B000984211D0184DA8420ED0184DA8420BD0DE
:1050C000174DA84208D0174DA84205D0164DA8424A
:1050D00002D0164DA84203D122F44075CA682A4373
:1050E0004D6922F080022A4302608A68C2620A681F
:1050F0008262A04201D0984201D109690163012175
:105100004161F0BD00000140000400400008004083
:10511000000C0040000401400040014000440140F8
:105120000048014000180040001C004000200040E2
:1051300010B501F01F030121046A99408C430462F9
:10514000016A9A401143016210BD000070B5124C13
:10515000E08832281FD36078104D012803D02078D2
:1051600001280AD015E00EA000F0CEFA00F03EFAB9
:1051700000F01EF8FFF74AFD08E009A000F0C4FAAD
:10518000FFF7A4F800F042F8FFF71CFE287800F0C3
:1051900051FA0020E08070BD4A010020400000204C
:1051A000CDF8BFDAB7A2CBCDCAFDBEDD000000004E
:1051B0000B4810B502210170A321417003218170B9
:1051C0005821C170FBF764F882B24FF47A73044936
:1051D0000448FEF785FE04490120087010BD000058
:1051E00030870020C809002008000020064805215B
:1051F00030220170427081700221C1700121017161
:10520000C321417170470000508900200E4810B53D
:105210004E21017054214170302181703121C170C3
:10522000532101710321417101218171C171FA2161
:105230000172FBF72DF882B2BDE810404FF47A738B
:1052400001490248FEF74CBE2C850020C809002009
:1052500030B5144802681168134BC94389066FF0D2
:10526000100411D45168CDB2D97831B1FF2903D2DD
:105270000E484554491CD97030BD14600068C2689E
:1052800042F01002C260F3E71168C943C906F3D4C3
:1052900014600068C16821F01001C160012018701D
:1052A00030BD0000C809002000000020A00500203B
:1052B00010B5806B0021C185C184FEF7B6FB10BD1F
:1052C0000168CA6822F49072CA6001684A6922F0D3
:1052D00001024A61202180F83A10704710B590F819
:1052E0003A10222901D0022010BD8168B1F5805FFB
:1052F00011D00169002901681FD0496801F07F03BE
:10530000816A4A1C82620B70C18D491E0904090C16
:10531000C18518D02BE00269816A002A02685268B0
:1053200005D0D2B20A80816A491C8162ECE7C2F3DF
:1053300008020A80816A891CF7E74A68816A4B1C67
:1053400083620A70E0E70168CA6822F02002CA603E
:105350000168CA6822F48072CA6001684A6922F052
:1053600001024A61202180F83A10FEF7BDFC0020BE
:1053700010BD00002DE9F041044600680169E268B3
:1053800021F44051114301612169A068E269084399
:105390006169114308432168CA6849F20C639A4362
:1053A0000243CA6020684169A26921F44071114337
:1053B0004161E069192764253226B0F5004F354A6E
:1053C000354920684FF0000806D0884201D090424D
:1053D00036D1FDF7CDFC35E0884201D0904202D1B4
:1053E000FDF7C6FC01E0FDF7B3FC61684A18A0FBBD
:1053F000070148EB0803FAF7E3FE0146B0FBF5F0BE
:105400000201B1FBF5F06FF01803584301EB800087
:1054100006EBC000B0FBF5F000F0F80002EB400234
:10542000B1FBF5F0584301EB800006EBC000B0FB88
:10543000F5F000F00700216810448860BDE8F081B5
:10544000FDF786FC61688B0F8A00A0FB0701FAF765
:10545000B7FE0146B0FBF5F06FF01802504301EBC8
:10546000800006EB0010B0FBF5F000F0F002B1FB9D
:10547000F5F002EB0012B1FBF5F06FF018035843A2
:1054800001EB800006EB0010B0FBF5F000F00F0020
:10549000D1E70000001401400010014090F83910DD
:1054A000212901D0022070478168B1F5805F016A2F
:1054B0000BD04A1C0262026809785160C18C491EF7
:1054C0000904090CC1840ED017E009880268C1F3F1
:1054D0000801516001690029016A02D0491C01627A
:1054E000ECE7891CFBE70168CA6822F08002CA6009
:1054F0000068C16841F04001C160002070472DE99B
:10550000F041984617460E460446069D1DE0681C6D
:105510001BD02DB1FDF7DCFAA0EB0800A84214D98E
:105520002068C16821F4D071C1602068416921F010
:1055300001014161202084F8390084F83A000020FC
:1055400084F838000320BDE8F0812068006836EA5E
:10555000000004D00020B842D9D00020F3E7012099
:10556000F9E700000148FEF761BA00004809002091
:105570000148FEF75BBA000088090020FEE7000042
:1055800010B590F83300C1070B4802D0012101701B
:1055900010BD0521017009A1124800F0C5F811489D
:1055A000FAF776FE82B2BDE810404FF47A730D49E7
:1055B0000D48FEF795BC00003000002054686520BF
:1055C0006E6574776F726B206361626C65206973BE
:1055D000206E6F7420636F6E6E6563746564200A5D
:1055E00000000000A00200204809002010B50B4870
:1055F0004FF47A742246048009A10C4800F094F814
:105600000A48FAF745FE82B2234608490848FEF7E1
:1056100067FCBDE8104008F057B8000044010020C6
:105620006E302E76616C3D2564000000A0060020DF
:105630008809002038B5054606F05BFB0F4C60601A
:1056400058B10FA000F060F811480090114B40F2E3
:10565000D2426946606805F05BFE0F4802F0A4FF85
:10566000012D09D10DA1114800F05EF8606805F028
:105670006DFD0FA000F048F838BD00003800002094
:1056800020B4B4BDA8D0C2544350B3C9B9A60A00CF
:10569000C0A803BF99B4000868020020BFCDBBA713
:1056A000B6CBB5E7D1B9CEAAA3BA0A00343D0020E3
:1056B000B7A2CBCDB3C9B9A6A3A10000114810B5BC
:1056C0000021017001214170022181700321C1700C
:1056D0000421017105214171062181710721C171E8
:1056E000002004F0DBFD012004F0D8FD022004F0CE
:1056F000D5FD032004F0D2FDBDE81040042004F0E5
:10570000CDBD0000200000200FB4054B10B503A94B
:10571000044A029801F014F810BC5DF814FB000074
:1057200075870008580100200FB4084B10B504A974
:1057300002AA039801F004F8044602A9002001F02F
:1057400096FB204610BC5DF814FB00006F6E00084D
:1057500003B401984100009850EAC12018BF04200A
:105760004A0D18BF40F0010040F2FF72B2EB515FEA
:1057700008BF40F00200012808BF052002B07047B2
:105780000907090E002804DB00F1E02080F800146E
:10579000704700F00F0000F1E02080F8141D704702
:1057A0002DE9F04D2DED040B2DED0E8B96B0DDE9BE
:1057B0002550279CDDF890A025F0004624F00048F5
:1057C000BAF1000F14BF0121002101EB4502FC4991
:1057D00053184A1093422AD3002814BF01230023F0
:1057E00003EB44030B44F7498B4220D358EA0001F2
:1057F0009FEDF59B76D0DFF8D8B35D4503D1BAF1C4
:10580000000F05D188E0BAF1000F08BF002100D0D9
:10581000012101EB450111F5001F08D8002814BF34
:105820000121002101EB440111F5001F0BD99DED71
:10583000261B9DED240B16B0BDEC0E8B04B0BDE80D
:10584000F04D00F069BE0027002DBCBFE14988453E
:1058500021DAE1498845A8BF02271CDAC3451ADCD2
:10586000DE4901EB2851142908DDC1F1340220FA88
:1058700002F101FA02F282420DD108E058B9C1F1F9
:10588000140228FA02F101FA02F2424503D101F0B2
:105890000101C1F1020756EA0A0124D1002C22DAE3
:1058A000002D18BF022F01D0012F0AD0022000F0D6
:1058B0007FFE16B0BDEC0E8B04B0BDE8F04D00F0DD
:1058C00013BE022000F074FE00F00EFE51EC100B2F
:1058D00081F0004141EC100B16B0BDEC0E8B04B012
:1058E000BDE8F08D18E09FEDBEAB9FEDBF8B0028AB
:1058F00071D1B848804522D105F1804010F5801063
:1059000008BFBAF1000F07D0B3450ADC002CA8BFCE
:105910009DED260BE0DA0DE0B0EE490AF0EE690AE3
:10592000DAE7002C06DA9DED260B51EC100B81F026
:1059300000416FE0AE48784490ED000BCCE7D845CD
:105940004DD1002C48DA2EB186423AD1BAF1000F7F
:1059500042D126E0BAF1000F13D0022000F028FE59
:1059600000F0F6FD8DED020B9DED240B8DED000B8F
:1059700010EE900A039961F31E0003909DED020B57
:10598000AAE78DED02AB9DED240B1AEE901A10EEF6
:10599000900A8DED000B61F31E0003909DED020B4C
:1059A0009AE78DED028B9DED240B18EE901A10EE08
:1059B000900A8DED000B61F31E0003909DED020B2C
:1059C0008AE709DA9DED240B51EC190B53EC102BEF
:1059D000FAF78BFD1EE020E09DED240B7CE786426C
:1059E0001BDAB4F1804F0DD0A4F10050B0F1FF509C
:1059F00013D1002D11DB9DED240B51EC100B05F0A4
:105A000059F807E09DED240B53EC102B51EC100BD3
:105A100000F0C2BC41EC100B5EE79DED240B51EC95
:105A2000100B02F09BFEBAF1000FCDE90E0142D13E
:105A30009FED710B46B3A6F1E040B0F17F600CD052
:105A40005E4538D1002D00DAA7B3022F0CBF01202C
:105A50004FF0FF30FAF7B8FDDCE7002D01DD002C38
:105A60000DDA002D01DD002C1FDB002D16DA002CD5
:105A700014DB012F08BF9FED620B3FF42DAFB0EE9A
:105A80004A0AF0EE6A0A27E7022F18BF002D0CD051
:105A9000012F0AD1002DFFF61FAF06E0002DB8BF81
:105AA000002C08DA012F3FF417AFB0EE480AF0EEF1
:105AB000680A11E71BE0012000EBE57050EA0701DE
:105AC00015D0791EB0EE498AF0EE698A084308BF06
:105AD0009FED4D8B4E480025804570DD4D494E4869
