:020000040800F2
:100000007004002045010008DD2B0008DF2B0008EC
:10001000E32B0008E72B0008EB2B00080000000092
:10002000000000000000000000000000EF2B0008AE
:10003000F12B000800000000F32B0008F52B00084E
:100040005F0100085F0100085F0100085F01000810
:100050005F0100085F0100085F0100085F01000800
:100060005F010008E72E0008012F0008F7320008A2
:100070008D3500085F0100085F0100085F0100087E
:100080005F0100085F0100085F0100085F010008D0
:100090005F0100085F0100085F0100085F010008C0
:1000A0005F0100085F0100085F010008F72F0008EA
:1000B0005F0100085F0100085F0100085F010008A0
:1000C0005F0100085F0100085F0100085F01000890
:1000D0005F010008F72B00085F0100085F010008BE
:1000E0005F0100085F0100085F0100085F01000870
:1000F0005F0100085F0100085F0100085F01000860
:100100005F0100085F0100085F0100085F0100084F
:100110005F0100085F010008413100085F0100082D
:100120005F0100085F0100085F0100085F0100082F
:10013000DFF80CD008F060FA00480047BB2B00083D
:10014000700400200648804706480047FEE7FEE7A7
:10015000FEE7FEE7FEE7FEE7FEE7FEE7FEE7FEE777
:1001600047020008310100080CB500200190009002
:100170006C48006840F480306A49086000BF6948F4
:10018000006800F4003000900198401C0190009835
:1001900018B90198B0F5A06FF1D16248006800F479
:1001A000003010B10120009001E000200090009884
:1001B000012843D15C48006840F010005A490860AB
:1001C0000846006820F0030008600846006840F018
:1001D0000200086053484068524948600846406839
:1001E00048600846406840F48060486008464068BF
:1001F00020F47C1048600846406840F4E8104860ED
:100200000846006840F08070086000BF45480068FC
:1002100000F000700028F9D04248406820F0030048
:10022000404948600846406840F00200486000BF0E
:100230003C48406800F00C000828F9D10CBD10B50E
:10024000FFF792FF10BD10B53648006840F001007E
:1002500034490860084640683449084031494860DC
:1002600008460068324908402E4908600846006880
:1002700020F4802008600846406820F4FE004860B2
:100280004FF41F008860FFF7DAFF4FF00060294944
:10029000086010BD10B5002100200022214B5B68D2
:1002A00003F00C0121B1042906D0082928D107E068
:1002B000214B224C236027E01F4B204C236023E07E
:1002C000184B5B6803F47010164B5B6803F48032C4
:1002D000022303EB904022B9194B4343174C236090
:1002E0000DE0104B5B6803F4003323B1144B434320
:1002F000124C236003E0104B4343104C236003E097
:100300000D4B0E4C236000BF00BF064B5B68C3F370
:1003100003130C4CE15C094B1B68CB40074C23607A
:1003200010BD000000100240002002400000FFF855
:10033000FFFFF6FE08ED00E000127A00000000204A
:1003400000093D000400002031490143314A116099
:10035000704770B5002100230F22C47804B32D4CE0
:10036000246804F4E064C4F5E064210AC1F10403E4
:10037000CA40447804FA03F1847814402143090107
:10038000254C0678A155047804F01F050124AC40E3
:1003900005786D11AD0005F1E025C5F8004109E0D3
:1003A000047804F01F050124AC401C4D067876113A
:1003B00045F8264070BD1A4A0A400243154B1B1FE0
:1003C0001A60704739B1134A121D12680243114B6B
:1003D0001B1D1A6006E00F4A121D126882430D4B66
:1003E0001B1D1A607047042808D14FF0E0210969ED
:1003F00041F004014FF0E022116107E04FF0E021ED
:10040000096921F004014FF0E022116170470000FA
:100410000000FA050CED00E000E400E080E100E0FF
:1004200080FFFF1F10B50446FA48844208D101211D
:10043000401501F013FA0021601501F00FFA17E0E2
:10044000F548844208D10121001501F007FA002186
:10045000201501F003FA0BE0F048844208D1012195
:10046000C80301F0FBF900214FF4004001F0F6F958
:1004700010BD30B50246002000235068E84C2040F3
:100480000D790C6844EA0524204350609068E54CDF
:100490002040D1E902542C434D7944EA45042043DD
:1004A0009060D06A20F470000C7C641EE4B2234398
:1004B00040EA0350D06230BD0021016001714171FA
:1004C0008160C16001210174704721B1826842F0EE
:1004D0000102826003E0826822F0010282607047BC
:1004E00021B1826842F48072826003E0826822F463
:1004F00080728260704710B50023CBB21AB1446895
:100500001C43446002E044689C43446010BD816821
:1005100041F0080181607047014600208A6802F0BE
:1005200008020AB1012000E000207047816841F014
:10053000040181607047014600208A6802F00402CD
:100540000AB1012000E00020704721B1826842F426
:10055000A002826003E0826822F4A00282607047F9
:10056000014600208A6802F480020AB1012000E0FE
:100570000020704710B50A4600210023416821F48D
:100580006041531E41EA4331416010BD21B14268D0
:1005900042F40062426003E0426822F4006242607A
:1005A0007047F0B504460D4600200021092D11DDED
:1005B000E068A5F10A0606EB4607072606FA07F1EA
:1005C0008843A5F10A0606EB460603FA06F108433E
:1005D000E0600CE0206905EB4507072606FA07F105
:1005E000884305EB450603FA06F108432061072A14
:1005F0000FDA606B561E06EB86071F2606FA07F118
:100600008843561E06EB860605FA06F1084360632A
:1006100022E00D2A0FDA206BD61F06EB86071F2675
:1006200006FA07F18843D61F06EB860605FA06F19F
:100630000843206310E0E06AA2F10D0606EB86078E
:100640001F2606FA07F18843A2F10D0606EB86067F
:1006500005FA06F10843E062F0BD21B1826842F478
:100660008012826003E0826822F480128260704708
:100670000146C86C80B2704766484C3000687047CD
:1006800021B1426842F48062426003E0426822F491
:1006900080624260704721B1426842F480524260F9
:1006A00003E0426822F48052426070470A4600210B
:1006B000816821F4E04111438160704721B1826873
:1006C00042F40042826003E0826822F400428260C9
:1006D000704721B1826842F40212826003E08268AE
:1006E00022F4021282607047014600208A6802F4F8
:1006F00000120AB1012000E000207047F0B5044666
:100700001546002000220026092911DDE068A1F12C
:100710000A0707EB470C072707FA0CF29043A1F1F1
:100720000A0707EB470703FA07F21043E0600CE003
:10073000206901EB410C072707FA0CF2904301EB0B
:10074000410703FA07F210432061A06BC0F3015682
:10075000EF1C06F1010CA7EB0C0707EB870C1F271A
:1007600007FA0CF29043EF1C06F1010CA7EB0C0703
:1007700007EB870701FA07F21043A063F0BD10B53D
:100780000A4600210023816B21F44011531E41EAE7
:100790000351816310BD08B5002300930090009BB6
:1007A0000B440093009B1A6008BD08B50246002068
:1007B0000090009201F12800009B184400900098DE
:1007C000006880B208BD0A4600214168164B1940F6
:1007D0001143416070474162826270470A460021BE
:1007E000416821F01F0111434160704740B1094940
:1007F0000831096841F40001064A0832116007E037
:1008000004490831096821F40001024A08321160E4
:10081000704700000024014000280140003C0140D6
:10082000FFFEF0FFFDF7F1FFFFFD3FFF0246002056
:1008300013680B400BB1012000E000207047CA4351
:100840000260704770B502460020002300240B129E
:100850005568CEB205EA060415681D4015B10CB105
:10086000012000E0002070BD00220A12D343036083
:100870007047000001684FF6FE72114001600021D0
:10088000016041608160C1608D49884208D18C4916
:100890000839496841F00F01894A083A51608AE0F5
:1008A00087491431884208D185490839496841F09F
:1008B000F001834A083A51607DE08149283188423D
:1008C00008D17F490839496841F470617C4A083A87
:1008D000516070E07A493C31884208D17849083942
:1008E000496841F47041764A083A516063E07449BE
:1008F0005031884208D172490839496841F4702161
:100900006F4A083A516056E06D496431884208D117
:100910006B490839496841F47001694A083A5160E5
:1009200049E067497831884208D165490839496802
:1009300041F07061624A083A51603CE06149884286
:1009400006D1011F096841F00F01021F116032E05A
:100950005C491431884208D15A49091F096841F09D
:10096000F001584A121F116025E05649283188428B
:1009700008D15449091F096841F47061514A121F96
:10098000116018E04F493C31884208D14D49091F98
:10099000096841F470414B4A121F11600BE049494C
:1009A0005031884207D14749091F096841F4702135
:1009B000444A121F1160704710B50022026847F6C2
:1009C000F0739A430C6A8B6823430C6923434C6988
:1009D00023438C692343CC6923434C6A23438C6AA9
:1009E00023431A430260CB6843600B6883604B6803
:1009F000C36010BD0021016041608160C160016180
:100A000041618161C161016241628162704721B1CE
:100A1000026842F00102026004E002684FF6FE73D1
:100A20001A40026070471AB103680B43036002E08A
:100A300003688B4303607047416070470146486814
:100A400080B2704701460020002201F080531BB1A4
:100A50001C4B083B1A6802E0194B083B1A6802EA73
:100A600001030BB1012000E00020704700F080512D
:100A700019B11449091F086002E01149083948609A
:100A8000704701460020002201F080531BB10D4B3E
:100A9000083B1A6802E00A4B083B1A6802EA0103A5
:100AA0000BB1012000E00020704700F0805119B127
:100AB0000449091F086002E001490839486070478D
:100AC0000800024008040240002044490860091D53
:100AD0000860091D0860091D086041483F4914313C
:100AE0000860704700213D498279002A3AD00A46C1
:100AF000126803689A430B461A600A1D126803685D
:100B00009A430B1D1A60027911440A6803681A435C
:100B10000A60324A0832126803689A432F4B08333E
:100B20001A601A1D126803689A432C4B0C331A6022
:100B30004279102A0ED11A1F126803681A43274BF4
:100B400008331A601A1D126803681A43234B0C33CA
:100B50001A600DE02149427911440A6803681A437A
:100B60000A6005E0027911440A6803689A430A6042
:100B700070470021016001710C21417100218171D8
:100B800070471649103109680143144A1032116048
:100B9000704701460020114A143212680A400AB117
:100BA000012000E0002070470C49143108607047B4
:100BB000014600200022094B1B6803EA0102074B93
:100BC00014331B680B4013B10AB1012000E0002070
:100BD000704702491431086070470000000401406A
:100BE000FFFF0F0030B943F2DB028100A1F1C041E9
:100BF0000A6005E043F2D2028100A1F1C0410A601F
:100C00006FF07042411C8900A1F1C0410A6081006F
:100C1000A1F1C041C1F80421704710280AD1182160
:100C20004FF020421166402151664FF0FC31916631
:100C3000D16610E01821F74A116040214FF02042A0
:100C4000C2F884104FF0FC31F24A083211604FF0C4
:100C50002042C2F88C1070471820EE4920310860FD
:100C600000200906C1F8A4004FF0FC30E949283102
:100C70000860091D0860091D08607047D0E901126D
:100C80001143C268114302691143426911438269E9
:100C90001143C2691143026A1143426A1143826AD5
:100CA0001143C26A1143026B114302689200A2F120
:100CB000C0421160816808290BD101688900A1F147
:100CC000C041096841F0400201688900A1F1C041BA
:100CD0000A60416B0968426B526841EA0211426B3B
:100CE000926841EA0221426B928941EA0241426BD9
:100CF000128A41EA0251426B127D41EA0261426B63
:100D0000926911430268521C9200A2F1C042116024
:100D1000C16AB1F5804F1BD1816B0968826B526843
:100D200041EA0211826B926841EA0221826B128AC7
:100D300041EA0251826B127D41EA0261826B926943
:100D4000114302689200A2F1C042C2F8041107E008
:100D50006FF0704201688900A1F1C041C1F804211F
:100D6000704730B5002100220023446844F0080495
:100D700085682C43C5682C4305692C43456944EAC2
:100D80004524856944EA4531C4692468C5696D68AC
:100D900044EA0524C5692D8944EA0544C5692D7BCB
:100DA00044EA0562046A2468056A6D6844EA052419
:100DB000056A2D8944EA0544056A2D7B44EA0563EA
:100DC0000468102C05D14FF020442166A266E3662A
:100DD00008E0904C21604FF02044C4F888208D4CEE
:100DE0000C34236030BD016841F01001426841EAD3
:100DF0004221826841EA4231864A20321160C1684C
:100E00000968C268526841EA0221C268128941EA4F
:100E10000241C268127B41EA02617E4A28321160B7
:100E2000016909680269526841EA0221026912896E
:100E300041EA02410269127B41EA0261754A2C32A1
:100E40001160416909684269526841EA02214269B8
:100E5000128941EA02414269127B41EA02614FF084
:100E60002042C2F8B01070470021016002214160A9
:100E700000218160C160016141618161C1610162E4
:100E80004FF480514162490081620021C1620163D7
:100E90000F21426B1160426B5160FF21426B9160E8
:100EA0000F21426BD160426B1161426B5161002195
:100EB000426B91610F21826B1160826B5160FF2147
:100EC000826B91600F21826BD160826B1161826BAA
:100ED00051610021826B91617047102101600021F6
:100EE00041608160C160016141618161FC21C26931
:100EF0001160C2695160C2699160C269D160026AC1
:100F00001160026A5160026A9160026AD1607047A2
:100F10000021016041608160FC21C2681160C268EB
:100F20005160C2689160C268D16002691160026953
:100F30005160026991600269D16042691160426941
:100F40005160426991604269D160704751B182003D
:100F5000A2F1C042126842F001038200A2F1C04235
:100F6000136009E08200A2F1C04212682A4B1A40C5
:100F70008300A3F1C0431A60704799B1102808D1CB
:100F80004FF02042126E42F004024FF020431A66E6
:100F90001DE0204A126842F004024FF02043C3F8DB
:100FA000802014E0102809D14FF02042126E1A4B15
:100FB000DB1E1A404FF020431A6608E0154A1268FB
:100FC000154BDB1E1A404FF02043C3F880207047BA
:100FD00048B110492031096841F004014FF0204226
:100FE000C2F8A01009E00B49203109680A4AD21E54
:100FF00011404FF02042C2F8A0107047B9B110283C
:101000000CD14FF02042126E42F040024FF02043CC
:101010001A661FE0800000A0FEFF0F00724A1268EF
:1010200042F040024FF02043C3F8802012E0102825
:1010300008D14FF02042126E6C4B1A404FF0204303
:101040001A6607E0684A1268684B1A404FF020435E
:10105000C3F88020704701460020102903D14FF0CB
:101060002042506F02E0604A14321068704710B599
:10107000F2B1102807D14FF020435B6E0B434FF0C5
:101080002044636632E0B0F5807F08D1564B1B1DCB
:101090001B680B434FF02044C4F8843026E0524BC9
:1010A00024331B680B434FF02044C4F8A4301DE0E8
:1010B000102807D14FF020435B6E8B434FF0204444
:1010C000636613E0B0F5807F08D1474B1B1D1B689A
:1010D0008B434FF02044C4F8843007E0424B243364
:1010E0001B688B434FF02044C4F8A43010BD10B5EA
:1010F000024600200023102A03D14FF02044636EE3
:1011000009E0B2F5807F03D1374C241D236802E04B
:10111000354C2434236803EA01040CB1012000E0BB
:10112000002010BD102807D14FF02042526E8A4394
:101130004FF020435A6613E0B0F5807F08D12A4A69
:10114000121D12688A434FF02043C3F8842007E041
:10115000254A243212688A434FF02043C3F8A42062
:10116000704770B502460020002300240025102A95
:1011700003D14FF02046736E09E0B2F5807F03D1B2
:10118000194E361D336802E0174E2436336803EAE1
:10119000010403EAD10514B10DB1012000E00020E3
:1011A00070BD102808D14FF02042526E22EAD102C1
:1011B0004FF020435A6615E0B0F5807F09D10A4A06
:1011C000121D126822EAD1024FF02043C3F8842096
:1011D00008E0054A2432126822EAD1024FF0204387
:1011E000C3F8A42070470000800000A0BFFF0F00DC
:1011F00010B50446CC48844208D10121042000F0F7
:101200002DFB0021042000F029FB46E0C748844262
:1012100008D10121082000F021FB0021082000F066
:101220001DFB3AE0C248844208D10121102000F0A1
:1012300015FB0021102000F011FB2EE0BD48844278
:1012400008D10121202000F009FB0021202000F01E
:1012500005FB22E0B848844208D10121402000F07B
:10126000FDFA0021402000F0F9FA16E0B34884426C
:1012700008D10121802000F0F1FA0021802000F047
:10128000EDFA0AE0AE48844207D10121801500F052
:10129000E5FA0021A01500F0E1FA10BD10B501211A
:1012A000084600F0DBFA0021012000F0D7FA10BD5B
:1012B0002DE9F041024600250026002000230024ED
:1012C000002791F803C00CF00F0591F803C00CF053
:1012D000100CBCF1000F03D091F802C04CEA0505D8
:1012E00091F800C0BCF1000F31D0146800202BE051
:1012F0004FF0010C0CFA00F3B1F800C00CEA030641
:101300009E4220D183004FF00F0C0CFA03F7BC4330
:1013100005FA03FC4CEA040491F803C0BCF1280F61
:1013200006D14FF0010C0CFA00FCC2F814C00AE020
:1013300091F803C0BCF1480F05D14FF0010C0CFA35
:1013400000FCC2F810C0401C0828D1D31460B1F8CA
:1013500000C0BCF1FF0F34DD546800202EE000F126
:10136000080C4FF0010808FA0CF3B1F800C00CEAC1
:1013700003069E4221D183004FF00F0C0CFA03F7B5
:10138000BC4305FA03FC4CEA040491F803C0BCF129
:10139000280F05D100F1080C08FA0CF8C2F81480E7
:1013A00091F803C0BCF1480F07D100F1080C4FF0D1
:1013B000010808FA0CF8C2F81080401C0828CED3A7
:1013C0005460BDE8F0814FF6FF7101800221817009
:1013D0000421C17070470246002093680B400BB196
:1013E000012000E0002070470146886880B2704705
:1013F00002460020D3680B400BB1012000E0002022
:1014000070470146C86880B270470161704741610A
:1014100070470AB1016100E041617047C1607047E7
:101420004FF480320A4382618161826182698269FC
:10143000704702460020434B18684FF680731840EF
:1014400040EA021008433F4B186070473E49C861AC
:101450007047F0B50A46002300240021002500F063
:101460000046B6F1004F02D1364EF16901E0354E2B
:101470007168C0F3034583B200F44016B6F5401F0F
:1014800008D121F070612F4E766826F070662D4FDE
:101490007E6012E000F48016B6F5801F06D10326A8
:1014A00006FA05F4A14341F0706106E0460D3601ED
:1014B00003FA06F6B14341F0706122B1460D3601E0
:1014C00003FA06F6314300F00046B6F1004F02D1B0
:1014D0001C4EF16101E01B4E7160F0BD30B5002281
:1014E0008B071C0F0F2303FA04F2164B08338C10E2
:1014F00053F824309343134C08348D1044F82530AE
:1015000023468C1053F824308C07240F00FA04F47F
:1015100023430C4C08348D1044F8253030BD0A4963
:10152000DC3108607047000000080140000C0140F9
:10153000001001400014014000180140001C01404F
:10154000002001400000014000002042DF48006808
:1015500040F00100DD49086008464068DC49084069
:10156000DA49486008460068DA490840D749086007
:101570000846006820F4802008600846406820F48F
:10158000FE0048604FF41F0088607047CF4909682B
:1015900021F48031CD4A11601146096821F480217F
:1015A0001160B0F5803F03D0B0F5802F0ED106E07A
:1015B000C649096841F48031C44A116007E0C34953
:1015C000096841F4A021C14A116000E000BF00BFDA
:1015D000704710B501460022002300204A11012A5D
:1015E00002D1BA4C236806E0022A02D1B74C236A22
:1015F00001E0B64C636A01F01F02012494401C40D4
:101600000CB1012000E0002010BD38B50020009092
:101610000024002500BF3120FFF7DBFF05460098BE
:10162000401C00900098B0F5A06F01D0002DF2D0C2
:101630003120FFF7CEFF08B1012400E0002420464E
:1016400038BD01460020A14A106820F0F80040EAA9
:10165000C10010607047A049086070470246002032
:101660009A4B586820F47C1042EA01031843974BC8
:101670005860704798490866704701460020934AB1
:10168000506820F003000843506070478F4840685E
:1016900000F00C007047014600208C4A506820F092
:1016A000F00008435060704701460020874A5068A8
:1016B00020F4E06008435060704701460020834AF0
:1016C000506820F4605040EAC1005060704729B172
:1016D0007E4A527A02437D4B5A7204E07B4A527A28
:1016E00082437A4B5A7270477B49D8310860704701
:1016F00001460020754A506820F44040084350607D
:1017000070470021714A20321170704A82F820100F
:10171000012802D004280AD104E001216B4A2032BA
:10172000117005E00521694A2032117000E000BF08
:1017300000BF70476949086070476449096A0143FE
:10174000624A11627047654944390860704730B594
:1017500000210022002400235C4D6D6805F00C017F
:1017600021B1042905D0082923D105E05C4D05608D
:1017700022E05B4D05601FE0544D6D6805F470126A
:10178000524D6D6805F48034022505EB92421CB978
:10179000544D554305600BE04C4D6D6805F4003524
:1017A0001DB1504D5543056002E04D4D5543056058
:1017B00002E04B4D056000BF00BF444D6D6805F071
:1017C000F0010909484D6B5C0568DD4045603F4DFF
:1017D0006D6805F4E061090A434D6B5C4568DD40C6
:1017E00085603A4D6D6805F46051C90A3E4D6B5CE9
:1017F0004568DD40C560354D6D6805F44041890B95
:101800003A4D6B5CC568B5FBF3F5056130BD29B198
:101810002E4A526902432D4B5A6104E02B4A526909
:1018200082432A4B5A61704729B1284A9269024380
:10183000264B9A6104E0254A92698243234B9A61C0
:10184000704729B1214AD2690243204BDA6104E092
:101850001E4AD26982431D4BDA61704729B11B4A87
:10186000D2680243194BDA6004E0184AD268824316
:10187000164BDA60704729B1144A12690243134BC0
:101880001A6104E0114A12698243104B1A617047D1
:1018900012494039086070470F49C86470470B49C6
:1018A000C87170470948406A40F080700749486233
:1018B000704701460020054A92680A400AB101209B
:1018C00000E0002070470149887270470010024014
:1018D0000000FFF8FFFFF6FE000042428004424293
:1018E00000127A0000093D001400002024000020AE
:1018F00010B50446FE48844208D10121C014FFF708
:10190000ADFF0021E014FFF7A9FFC4E0B4F1804F60
:1019100008D101210846FFF7AEFF00210120FFF7A3
:10192000AAFFB8E0F348844208D101210220FFF762
:10193000A2FF00210220FFF79EFFACE0EE488442A8
:1019400008D101210420FFF796FF00210420FFF7B2
:1019500092FFA0E0E948844208D101210820FFF766
:101960008AFF00210820FFF786FF94E0E4488442C4
:1019700008D101211020FFF77EFF00211020FFF782
:101980007AFF88E0DF48844208D101212020FFF758
:1019900072FF00212020FFF76EFF7CE0DA488442CE
:1019A00008D101214014FFF759FF00216014FFF70F
:1019B00055FF70E0D548844209D10121C804FFF7E2
:1019C0004DFF00214FF40020FFF748FF63E0D048AF
:1019D000844209D101210805FFF740FF00214FF49F
:1019E0008010FFF73BFF56E0CA48844209D101212D
:1019F0004805FFF733FF00214FF40010FFF72EFFDB
:101A000049E0C548844208D101214020FFF733FF57
:101A100000214020FFF72FFF3DE0C048844208D15D
:101A200001218020FFF727FF00218020FFF723FFFF
:101A300031E0BB48844208D101218015FFF71BFF2C
:101A40000021A015FFF717FF25E0B648844209D111
:101A500001210804FFF702FF00214FF48030FFF757
:101A6000FDFE18E0B048844209D101214804FFF787
:101A7000F5FE00214FF40030FFF7F0FE0BE0AB481D
:101A8000844208D101218804FFF7E8FE00214FF4C9
:101A90008020FFF7E3FE10BD00220288944B98429D
:101AA0000ED0994B98420BD0B0F1804F08D0914B9B
:101AB000984205D0904B984202D0904B984204D166
:101AC0004FF68F731A404B881A438D4B984207D0BC
:101AD0008C4B984204D04FF6FF431A40CB881A43F0
:101AE00002808B8883850B880385814B98420BD0BD
:101AF000854B984208D08B4B984205D08A4B984230
:101B000002D08A4B984201D10B7A0386012383824B
:101B1000704770B5002400220023058C4FF6FE7636
:101B200035400584028C8388048B4FF68F752C40DA
:101B3000B51E2C400D882C43751E2A400D892A4362
:101B40004D882A436A4DA8420BD06F4DA84208D059
:101B5000744DA84205D0744DA84202D0734DA842DE
:101B600013D14FF6F7752A404D892A434FF6FB757E
:101B70002A408D882A434FF6FF652B404FF6FF55CC
:101B80002B408D892B43CD892B4383800483CD88C3
:101B90008586028470BD70B5002400220023058C68
:101BA0004FF6EF7635400584028C8388048B48F627
:101BB000FF752C404FF6FF452C400D884FF6FF7601
:101BC00006EA05252C434FF6DF752A400D8906EA03
:101BD00005152A434D8806EA05152A43444DA842B7
:101BE00002D0494DA8421DD14FF67F752A404D893C
:101BF0004FF6FF7606EA05152A434FF6BF752A40D1
:101C00008D8806EA05152A434FF6FF352B404FF223
:101C1000FF752B408D8906EA85052B43CD8906EAA1
:101C200085052B4383800483CD880587028470BD9E
:101C300070B5002400220023058C4FF6FF66354066
:101C40000584028C8388848B4FF68F752C404FF669
:101C5000FC752C400D882C434FF6FF552A400D890A
:101C60004FF6FF7606EA05252A434D8806EA052544
:101C70002A431F4DA84202D0234DA8421DD14FF246
:101C8000FF752A404D894FF6FF7606EA05252A435F
:101C90004FF6FF352A408D8806EA05252A434EF681
:101CA000FF752B404DF6FF752B408D8906EA051513
:101CB0002B43CD8906EA05152B4383808483CD8889
:101CC0008587028470BD70B5002200230024058C36
:101CD0004EF6FF7635400584038C8488828B48F667
:101CE000FF752A404FF6FF452A400D8820E000008E
:101CF000002C01400004004000080040000C00409F
:101D0000001000400014004000340140004C01402D
:101D1000005001400054014000180040001C0040E9
:101D200000200040004001400044014000480140C4
:101D30004FF6FF7606EA05252A434DF6FF752B4040
:101D40000D8906EA05352B434D8806EA05352B43F8
:101D5000FA4DA84202D0FA4DA84208D14BF6FF75C1
:101D60002C408D894FF6FF7606EA85152C4384803A
:101D70008283CD88A0F84050038470BD828B4FF2DF
:101D8000FF331A408283828B4FF6FF7303EA0123ED
:101D90001A4382837047F0B50C4615460022002195
:101DA0000026078C4EF6FF7C07EA0C070784828B1F
:101DB000018C4FF6FF7707EA043640F6FF473A40BA
:101DC0004FF6FF7707EA05273A434FF6FF7707EA12
:101DD00003373A43D94FB8420ED0D94FB8420BD04F
:101DE000B0F1804F08D0D74FB84205D0D64FB84297
:101DF00002D0D64FB84206D14DF6FF77394046F4AF
:101E00008057394305E047F6FF57394044F480577F
:101E1000394382830184F0BD828B4FF6F3731A40FD
:101E20008283828B0A4382837047F0B50C46154645
:101E3000002200210026078C4FF6FF6C07EA0C07F2
:101E40000784828B018C4FF6FF7707EA04264FF652
:101E50000C773A404FF6FF7707EA03172F433A43D0
:101E6000B64FB8420ED0B64FB8420BD0B0F1804F4B
:101E700008D0B44FB84205D0B34FB84202D0B34FE8
:101E8000B84206D14FF6FF57394046F480773943C0
:101E900005E04FF2FF57394044F48077394382839D
:101EA0000184F0BD028B4FF2FF331A400283028B94
:101EB0004FF6FF7303EA01231A4302837047F0B51C
:101EC0000C461546002200210026078C4FF6EF7CB9
:101ED00007EA0C070784028B018C4FF6FF7707EAAD
:101EE000041640F6FF473A404FF6FF7707EA0337FC
:101EF0003A434FF6FF7707EA05273A438F4FB84238
:101F00000ED08F4FB8420BD0B0F1804F08D08D4F1C
:101F1000B84205D08C4FB84202D08C4FB84206D19F
:101F20004FF6DF77394046F01007394305E04FF6AA
:101F30005F77394044F01007394302830184F0BDD4
:101F4000028B4FF6F3731A400283028B0A4302831B
:101F50007047F0B50C46154600220021068C4FF65E
:101F6000FE773E400684028B018C4FF60C763240A1
:101F70007E1C06EA03162E433243704EB0420ED04A
:101F80006F4EB0420BD0B0F1804F08D06D4EB042D2
:101F900005D06D4EB04202D06C4EB04206D14FF625
:101FA000FD76314044F00106314305E04FF6F57609
:101FB000314044F00106314302830184F0BD70B525
:101FC00005460C465D4885420ED05D4885420BD0E3
:101FD000B5F1804F08D05B48854205D05A4885420C
:101FE00002D05A48854200D100E000BF208850B995
:101FF0002389A28861882846FFF7ABFFE18828463D
:10200000FFF79EFF25E0208804280AD12389A288B3
:1020100061882846FFF753FFE1882846FFF742FF13
:1020200017E0208808280AD12389A28861882846D9
:10203000FFF7FBFEE1882846FFF7EEFE09E0238963
:10204000A28861882846FFF7A6FEE1882846FFF7A8
:1020500095FE70BD2DE9F04105460C46002601278E
:10206000608808B9022600E00026A088012801D176
:10207000022700E001272088A0B92389A28861886F
:102080002846FFF766FFE1882846FFF759FF2389B6
:102090003A4631462846FFF712FFE1882846FFF707
:1020A00001FF13E02389A28861882846FFF707FF14
:1020B000E1882846FFF7F6FE23893A46314628464E
:1020C000FFF747FFE1882846FFF73AFFBDE8F081B8
:1020D0000A884B881A438B881A43CB881A430B898A
:1020E0001A434B891A438B891A43A0F8442070473E
:1020F0004FF6FF71818000210180C1804180017213
:1021000070470021018041808180C180018141812F
:102110008181C1817047002101804180012181803E
:102120000021C180018170470021018041808180B0
:10213000C18001814181818170470000002C0140F4
:10214000003401400004004000080040000C004042
:1021500021B1028842F00102028004E002884FF6B9
:10216000FE731A400280704731B1B0F8442042F447
:102170000042A0F8442005E0B0F84420C2F30E026B
:10218000A0F8442070471AB183890B43838102E091
:1021900083898B43838170478182704741EA0203C0
:1021A000A0F8483070471AB183890B43838102E05D
:1021B00083898B438381704701894FF6F872114000
:1021C000018170470A46002101894FF68F7319403B
:1021D00011430181704730B504460D46294620461B
:1021E000FFF7F0FF208940F00700208130BD2DE986
:1021F000F04104460D4616461F46602D06D13B466B
:10220000012231462046FFF75AFE05E03B460122F7
:1022100031462046FFF79DFE29462046FFF7D2FFB4
:10222000208940F007002081BDE8F08130B50C46E0
:1022300000210189C9B24FF6FF7505EA0325154350
:1022400025432943018130BD2DE9F04105460E4665
:1022500017469846002443463A4631462846FFF73B
:10226000E5FF2C894FF6F870044044F007044FF660
:102270008F70044044F070042C81BDE8F081F0B50B
:1022800004460D4616461F463B4632462946204622
:10229000FFF7CCFF208940F480402081F0BD01850C
:1022A000828270470A46002101884FF68F731940D9
:1022B000114301807047F0B50C4615461E460021BB
:1022C000002200230189028B038C4FF6F8773940F6
:1022D00021434FF6FC473A4040F201173A434FF68C
:1022E000DD773B404FF6FF7707EA06172F433B4366
:1022F000018102830384F0BD0A460021018B4FF661
:102300008F7319401143018370470A460021018BE6
:1023100048F6FF7319404FF6FF7303EA022319438F
:10232000018370470A460021818B4FF68F73194055
:102330001143818370470A460021818B48F6FF7361
:1023400019404FF6FF7303EA022319438183704754
:1023500021B1028842F08002028004E002884FF638
:102360007F731A400280704721B1828842F00402D4
:10237000828004E082884FF6FB731A4082807047A7
:1023800021B1828842F00802828004E082884FF600
:10239000F7731A408280704721B1828842F00102AF
:1023A000828004E082884FF6FE731A408280704774
:1023B0000A460021018B4FF6F77319401143018340
:1023C00070470A460021018B4FF2FF7319404FF608
:1023D000FF7303EA02231943018370470A46002171
:1023E000818B4FF6F77319401143818370470A467A
:1023F0000021818B4FF2FF7319404FF6FF7303EA00
:1024000002231943818370470A460021018B4FF64E
:10241000FB7319401143018370470A460021018B69
:102420004FF6FF3319404FF6FF7303EA02231943B7
:10243000018370470A460021818B4FF6FB731940D8
:102440001143818370470A460021818B4FF6FF3389
:1024500019404FF6FF7303EA022319438183704743
:102460000A460021018B4FF67F7319401143018307
:1024700070470A460021018BC1F30E014FF6FF732E
:1024800003EA02231943018370470A460021818B26
:102490004FF67F7319401143818370470A4600212C
:1024A000818BC1F30E014FF6FF7303EA0223194338
:1024B000818370470A460021018C4FF6FD73194055
:1024C0001143018470470A460021018C4FF6F773CF
:1024D00019401143018470470A460021018C4FF6D0
:1024E000DF7319404FF6FF7303EA021319430184A7
:1024F00070470A460021018C4FF67F7319404FF652
:10250000FF7303EA02131943018470470A4600214E
:10251000018C4FF6FF5319404FF6FF7303EA022375
:102520001943018470470A460021018C4FF2FF7362
:1025300019404FF6FF7303EA0223194301847047E1
:102540000A460021018C4DF6FF7319404FF6FF73C8
:1025500003EA023319430184704730B50023012494
:102560008C40A3B2048C9C430484048C02FA01F5D1
:10257000ADB22C43048430BD30B5002304248C401C
:10258000A3B2048C9C430484048C02FA01F5ADB21E
:102590002C43048430BD70B5034600200024184647
:1025A000183001258D40ACB21D8CA5431D8409B1A6
:1025B000082909D100EB6100056825F07005056068
:1025C0000568154305600EE00D1FC5F34E05284450
:1025D000056825F4E045056005684FF6FF7606EAD4
:1025E00002263543056070BD21B1028842F0020227
:1025F000028004E002884FF6FD731A4002807047A3
:1026000021B1028842F00402028004E002884FF601
:10261000FB731A400280704721B1828842F0800229
:10262000828004E082884FF67F731A408280704770
:1026300002884FF6F7731A40028002880A4302802C
:10264000704782884FF68F731A40828082880A43CF
:102650008280704702894FF6F8731A40028102891E
:102660000A430281704702894FF67F731A40028144
:1026700002890A43028170478184704781857047CF
:10268000818670470187704781877047A0F84010A6
:10269000704702884FF6FF431A40028002880A43BF
:1026A000028070470146888E70470146088F704748
:1026B0000146888F70470146B1F8400070470146D7
:1026C000888C70470146088D704702460020138AA7
:1026D0000B400BB1012000E000207047CA4302828A
:1026E000704730B50246002000230024158A05EA11
:1026F0000103958905EA010413B10CB1012000E042
:10270000002030BDCA4302827047000010B5044665
:10271000FB48844209D101218803FFF79FF800217B
:102720004FF48040FFF79AF832E0F648844209D12E
:1027300001214804FFF79FF800214FF40030FFF714
:102740009AF825E0F048844209D101218804FFF776
:1027500092F800214FF48020FFF78DF818E0EB4845
:10276000844209D10121C804FFF785F800214FF404
:102770000020FFF780F80BE0E548844208D10121F2
:102780000805FFF778F800214FF48010FFF773F881
:1027900010BD2DE9F04786B005460E460024A2463E
:1027A00000BFA1460027B08900B100BF2F462C8A88
:1027B0004CF6FF700440F08804432C82AC894EF63E
:1027C000F3100440B08831890843718908430443F9
:1027D000AC81AC8A4FF6FF400440B0890443AC8220
:1027E00001A8FEF7B4FFC648874202D1DDF810A069
:1027F00001E0DDF80CA0A88900F4004040B10AEB2C
:10280000CA0000EB0A1031684900B0FBF1F807E09C
:102810000AEBCA0000EB0A1031688900B0FBF1F83E
:102820006420B8FBF0F004012009642101FB108949
:10283000A88900F4004040B1322000EBC900B0FB91
:10284000F1F000F00700044308E0322000EB09102B
:102850006421B0FBF1F000F00F0004432C8106B0BE
:10286000BDE8F0874FF41651016000218180C180DE
:1028700001810C21418100218181704710B5024600
:102880000020108A4FF2FF0318400B884C88234326
:102890008C882343CC8823431843108210BD002129
:1028A000018041808180C180704721B1828942F4DA
:1028B0000052828104E082894DF6FF731A408281C2
:1028C0007047F0B50346002400260025002040F69E
:1028D0006A17B94200D100BF1846C1F3421401F093
:1028E0001F06012707FA06F5012C01D10C3004E080
:1028F000022C01D1103000E014301AB107682F43C8
:10290000076002E00768AF430760F0BD1AB1838A31
:102910000B43838202E0838A8B4383827047028A5F
:102920004FF6F0731A400282028A0A43028270470D
:1029300082894FF2FF731A40828182890A43828121
:10294000704721B1828942F00202828104E08289CB
:102950004FF6FD731A4082817047028A4FF6DF738B
:102960001A400282028A0A430282704721B1028A17
:1029700042F48042028204E0028A4BF6FF731A405E
:1029800002827047C1F3080282807047014688883E
:10299000C0F308007047818941F0010181817047CF
:1029A000028BD2B20283028B42EA01220283704779
:1029B000028B02F47F420283028B0A430283704738
:1029C00021B1828A42F02002828204E0828A4FF69C
:1029D000DF731A408282704721B1828A42F010026E
:1029E000828204E0828A4FF6EF731A408282704737
:1029F00021B1828A42F00802828204E0828A4FF684
:102A0000F7731A408282704721B1828942F40042F2
:102A1000828103E08289C2F30E028281704721B174
:102A2000828A42F40062828204E0828A4FF2FF735B
:102A30001A4082827047828A4FF6FB731A40828264
:102A4000828A0A438282704721B1828A42F002025E
:102A5000828204E0828A4FF6FD731A4082827047B8
:102A600002460020B1F5007F00D100BF13880B4063
:102A70000BB1012000E00020704701F40072B2F5B4
:102A8000007F00D100BFCA430280704770B5024684
:102A9000002400230025002040F66A16B14200D130
:102AA00000BFC1F3421501F01F03012606FA03F32C
:102AB000012D02D19689334006E0022D02D1168AFB
:102AC000334001E0968A33400C12012606FA04F4E2
:102AD0001688344013B10CB1012000E0002070BD15
:102AE00010B50022002340F66A14A14200D100BFB5
:102AF0000A1201249440A3B2DC43048010BD0000FC
:102B0000003801400044004000480040004C0040B4
:102B10000050004010B50023F0221946184604F07A
:102B2000B5FF0A231A460021084604F0AFFF0A2326
:102B3000E6221946184604F0A9FF4FF4A073F022CC
:102B40000021104604F0A2FF0A23E6220021F02013
:102B500004F09CFF4FF49B73E6220A21104604F018
:102B600095FF4FF4A07300221946F02004F08EFF69
:102B70004FF49B73E6224FF4A071F02004F086FF1F
:102B80004FF49B730A221946E62004F07FFF0023CE
:102B90001A464FF4A071184604F078FF4FF49B7367
:102BA0000A225101002004F071FF0A231A464FF453
:102BB0009B71184604F06AFF10BD00F042F800F067
:102BC000DFFC01F04DFB4FF4784003490880FFF72C
:102BD000A1FF00BFFEE7000048000020704700BFD3
:102BE000FEE700BFFEE700BFFEE700BFFEE770475D
:102BF00070477047704710B540F225510648FFF7FF
:102C000045FF38B10448FFF7C1FEC4B2214602486F
:102C1000FFF7B8FE10BD00000038014008B54FF4C2
:102C2000A060FDF791FB25208DF8000001208DF8B4
:102C300001008DF802008DF803006846FDF789FB5E
:102C400008BD00B585B001210420FEF7EDFD01218E
:102C50008803FEF7E9FD4FF40070ADF8100018206E
:102C60008DF8130003208DF8120004A96E48FEF7BA
:102C70001FFB4FF48060ADF8100004208DF81300A6
:102C800004A96948FEF714FB4FF4E13000900020DE
:102C9000ADF80400ADF80600ADF80800ADF80C0082
:102CA0000C20ADF80A0069466048FFF772FDFFF797
:102CB000B5FF012240F225515C48FFF702FE0121D9
:102CC0005A48FFF7F2FD05B000BD70B504460D4649
:102CD00029462046FFF756FE00BF80212046FFF719
:102CE000BFFE0028F9D070BD2DE9F04107460D4622
:102CF0001646002405E0295D3846FFF7E6FF601C14
:102D0000C4B2B442F7DB00BF40213846FFF7A8FE4B
:102D10000028F9D0BDE8F08170B506460C460025C4
:102D200000BF615D3046FFF7D0FF6D1C605D00287D
:102D3000F7D100BF40213046FFF792FE0028F9D0BE
:102D400070BD2DE9F04105460C46260AE7B2314632
:102D50002846FFF717FE00BF80212846FFF780FEB8
:102D60000028F9D039462846FFF70CFE00BF802125
:102D70002846FFF775FE0028F9D0BDE8F08170B550
:102D800004460D46E1B22948FFF7FCFD00BF802153
:102D90002648FFF765FE0028F9D0204670BD10B523
:102DA000044600BF20212148FFF75AFE0028F9D031
:102DB0001E48FFF7EBFD10BD014601EBC1024FF0CD
:102DC000E0235A6101221A6100229A6100BF4FF08C
:102DD000E022106900F001021AB100F48032002AEA
:102DE000F5D000224FF0E0231A619A617047014646
:102DF00042F228324A434FF0E0235A6101221A611D
:102E000000229A6100BF4FF0E022106900F0010239
:102E10001AB100F48032002AF5D000224FF0E023EE
:102E20001A619A61704700000008014000380140B3
:102E300008B509208DF8000000208DF801008DF8FC
:102E4000020001208DF803006846FDF782FA002099
:102E50008DF801008DF802000A208DF80000684608
:102E6000FDF777FA08BD0EB501214120FEF7DCFC25
:102E7000FFF7DEFF0820ADF8080048208DF80B00B2
:102E800002A92448FEF714FA03210420FEF726FBCA
:102E90000820009000208DF8040008208DF805001F
:102EA00001208DF806006846FDF71CFE1020ADF8E5
:102EB000080048208DF80B0002A91648FEF7F8F923
:102EC00004210846FEF70AFB1020009000208DF830
:102ED000040008208DF8050001208DF806006846E2
:102EE000FDF700FE0EBD10B50820FDF761FE30B104
:102EF00001210948FFF72CF90820FDF76AFE10BDF3
:102F000010B51020FDF754FE10B11020FDF761FE42
:102F100010BD0000001801400010004008B51B2043
:102F20008DF8000000208DF801008DF802000120CE
:102F30008DF803006846FDF70CFA08BD08B50121BD
:102F40000420FEF771FC4FF48070ADF800000420FF
:102F50008DF8030069464F48FEF7AAF908BD00B591
:102F600087B00121C802FEF75FFC40F2E730ADF800
:102F700014000120ADF810000020ADF81600ADF8E7
:102F800012008DF8180004A94348FEF785FD0020C3
:102F9000ADF80400ADF806000120ADF808000020EF
:102FA000ADF80A00ADF80C0001A93B48FFF752F854
:102FB00050213948FFF706F904213748FFF74AFB4B
:102FC00080213548FFF74FFB012202213248FFF7ED
:102FD000DAF802213048FFF795FB01212E48FFF770
:102FE000B7F807B000BD10B5FFF7A8FFFFF796FFD1
:102FF000FFF7B5FF10BD2DE9FC4102212648FFF780
:1030000081FB2548FFF74EFB244908802248FFF743
:103010004CFB2349088021480088002832D01F48F3
:103020000088401C05F0E4F804461D490988491C45
:10303000642201FB02F005F0DBF80546214604F0AE
:10304000B8FF1849086015480088401C05F0D0F802
:1030500004462146144804F0ACFF144908600846B1
:10306000006805F0E7F804460D460E48006805F0D4
:10307000E1F8064632460B460DA0CDE9004505F0C5
:10308000FFFA04E000200749086008490860BDE82D
:10309000FC81000000080140002C01402A000020B3
:1030A000280000202C0000204054094C3000002053
:1030B000D5BCBFD5B1C8A3BA25302E326625252090
:1030C0002020C6B5C2CAA3BA25302E3266487A0A75
:1030D0000000000008B536208DF8000000208DF8B3
:1030E000010001208DF802008DF803006846FDF70D
:1030F00030F908BD3EB505460C4601211020FEF70B
:10310000A0FBADF80450ADF8004069461248FEF748
:10311000C3FC01211048FFF7E1FA012211460E48D5
:10312000FFF731F801210C48FFF712F83EBD10B54A
:10313000FFF7D0FF40F2E7314720FFF7DBFF10BD7C
:1031400010B501210448FFF7CCFA18B1012102485B
:10315000FFF7D8FA10BD00000010004000B587B09E
:1031600001210420FEF76DFB47F23050ADF814004A
:1031700041F61F40ADF810000020ADF81600ADF884
:10318000120004A97548FEF787FC6020ADF8000026
:103190000120ADF802004FF47A70ADF8060000206F
:1031A000ADF8080069466D48FEF78DFD01216B48BA
:1031B000FEF7CEFF01216948FEF7D6FF07B000BD3C
:1031C00008B501211020FEF72FFB0220ADF800000A
:1031D00000208DF8030069466148FEF769F808BDD4
:1031E00000B591B001210846FEF711FB012148020C
:1031F000FEF71AFBFFF7B2FF5A48FDF73BFB5A48B0
:1032000006905A480790002008900120099000205D
:103210000A900B904FF480700C9080000D9020204D
:103220000E9000020F900020109006A94D48FDF767
:10323000C3FB012202214B48FDF7F5FB0B208DF863
:10324000000000208DF801008DF8020001208DF8AB
:1032500003006846FDF77DF801214248FDF7D7FBE2
:10326000002001908DF808008DF809004FF420200F
:1032700003900020049001208DF8140001A93A4821
:103280004C38FDF7F6F84FF44040FEF731FA0523CD
:1032900001220B2134484C38FDF783F901213248D3
:1032A0004C38FDF71DF901212F484C38FDF70DF979
:1032B0002D484C38FDF72BF900BF2B484C38FDF753
:1032C0002BF90028F9D128484C38FDF72FF900BF19
:1032D00025484C38FDF72FF90028F9D10121224863
:1032E0004C38FDF7BAF911B000BD10B5FFF768FF13
:1032F000FFF776FF10BD2DE9F0470220FDF7C1FB77
:10330000002828D01948008804F07BFF81464FF040
:103310008B4104F04EFE044604F08CFF07464FF04C
:103320006632134B04F083FE054604F096FF114904
:1033300008600E48018810A005F0A2F90D48006849
:1033400004F078FF044622460B4614A005F098F9D5
:103350000220FDF7AAFBBDE8F0870000000800404E
:1033600000100140080002404C24014034000020BD
:1033700066660A40380000200D0A20546865206304
:10338000757272656E742041442076616C7565209B
:103390003D20307825303458200D0A000D0A205485
:1033A00068652063757272656E7420414420766191
:1033B0006C7565203D2025662056200D0A00000012
:1033C00008B501211020FEF72FFA0F20ADF80000FC
:1033D00000208DF803006946C048FDF769FF08BD6D
:1033E00000B587B001210846FEF72BFA40F2E7301E
:1033F000ADF8140041F61F40ADF810000020ADF804
:103400001600ADF8120004A94FF08040FEF744FB0F
:103410006020ADF800000120ADF802004FF47A7092
:10342000ADF806000020ADF8080069464FF0804076
:10343000FEF7B1FB01218807FEF78AFE012188070C
:10344000FEF792FE07B000BD00B591B0012108461D
:10345000FEF7DDF901214802FEF7E6F9FFF7C0FFAC
:103460009F48FDF707FA9F4806909F480790002065
:1034700008900420099000200A9080200B904000C2
:103480000C9080000D9020200E9000020F900020E4
:10349000109006A99248FDF78FFA01220221904868
:1034A000FDF7C1FA0C208DF8000000208DF8010016
:1034B0008DF8020001208DF803006846FCF749FFF3
:1034C00001218748FDF7A3FA0020019001208DF823
:1034D000080000208DF809004FF4C0200390002060
:1034E000049004208DF8140001A97E484C38FCF7A4
:1034F000C0FF4FF44040FEF7FBF8052301220A21EC
:1035000078484C38FDF74DF8052302220B21754809
:103510004C38FDF746F8052303220C2171484C383E
:10352000FDF73FF8052304220D216E484C38FDF7C6
:1035300038F801216B484C38FCF7D2FF012169486B
:103540004C38FCF7C2FF67484C38FCF7E0FF00BF7F
:1035500064484C38FCF7E0FF0028F9D161484C384A
:10356000FCF7E4FF00BF5F484C38FCF7E4FF00289D
:10357000F9D101215B484C38FDF76FF811B000BD5F
:1035800010B5FFF71DFFFFF75FFF10BD2DE9F843F2
:103590002020FDF776FA00287ED05349088804F0F1
:1035A00030FE81464FF08B4104F003FD044604F0E9
:1035B00041FE07464FF066324C4B04F038FD05469D
:1035C00004F04BFE4A4908604749488804F019FE58
:1035D00081464FF08B4104F0ECFC044604F02AFED7
:1035E00007464FF06632414B04F021FD054604F0DA
:1035F00034FE3F4948603C49888804F002FE814619
:103600004FF08B4104F0D5FC044604F013FE07464E
:103610004FF06632354B04F00AFD054604F01DFEFE
:10362000334988603049C88804F0EBFD81464FF08B
:103630008B4104F0BEFC044604F0FCFD07464FF04D
:1036400066322A4B04F0F3FC054604F006FE2849D6
:10365000C86008460168274804F079FC064604F073
:10366000E9FD044622460B4623A005F009F8204850
:103670000168204804F06BFC054604F0C7FD0446D1
:10368000102003462246322100901E2004F075FBD4
:10369000174948681E4900E01EE004F058FC064641
:1036A00004F0C8FD044622460B461AA004F0E8FFC9
:1036B0000F494868164904F04AFC054604F0A6FD87
:1036C000044610200346224646210090322004F092
:1036D00054FB0220FDF7E9F9BDE8F8830010014032
:1036E000080002404C2401403C00002066660A406D
:1036F000500000200000A0400D0A204348302076F2
:10370000616C7565203D2025662056200D0A00005D
:103710000000FA430D0A204348312076616C75653C
:10372000203D202566206D41200D0A00FE490880BD
:103730007047FD49891C08807047FB48801C008841
:103740007047F94A1080921C1180704710B50446EA
:103750002046FFF7EBFF0520FFF72EFBFFF7EDFFFD
:1037600010BDF2480089F04908807047EE49891C75
:103770000880704730B5014601F01F04C1F34513BE
:10378000CA0AE50205EB43151544A8B230BD00BFD7
:10379000011EA0F10102D0B2FAD1704710B5034664
:1037A0000C46E248808849F24131884205D0DF4822
:1037B000808845F21031884214D1DC494889FFF7EE
:1037C000B5FF1812FFF7B5FFD8B2FFF7B2FFD74920
:1037D0008889FFF7ABFF2012FFF7ABFFE0B2FFF7DE
:1037E000A8FF5DE0D148808846F6040188421DD1DB
:1037F000CE488079012804D1CC480088401EC01AE8
:1038000083B2CA494889FFF791FF1812FFF791FF69
:10381000D8B2FFF78EFFC5498889FFF787FF2012CE
:10382000FFF787FFE0B2FFF784FF39E0BF488088E9
:1038300045F21051884220D1BC494889FFF776FFF4
:103840001812FFF776FFB9494989491C88B2FFF77A
:103850006DFFD8B2FFF76DFFB4498889FFF766FFA7
:103860002012FFF766FFB1498989491C88B2FFF72A
:103870005DFFE0B2FFF75DFF12E0AC488079012800
:1038800004D1AA480088401EC01A83B2A7494889BB
:103890001946FFF756FFA54988892146FFF751FFD2
:1038A00010BD2DE9F04105460E4600240027A04634
:1038B0009E480088A84203DD9C484088B04202DC54
:1038C0000020BDE8F08131462846FFF767FF9748A2
:1038D000808849F2413188420BD09448808846F66E
:1038E0000401884205D09148808845F21031884211
:1038F00003D12E20FFF71AFF0DE08C48808845F297
:103900001051884204D14FF43850FFF70FFF02E006
:103910002220FFF70BFF8548808849F2203188423A
:1039200002D10220FFF733FF7F48801C008800B1DE
:1039300000240220FFF72BFF7B48801C04887B4873
:10394000808849F2413188420BD07848808845F21E
:103950001031884205D07548808845F21051884260
:103960000CD10220FFF713FF6F48801CB0F80080D5
:10397000E7B24FF6FF7000EA072708E06B4880883F
:1039800046F60401884202D16748801C04886748D3
:10399000808849F22531884216D06448808844F2F4
:1039A0003551884210D061488088091F88420BD069
:1039B0005E48808848F68911884205D05B48808837
:1039C0004BF20551884201D120467AE7574880885A
:1039D00049F2413188420BD05448808845F2103179
:1039E000884205D05148808845F21051884207D15D
:1039F000E012C002B91240EA411040EAE82060E754
:103A00002046FFF7B7FE5CE700B54848808849F2DA
:103A1000413188420BD04548808846F604018842EF
:103A200005D04248808845F21031884203D12920D0
:103A3000FFF77CFE0FE03D48808845F21051884238
:103A400004D14FF42450FFF771FE04E040F27311EB
:103A50000720FFF776FE00BD00B53448808849F2A4
:103A6000413188420BD03148808846F604018842B3
:103A700005D02E48808845F21031884203D1282095
:103A8000FFF754FE0EE02948808845F21051884225
:103A900004D14FF42050FFF749FE03E00021072036
:103AA000FFF74FFE00BD70B50446002300261F48F7
:103AB000807901281ED11D48808846F6040188427D
:103AC00018D0082C15D2DFE804F00406080A0C0E02
:103AD000101206240DE007240BE0042409E005245D
:103AE00007E0012405E0002403E0032401E00224B0
:103AF00000BF00BF0D48808849F24131884211D093
:103B00000A48808846F6040188420BD0074880881E
:103B100045F21031884205D00448808845F21051A2
:103B200088427CD1082C03E0FE07006C6000002076
:103B30001CD2DFE804F00406090C0F12151800BFB0
:103B400014E043F0800311E043F040030EE043F043
:103B5000C0030BE043F0200308E043F0600305E0FE
:103B600043F0A00302E043F0E00300BF00BFFC48C5
:103B7000808845F21051884202D14FF4585600E037
:103B80003626F748808845F21031884207D0F4483D
:103B9000808845F21051884201D043F00803F04874
:103BA000808846F60401884201D143F00203194699
:103BB0003046FFF7C6FD03F0200018B9E8488079C9
:103BC00001280DD1E6480088E5494988884214DA81
:103BD000E34805884088E2490880084645800CE0B3
:103BE000DF480088DE494988884206DDDC480588D0
:103BF0004088DB49088008464580D948808845F2DE
:103C00001051884254D1D6494889FFF78FFD0020D2
:103C1000FFF78FFDD2494989491C88B200E076E060
:103C2000FFF784FD0020FFF784FDCD494989891CF9
:103C300088B2FFF77BFDCA490988491EC1F30F20EE
:103C4000FFF777FDC6494989C91C88B2FFF76EFDA9
:103C5000C3490978491EC8B2FFF76BFDC04988897E
:103C6000FFF764FD0020FFF764FDBD498989491C09
:103C700088B2FFF75BFD0020FFF75BFDB84989893B
:103C8000891C88B2FFF752FDB5494988491EC1F326
:103C90000F20FFF74EFDB2498989C91C88B2FFF792
:103CA00045FDAF498978491EC8B2FFF742FD60E083
:103CB000AB494889FFF73AFD0020FFF73AFD0020A5
:103CC000FFF737FDA6490988491EC1F30F20FFF70A
:103CD00030FDA3490978491EC8B2FFF72AFDA04963
:103CE0008889FFF723FD0020FFF723FD0020FFF761
:103CF00020FD9B494988491EC1F30F20FFF719FD9C
:103D000097498978491EC8B2FFF713FD31E0082CA6
:103D10001CD2DFE804F004070A0D0F12151843F057
:103D2000300313E043F0100310E043F020030DE0F4
:103D300000BF0BE043F0380308E043F0280305E040
:103D400043F0180302E043F0080300BF00BF8448BB
:103D5000808848F68911884204D1112646F2400035
:103D6000034302E0032643F4805319463046FFF72D
:103D7000E8FC70BD30B504460D4629462046FFF7E5
:103D80000DFDFFF7EEFC774800887749088030BDCD
:103D900030B503460C4615467148808849F24131DA
:103DA000884205D06E48808845F21031884214D18F
:103DB0006B494889FFF7BAFC1812FFF7BAFCD8B272
:103DC000FFF7B7FC66498889FFF7B0FC2012FFF7C0
:103DD000B0FCE0B2FFF7ADFC5DE06148808845F2E1
:103DE0001051884220D15E494889FFF79FFC181284
:103DF000FFF79FFC5A494989491C88B2FFF796FC96
:103E0000D8B2FFF796FC56498889FFF78FFC20123D
:103E1000FFF78FFC52498989491C88B2FFF786FC5D
:103E2000E0B2FFF786FC36E04D48808846F6040194
:103E300088421DD14A488079012804D14848008829
:103E4000401EC01A83B246494889FFF76FFC18121A
:103E5000FFF76FFCD8B2FFF76CFC41498889FFF788
:103E600065FC2012FFF765FCE0B2FFF762FC12E090
:103E70003B488079012804D139480088401EC01A87
:103E800083B2374948891946FFF75BFC3449888972
:103E90002146FFF756FC324800893349891E0880C5
:103EA000881C058030BD10B50446002C66D12C4915
:103EB0008871F02008804FF4A07048800846808800
:103EC00049F2413188420BD02548808846F60401EA
:103ED000884205D02248808845F2103188421AD1A4
:103EE0002C201F4908812A2048812B2088810846E0
:103EF000808846F60401884205D01948808845F23A
:103F00001031884206D14FF4A070154908804FF453
:103F1000F07048809BE01248808848F689118842FA
:103F200007D122200E4908814E2048814F208881E8
:103F30008DE00B48808845F21051884216D14FF42D
:103F40003050074908814FF4285048814FF42C50D5
:103F500088814FF4F07008804FF44870488076E014
:103F600060000020480000200008006C2220FE496C
:103F70000881202048812120888168E00120FA49B9
:103F800088714FF4A0700880F0204880084680882F
:103F900049F24131884205D0F348808845F210311A
:103FA000884207D12C20F04908812A2048812B2003
:103FB000888139E0EC48808846F60401884207D1C0
:103FC0002C20E94908812B2048812A2088812BE078
:103FD000E548808848F68911884207D12220E249C5
:103FE00008814F2048814E2088811DE0DE4880886E
:103FF00045F21051884210D14FF43050DA4908810F
:104000004FF4285048814FF42C5088814FF4487069
:1040100008804FF4F070488006E02220D2490881E1
:104020002120488120208881CF48808846F60401DD
:10403000884205D0CC48808845F21031884206D1AC
:104040004FF4F070C84908804FF4A07048800020F9
:10405000FFF729FD10BD2DE9FF4F04460D4616461A
:104060001F46A019401E86B2E819401E87B2BE48FE
:10407000808849F2413188420BD0BB48808845F2A4
:104080001031884205D0B848808846F6040188423D
:1040900020D1B5494889FFF749FB2012FFF749FBBA
:1040A000E0B2FFF746FB3012FFF743FBF0B2FFF739
:1040B00040FBAD498889FFF739FB2812FFF739FB30
:1040C000E8B2FFF736FB3812FFF733FBF8B2FFF721
:1040D00030FB91E0A448808845F21051884244D1D9
:1040E000A1494889FFF722FB2012FFF722FB9E49D6
:1040F0004989491C88B2FFF719FBE0B2FFF719FBA9
:1041000099494989891C88B2FFF710FB3012FFF7E3
:1041100010FB95494989C91C88B2FFF707FBF0B22B
:10412000FFF707FB90498889FFF700FB2812FFF78C
:1041300000FB8D498989491C88B2FFF7F7FAE8B27C
:10414000FFF7F7FA88498989891C88B2FFF7EEFAE8
:104150003812FFF7EEFA84498989C91C88B2FFF743
:10416000E5FAF8B2FFF7E5FA46E07F4880790128E2
:104170000ED1A846B9467C480088801B401E80B2FC
:10418000019079480088001B401E80B2009003E037
:10419000A046B146019500977348808848F689117A
:1041A00088420DD14FF0440A4FF0440B48EA0920F1
:1041B0001FFA80F8C146452003904620029007E090
:1041C0004FF0500A4FF0510B5220039053200290B1
:1041D00041465046FFF7B5FA49465846FFF7B1FA4F
:1041E00001990398FFF7ADFA00990298FFF7A9FA31
:1041F00029462046FFF7D2FABDE8FF8F70B5044686
:10420000002659480588408845435748808846F627
:104210000401884216D154488079012812D1002027
:10422000514988712A2048812B2088810021084625
:10423000FFF7B4FA01204C4988712B2048812A20CD
:10424000888103E000210846FFF7A8FAFFF789FA02
:10425000002602E045480480761CAE42FAD370BDC9
:1042600000B59FB001210802FDF7D1FA012140F20B
:104270006910FDF7D9FA0120ADF8780010208DF80B
:104280007B0003208DF87A001EA93948FDF710F84D
:104290004CF23370ADF8780018208DF87B000320C5
:1042A0008DF87A001EA93348FDF702F84FF68070AA
:1042B000ADF8780018208DF87B0003208DF87A0087
:1042C0001EA92D48FCF7F4FF41F20100ADF878007B
:1042D00018208DF87B0003208DF87A001EA927484E
:1042E000FCF7E6FF01200890002009900F200A90BB
:1042F00000200B900C900D900E90019002900320E6
:1043000003900020049005900690079006200F90DF
:104310000020109011901020129000201390159002
:104320001490169017904FF4805018900020199018
:104330004FF480401A9000201B9008A81C9001A800
:104340001D900FA8FCF79AFC01210620FCF7FEFD4A
:104350003220FEF74CFD01210020FFF7F2F9322058
:10436000FEF745FD00200BE0600000200008006C17
:10437000000C0140001401400018014000200140E1
:10438000FFF7E4F9FE49888008468088FF280ADBA9
:10439000084680884FF6FF71884204D0F84880882C
:1043A000B0F5134F7ED1D320FFF7C0F9FFF7C5F961
:1043B000FFF7C3F9FFF7C1F9F14988800846808803
:1043C0004FF6FF7101EA0020ED498880FFF7B5F94B
:1043D000EB4989880843EA4988800846808849F281
:1043E000413188426CD0BF20FFF7A0F9FFF7A5F953
:1043F000FFF7A3F9FFF7A1F9FFF79FF9E0498880DC
:10440000084680884FF6FF7101EA0020DC49888069
:10441000FFF793F9DA4989880843D9498880084623
:10442000808846F6040188424AD0D420FFF77EF9FE
:10443000FFF783F9FFF781F9FFF77FF9D04988800B
:10444000084680884FF6FF7101EA0020CC49888039
:10445000FFF773F9CA4989880843C9498880084623
:10446000808845F2103188422AD04FF45A40FFF735
:104470005DF9FFF762F94FF45B40FFF757F9FFF77B
:104480005CF9BF498880084680884FF6FF7101EAD1
:104490000020BB4988804FF45C40FFF747F9FFF7E5
:1044A0004CF900E00CE0B64989880843B44988809B
:1044B00008468088B0F5004F02D145F21050888040
:1044C000AF488188AFA004F0DBF8AD48808849F29E
:1044D000413188427ED1CF20FFF728F90020FFF735
:1044E00028F9C120FFF725F93020FFF722F9ED2048
:1044F000FFF71CF96420FFF71CF90320FFF719F9F7
:104500001220FFF716F98120FFF713F9E820FFF7D3
:104510000DF98520FFF70DF91020FFF70AF97A2031
:10452000FFF707F9CB20FFF701F93920FFF701F971
:104530002C20FFF7FEF80020FFF7FBF83420FFF7F0
:10454000F8F80220FFF7F5F8F720FFF7EFF8202042
:10455000FFF7EFF8EA20FFF7E9F80020FFF7E9F8A6
:104560000020FFF7E6F8C020FFF7E0F81B20FFF778
:10457000E0F8C120FFF7DAF80120FFF7DAF8C520EC
:10458000FFF7D4F83020FFF7D4F83020FFF7D1F848
:10459000C720FFF7CBF8B720FFF7CBF83620FFF79F
:1045A000C5F84820FFF7C5F83A20FFF7BFF85520B7
:1045B000FFF7BFF8B120FFF7B9F80020FFF7B9F80F
:1045C0001A20FFF7B6F8B620FFF7B0F80A20FFF779
:1045D000B0F800E097E0A220FFF7ABF8F220FFF779
:1045E000A5F80020FFF7A5F82620FFF79FF8012087
:1045F000FFF79FF8E020FFF799F80F20FFF799F8F1
:104600002A20FFF796F82820FFF793F80820FFF7F5
:1046100090F80E20FFF78DF80820FFF78AF8542055
:10462000FFF787F8A920FFF784F84320FFF781F808
:104630000A20FFF77EF80F20FFF77BF80020FFF736
:1046400078F80020FFF775F80020FFF772F80020D7
:10465000FFF76FF8E120FFF769F80020FFF769F82E
:104660001520FFF766F81720FFF763F80720FFF71C
:1046700060F81120FFF75DF80620FFF75AF82B20AD
:10468000FFF757F85620FFF754F83C20FFF751F892
:104690000520FFF74EF81020FFF74BF80F20FFF72B
:1046A00048F83F20FFF745F83F20FFF742F80F207A
:1046B000FFF73FF82B20FFF739F80020FFF739F814
:1046C0000020FFF736F80120FFF733F83F20FFF70F
:1046D00030F82A20FFF72AF80020FFF72AF80020F8
:1046E000FFF727F80020FFF724F8EF20FFF721F865
:1046F0001120FFF71BF87820FEF779FB2920FFF740
:1047000015F803F02AB91E48808846F6040188424D
:104710007ED11120FFF70AF81420FEF768FBD020A5
:10472000FFF704F80720FFF704F84220FFF701F82D
:104730001D20FEF7FEFFD120FEF7F8FF0020FEF758
:10474000F8FF1A20FEF7F5FF0920FEF7F2FFD2204E
:10475000FEF7ECFF0120FEF7ECFF2220FEF7E9FF59
:10476000C020FEF7E3FF1020FEF7E3FF3B20FEF73B
:10477000E0FF0020FEF7DDFF0220FEF7DAFF09E090
:1047800060000020204C43442049443A25780D0A1B
:10479000000000001120FEF7CCFFC520FEF7C6FF89
:1047A0000320FEF7C6FFC820FEF7C0FF0020FEF77B
:1047B000C0FF2520FEF7BDFF2120FEF7BAFF052030
:1047C000FEF7B7FF0020FEF7B4FF0A20FEF7B1FFA7
:1047D0006520FEF7AEFF2520FEF7ABFF7720FEF742
:1047E000A8FF5020FEF7A5FF0F20FEF7A2FF002034
:1047F000FEF79FFFF820FEF799FF0120FEF799FFD3
:10480000FE20FEF793FF0020FEF793FF022000E05A
:1048100035E0FEF78EFF2020FEF788FF3620FEF7FA
:1048200085FF0820FEF785FF3A20FEF77FFF552021
:10483000FEF77FFF2B20FEF779FF0020FEF779FFC0
:104840000020FEF776FF0120FEF773FF3F20FEF702
:1048500070FF2A20FEF76AFF0020FEF76AFF0020A3
:10486000FEF767FF0120FEF764FFDF20FEF761FF20
:104870007820FEF7BCFA2920FEF758FF41E7FE48F2
:10488000808845F21031884240F07C87ED20FEF7A9
:104890004DFF0120FEF74DFFFE20FEF74AFFEE2000
:1048A000FEF744FFDE20FEF744FF2120FEF741FF24
:1048B000F120FEF73BFF0120FEF73BFFDF20FEF774
:1048C00035FF1020FEF735FFC420FEF72FFF8F20A5
:1048D000FEF72FFFC620FEF729FF0020FEF729FF75
:1048E000E220FEF726FFE220FEF723FFE220FEF79C
:1048F00020FFBF20FEF71AFFAA20FEF71AFFB02004
:10490000FEF714FF0D20FEF714FF0020FEF711FF45
:104910000D20FEF70EFF0020FEF70BFF1120FEF723
:1049200008FF0020FEF705FF1920FEF702FF002018
:10493000FEF7FFFE2120FEF7FCFE0020FEF7F9FE49
:104940002D20FEF7F6FE0020FEF7F3FE3D20FEF7D9
:10495000F0FE0020FEF7EDFE5D20FEF7EAFE0020EF
:10496000FEF7E7FE5D20FEF7E4FE0020FEF7E1FE25
:10497000B120FEF7DBFE8020FEF7DBFE0020FEF715
:10498000D8FE8B20FEF7D5FE0020FEF7D2FE962043
:10499000FEF7CFFE0020FEF7CCFEB220FEF7C6FEEB
:1049A0000020FEF7C6FE0020FEF7C3FE0220FEF741
:1049B000C0FE0020FEF7BDFE0320FEF7BAFE002079
:1049C000FEF7B7FEB320FEF7B1FE0020FEF7B1FE02
:1049D0000020FEF7AEFE0020FEF7ABFE0020FEF743
:1049E000A8FE0020FEF7A5FE0020FEF7A2FE002094
:1049F000FEF79FFE0020FEF79CFE0020FEF799FECA
:104A00000020FEF796FE0020FEF793FE0020FEF742
:104A100090FE0020FEF78DFE0020FEF78AFE0020AB
:104A2000FEF787FE0020FEF784FE0020FEF781FEE1
:104A30000020FEF77EFE0020FEF77BFE0020FEF742
:104A400078FE0020FEF775FE0020FEF772FE0020C3
:104A5000FEF76FFE0020FEF76CFEB420FEF766FE48
:104A60008B20FEF766FE0020FEF763FE9620FEF721
:104A700060FE0020FEF75DFEA120FEF75AFE00203A
:104A8000FEF757FEB520FEF751FE0220FEF751FE5D
:104A90000020FEF74EFE0320FEF74BFE0020FEF73F
:104AA00048FE0420FEF745FE0020FEF742FEB62039
:104AB000FEF73CFE0020FEF73CFE0020FEF739FE2C
:104AC000B720FEF733FE0020FEF733FE0020FEF78E
:104AD00030FE3F20FEF72DFE0020FEF72AFE5E206E
:104AE000FEF727FE0020FEF724FE6420FEF721FEDD
:104AF0000020FEF71EFE8C20FEF71BFE0020FEF7B6
:104B000018FEAC20FEF715FE0020FEF712FEDC209A
:104B1000FEF70FFE0020FEF70CFE7020FEF709FEE8
:104B20000020FEF706FE9020FEF703FE0020FEF7B1
:104B300000FEEB20FEF7FDFD0020FEF7FAFDDC2075
:104B4000FEF7F7FD0020FEF7F4FDB820FEF7EEFDBE
:104B50000020FEF7EEFD0020FEF7EBFD0020FEF743
:104B6000E8FD0020FEF7E5FD0020FEF7E2FD002055
:104B7000FEF7DFFD0020FEF7DCFD0020FEF7D9FD8B
:104B8000BA20FEF7D3FD2420FEF7D3FD0020FEF768
:104B9000D0FD0020FEF7CDFD0020FEF7CAFDC120AC
:104BA000FEF7C4FD2020FEF7C4FD0020FEF7C1FD86
:104BB0005420FEF7BEFD0020FEF7BBFDFF20FEF7F0
:104BC000B8FD0020FEF7B5FDC220FEF7AFFD0A20BC
:104BD000FEF7AFFD0020FEF7ACFD0420FEF7A9FDB7
:104BE0000020FEF7A6FDC320FEF7A0FD3C20FEF747
:104BF000A0FD0020FEF79DFD3A20FEF79AFD002063
:104C0000FEF797FD3920FEF794FD0020FEF791FD99
:104C10003720FEF78EFD0020FEF78BFD3C20FEF7CF
:104C200088FD0020FEF785FD3620FEF782FD00207E
:104C3000FEF77FFD3220FEF77CFD0020FEF779FDB8
:104C40002F20FEF776FD0020FEF773FD2C20FEF7E7
:104C500070FD0020FEF76DFD2920FEF76AFD0020A3
:104C6000FEF767FD2620FEF764FD0020FEF761FDDC
:104C70002420FEF75EFD01E0600000200020FEF72A
:104C800058FD2420FEF755FD0020FEF752FD23209D
:104C9000FEF74FFD0020FEF74CFD3C20FEF749FDDE
:104CA0000020FEF746FD3620FEF743FD0020FEF70C
:104CB00040FD3220FEF73DFD0020FEF73AFD2F209B
:104CC000FEF737FD0020FEF734FD2C20FEF731FD06
:104CD0000020FEF72EFD2920FEF72BFD0020FEF719
:104CE00028FD2620FEF725FD0020FEF722FD2420CA
:104CF000FEF71FFD0020FEF71CFD2420FEF719FD26
:104D00000020FEF716FD2320FEF713FD0020FEF71E
:104D100010FDC420FEF70AFD6220FEF70AFD002008
:104D2000FEF707FD0520FEF704FD0020FEF701FD5C
:104D30008420FEF7FEFC0020FEF7FBFCF020FEF7CF
:104D4000F8FC0020FEF7F5FC1820FEF7F2FC00202E
:104D5000FEF7EFFCA420FEF7ECFC0020FEF7E9FCD8
:104D60001820FEF7E6FC0020FEF7E3FC5020FEF7DB
:104D7000E0FC0020FEF7DDFC0C20FEF7DAFC002052
:104D8000FEF7D7FC1720FEF7D4FC0020FEF7D1FC7D
:104D90009520FEF7CEFC0020FEF7CBFCF320FEF7BB
:104DA000C8FC0020FEF7C5FCE620FEF7C2FC002090
:104DB000FEF7BFFCC520FEF7B9FC3220FEF7B9FCB8
:104DC0000020FEF7B6FC4420FEF7B3FC0020FEF7FF
:104DD000B0FC6520FEF7ADFC0020FEF7AAFC7620B3
:104DE000FEF7A7FC0020FEF7A4FC8820FEF7A1FC3C
:104DF0000020FEF79EFCC620FEF798FC2020FEF760
:104E000098FC0020FEF795FC1720FEF792FC00208E
:104E1000FEF78FFC0120FEF78CFC0020FEF789FCDA
:104E2000C720FEF783FC0020FEF783FC0020FEF77E
:104E300080FC0020FEF77DFC0020FEF77AFCC820F5
:104E4000FEF774FC0020FEF774FC0020FEF771FCF6
:104E50000020FEF76EFC0020FEF76BFCC920FEF779
:104E600065FC0020FEF765FC0020FEF762FC0020D8
:104E7000FEF75FFC0020FEF75CFC0020FEF759FC0B
:104E80000020FEF756FC0020FEF753FC0020FEF742
:104E900050FC0020FEF74DFC0020FEF74AFC0020ED
:104EA000FEF747FC0020FEF744FC0020FEF741FC23
:104EB0000020FEF73EFC0020FEF73BFC0020FEF742
:104EC00038FCE020FEF732FC1620FEF732FC002012
:104ED000FEF72FFC1C20FEF72CFC0020FEF729FC1F
:104EE0002120FEF726FC0020FEF723FC3620FEF7EB
:104EF00020FC0020FEF71DFC4620FEF71AFC0020D7
:104F0000FEF717FC5220FEF714FC0020FEF711FC00
:104F10006420FEF70EFC0020FEF70BFC7A20FEF763
:104F200008FC0020FEF705FC8B20FEF702FC0020A9
:104F3000FEF7FFFB9920FEF7FCFB0020FEF7F9FBD4
:104F4000A820FEF7F6FB0020FEF7F3FBB920FEF7E2
:104F5000F0FB0020FEF7EDFBC420FEF7EAFB00208B
:104F6000FEF7E7FBCA20FEF7E4FB0020FEF7E1FBBB
:104F7000D220FEF7DEFB0020FEF7DBFBD920FEF798
:104F8000D8FB0020FEF7D5FBE020FEF7D2FB002087
:104F9000FEF7CFFBF320FEF7CCFB0020FEF7C9FBAA
:104FA000E120FEF7C3FB1620FEF7C3FB0020FEF74F
:104FB000C0FB1C20FEF7BDFB0020FEF7BAFB222041
:104FC000FEF7B7FB0020FEF7B4FB3620FEF7B1FB7F
:104FD0000020FEF7AEFB4520FEF7ABFB0020FEF7FE
:104FE000A8FB5220FEF7A5FB0020FEF7A2FB6420E1
:104FF000FEF79FFB0020FEF79CFB7A20FEF799FB53
:105000000020FEF796FB8B20FEF793FB0020FEF7B7
:1050100090FB9920FEF78DFB0020FEF78AFBA8206D
:10502000FEF787FB0020FEF784FBB920FEF781FB2B
:105030000020FEF77EFBC420FEF77BFB0020FEF77E
:1050400078FBCA20FEF775FB0020FEF772FBD2202A
:10505000FEF76FFB0020FEF76CFBD820FEF769FB24
:105060000020FEF766FBE020FEF763FB0020FEF762
:1050700060FBF320FEF75DFB0020FEF75AFBE22009
:10508000FEF754FB0520FEF754FB0020FEF751FB12
:105090000B20FEF74EFB0020FEF74BFB1B20FEF71C
:1050A00048FB0020FEF745FB3420FEF742FB0020C2
:1050B000FEF73FFB4420FEF73CFB0020FEF739FBE8
:1050C0004F20FEF736FB0020FEF733FB6120FEF792
:1050D00030FB0020FEF72DFB7920FEF72AFB002095
:1050E000FEF727FB8820FEF724FB0020FEF721FBBC
:1050F0009720FEF71EFB0020FEF71BFBA620FEF705
:1051000018FB0020FEF715FBB720FEF712FB00206E
:10511000FEF70FFBC220FEF70CFB0020FEF709FB99
:10512000C720FEF706FB0020FEF703FBD120FEF7A9
:1051300000FB0020FEF7FDFAD620FEF7FAFA002069
:10514000FEF7F7FADD20FEF7F4FA0020FEF7F1FA99
:10515000F320FEF7EEFA0020FEF7EBFAE320FEF76D
:10516000E5FA0520FEF7E5FA0020FEF7E2FA0A204C
:10517000FEF7DFFA0020FEF7DCFA1C20FEF7D9FA72
:105180000020FEF7D6FA3320FEF7D3FA0020FEF710
:10519000D0FA4420FEF7CDFA0020FEF7CAFA5020DC
:1051A000FEF7C7FA0020FEF7C4FA6220FEF7C1FA44
:1051B0000020FEF7BEFA7820FEF7BBFA0020FEF7CB
:1051C000B8FA8820FEF7B5FA0020FEF7B2FA972069
:1051D000FEF7AFFA0020FEF7ACFAA620FEF7A9FA18
:1051E0000020FEF7A6FAB720FEF7A3FA0020FEF78C
:1051F000A0FAC220FEF79DFA0020FEF79AFAC72017
:10520000FEF797FA0020FEF794FAD120FEF791FA04
:105210000020FEF78EFAD520FEF78BFA0020FEF76D
:1052200088FADD20FEF785FA0020FEF782FAF320E7
:10523000FEF77FFA0020FEF77CFAE420FEF776FA0C
:105240000120FEF776FA0020FEF773FA0120FEF740
:1052500070FA0020FEF76DFA0220FEF76AFA0020CD
:10526000FEF767FA2A20FEF764FA0020FEF761FADB
:105270003C20FEF75EFA0020FEF75BFA4B20FEF7BB
:1052800058FA0020FEF755FA5D20FEF752FA00208A
:10529000FEF74FFA7420FEF74CFA0020FEF749FAA9
:1052A0008420FEF746FA0020FEF743FA9320FEF72B
:1052B00040FA0020FEF73DFAA220FEF73AFA00205D
:1052C000FEF737FAB320FEF734FA0020FEF731FA82
:1052D000BE20FEF72EFA0020FEF72BFAC420FEF7C0
:1052E00028FA0020FEF725FACD20FEF722FA00204A
:1052F000FEF71FFAD320FEF71CFA0020FEF719FA7A
:10530000DD20FEF716FA0020FEF713FAF320FEF771
:1053100010FA0020FEF70DFAE520FEF707FA00204C
:10532000FEF707FA0020FEF704FA0020FEF701FA64
:105330000020FEF7FEF90220FEF7FBF90020FEF741
:10534000F8F92920FEF7F5F90020FEF7F2F93C20E4
:10535000FEF7EFF90020FEF7ECF94B20FEF7E9F934
:105360000020FEF7E6F95D20FEF7E3F90020FEF7E6
:10537000E0F97420FEF7DDF90020FEF7DAF9842069
:10538000FEF7D7F90020FEF7D4F99320FEF7D1F904
:105390000020FEF7CEF9A220FEF7CBF90020FEF7A1
:1053A000C8F9B320FEF7C5F90020FEF7C2F9BE2008
:1053B000FEF7BFF90020FEF7BCF9C420FEF7B9F9EB
:1053C0000020FEF7B6F9CD20FEF7B3F90020FEF776
:1053D000B0F9D320FEF7ADF90020FEF7AAF9DC20E2
:1053E000FEF7A7F90020FEF7A4F9F320FEF7A1F9D4
:1053F0000020FEF79EF9E620FEF798F91120FEF74F
:1054000098F90020FEF795F93420FEF792F9002074
:10541000FEF78FF95620FEF78CF90020FEF789F988
:105420007620FEF786F90020FEF783F97720FEF755
:1054300080F90020FEF77DF96620FEF77AF900205A
:10544000FEF777F98820FEF774F90020FEF771F96E
:105450009920FEF76EF90020FEF76BF9BB20FEF7EE
:1054600068F90020FEF765F99920FEF762F900203F
:10547000FEF75FF96620FEF75CF90020FEF759F9A8
:105480005520FEF756F90020FEF753F95520FEF798
:1054900050F90020FEF74DF94520FEF74AF90020AB
:1054A000FEF747F94320FEF744F90020FEF741F9E3
:1054B0004420FEF73EF90020FEF73BF9E720FEF717
:1054C00035F93220FEF735F90020FEF732F9552084
:1054D000FEF72FF90020FEF72CF97620FEF729F9C8
:1054E0000020FEF726F96620FEF723F90020FEF7DC
:1054F00020F96720FEF71DF90020FEF71AF9672052
:10550000FEF717F90020FEF714F98720FEF711F9CE
:105510000020FEF70EF99920FEF70BF90020FEF7A8
:1055200008F9BB20FEF705F90020FEF702F99920E3
:10553000FEF7FFF80020FEF7FCF87720FEF7F9F8F9
:105540000020FEF7F6F84420FEF7F3F80020FEF7FF
:10555000F0F85620FEF7EDF80020FEF7EAF82320D9
:10556000FEF7E7F80020FEF7E4F83320FEF7E1F855
:105570000020FEF7DEF84520FEF7DBF80020FEF7FE
:10558000D8F8E820FEF7D2F80020FEF7D2F8002085
:10559000FEF7CFF89920FEF7CCF80020FEF7C9F807
:1055A0008720FEF7C6F80020FEF7C3F88820FEF734
:1055B000C0F80020FEF7BDF87720FEF7BAF800200B
:1055C000FEF7B7F86620FEF7B4F80020FEF7B1F852
:1055D0008820FEF7AEF80020FEF7ABF8AA20FEF711
:1055E000A8F80020FEF7A5F8BB20FEF7A2F80020DF
:1055F000FEF79FF89920FEF79CF80020FEF799F837
:105600006620FEF796F80020FEF793F85520FEF787
:1056100090F80020FEF78DF85520FEF78AF800205C
:10562000FEF787F84420FEF784F80020FEF781F8A3
:105630004420FEF77EF80020FEF77BF85520FEF7A9
:1056400078F80020FEF775F8E920FEF76FF8AA2039
:10565000FEF76FF80020FEF76CF80020FEF769F8FF
:105660000020FEF766F80020FEF760F8AA20FEF79B
:1056700060F8CF20FEF75AF80020FEF75AF8002015
:10568000FEF757F80020FEF754F80020FEF751F817
:105690000020FEF74EF80020FEF74BF80020FEF742
:1056A00048F80020FEF745F80020FEF742F80020F9
:1056B000FEF73FF80020FEF73CF80020FEF739F82F
:1056C0000020FEF736F80020FEF733F80020FEF742
:1056D00030F80020FEF72DF80020FEF72AF8F02021
:1056E000FEF724F80020FEF724F85020FEF721F8FA
:1056F0000020FEF71EF80020FEF71BF80020FEF742
:1057000018F8F320FEF712F80020FEF712F8F9203F
:10571000FEF70CF80620FEF70CF81020FEF709F84B
:105720002920FEF706F80020FEF703F83A20FDF7DF
:10573000FDFF5520FDF7FDFF1120FDF7F7FF642069
:10574000FDF755FB2920FDF7F1FF3520FDF7EEFFB2
:105750000020FDF7EEFF5120FDF7E8FFFF20FDF7E9
:10576000E8FF5320FDF7E2FF2C20FDF7E2FF552074
:10577000FDF7DCFF8220FDF7DCFF2C20FDF7D6FFD4
:1057800002F0EBB8FE48808845F2105188427DD186
:1057900055214FF47040FDF7D4FFAA214FF20100CC
:1057A000FDF7CFFF52214FF20200FDF7CAFF08219B
:1057B0004FF20300FDF7C5FF01214FF20400FDF792
:1057C000C0FF0D214FF43040FDF7BBFF0D214BF220
:1057D0000100FDF7B6FF0D214BF20200FDF7B1FF0E
:1057E00034214FF43640FDF7ACFF34214BF2016019
:1057F000FDF7A7FF34214BF20260FDF7A2FF0D2158
:105800004FF43140FDF79DFF0D214BF20110FDF7E4
:1058100098FF0D214BF20210FDF793FF34214FF456
:105820003740FDF78EFF34214BF20170FDF789FF01
:1058300034214BF20270FDF784FF00214FF4324017
:10584000FDF77FFF00214BF20120FDF77AFF0021D9
:105850004BF20220FDF775FF24214FF43840FDF78D
:1058600070FF24214BF60100FDF76BFF24214BF65E
:105870000200FDF766FF01214FF43F40FDF761FF95
:105880000F214FF43340FDF75CFF00E0FDE30F21F3
:105890004BF20130FDF755FF0F214BF20230FDF7BF
:1058A00050FF34214FF43940FDF74BFF34214BF6C4
:1058B0000110FDF746FF34214BF60210FDF741FFC2
:1058C00008214FF43540FDF73CFF08214BF2015011
:1058D000FDF737FF08214BF20250FDF732FF03219D
:1058E0004FF44240FDF72DFF24214FF43A40FDF7DD
:1058F00028FF24214BF60120FDF723FF24214BF63E
:105900000220FDF71EFF00214FF43C40FDF719FF78
:1059100078214BF60140FDF714FF00214BF60240C1
:10592000FDF70FFF00214FF43D40FDF70AFF7821FE
:105930004BF60150FDF705FF00214BF60250FDF735
:1059400000FF00214FF43E40FDF7FBFE64214BF6C3
:105950000160FDF7F6FE00214FF45140FDF7F1FE26
:1059600033214DF20110FDF7ECFE00214DF2021043
:10597000FDF7E7FE34214DF20310FDF7E2FE0021B2
:105980004DF20410FDF7DDFE3A214DF20510FDF752
:10599000D8FE00214DF20610FDF7D3FE4A214DF24C
:1059A0000710FDF7CEFE00214DF20810FDF7C9FEED
:1059B0005C214DF20910FDF7C4FE00214DF20A10E2
:1059C000FDF7BFFE81214DF20B10FDF7BAFE00215D
:1059D0004DF20C10FDF7B5FEA6214DF20D10FDF7AE
:1059E000B0FE00214DF20E10FDF7ABFEE5214DF2A9
:1059F0000F10FDF7A6FE01214DF21010FDF7A1FEDC
:105A000013214DF21110FDF79CFE01214DF21210F1
:105A1000FDF797FE54214DF21310FDF792FE012180
:105A20004DF21410FDF78DFE82214DF21510FDF799
:105A300088FE01214DF21610FDF783FECA214DF2BA
:105A40001710FDF77EFE02214DF21810FDF779FECA
:105A500000214DF21910FDF774FE02214DF21A10CB
:105A6000FDF76FFE01214DF21B10FDF76AFE0221CA
:105A70004DF21C10FDF765FE34214DF21D10FDF7AF
:105A800060FE02214DF21E10FDF75BFE67214DF214
:105A90001F10FDF756FE02214DF22010FDF751FEBA
:105AA00084214DF22110FDF74CFE02214DF222100F
:105AB000FDF747FEA4214DF22310FDF742FE02211F
:105AC0004DF22410FDF73DFEB7214DF22510FDF7F4
:105AD00038FE02214DF22610FDF733FECF214DF2A4
