:020000040800F2
:10000000B00400204501000859130008CF0F000874
:100010005513000837090008911F00080000000070
:10002000000000000000000000000000791A000835
:10003000050E00080000000041190008651B0008BB
:100040005F0100085F0100085F0100085F01000810
:100050005F0100085F0100085F0100085F01000800
:100060005F0100083F0E00085D0E00085D090008F2
:10007000150A00085F0100085F0100085F01000821
:100080005F0100085F0100085F0100085F010008D0
:100090005F0100085F0100085F0100085F010008C0
:1000A0005F0100085F0100085F0100085F010008B0
:1000B0005F0100085F0100085F0100085F010008A0
:1000C0005F0100085F0100085F0100085F01000890
:1000D0005F0100085F010008B51C00085F0100080F
:1000E0005F0100085F0100085F0100085F01000870
:1000F0005F0100085F0100085F0100085F01000860
:100100005F0100085F0100085F0100085F0100084F
:100110005F0100085F010008C91B00085F010008BB
:100120005F0100085F0100085F0100085F0100082F
:10013000DFF80CD000F0BCFB00480047AD280008F9
:10014000B00400200648804706480047FEE7FEE767
:10015000FEE7FEE7FEE7FEE7FEE7FEE7FEE7FEE777
:10016000691B000831010008F0B480EA0102D40FD5
:100170004200B2EB410F02D20246084611464A0045
:1001800042D0C30DDDB2C1F3C752AD1A202D35DA0E
:10019000C1F3160141F4000204B15242C5F1200638
:1001A00002FA06F12A411044B3EBD05F23D0C4B168
:1001B000012DA0EBC35009DCF0BC4FF0004202EA75
:1001C000C352DBB200F5000000F00FBA400000F1AE
:1001D000807000EBC350A0F1807040EAD1704900FC
:1001E00009E0490841EAC071A0EBC35000F50000E6
:1001F000400800EBC350F0BC00F0EEB961420122B0
:1002000002EB4101001BF6E7F0BC704781F00041B2
:10021000AAE780F00040A7E780EA010210B502F0EB
:100220000043400022D04A001FD0010E01EB1261B2
:10023000C0F35600C2F3560240F4000042F400023C
:10024000A0FB022000047F39140400D0401C50EAB7
:10025000124001D44000491EC2B20C0604EBD0107B
:10026000401C4008802A02D003E0002010BD20F08E
:100270000100002900DA0020184310BD30B480EAE4
:10028000010202F0004530F0004221F0004013D09E
:1002900090B1C30DD40DC2F31601C0F31600E41AD9
:1002A00041F4000140F400027D34914201D3641C0A
:1002B00000E04900002C02DA30BC002070474FF407
:1002C00000000023914201D3891A034340084FEAFA
:1002D0004101F7D151B1914202D14FF0004105E007
:1002E00002D24FF0010101E06FF0010103EBC450B5
:1002F000284430BC00F070B92DE9FE4F81EA0304B8
:1003000004F0004421F0004100944FF0000B23F072
:10031000004350EA01045ED052EA03045BD0C3F309
:100320000A54C1F30A552C44A4F2F3340194A0FBFF
:100330000254C1F3130141F48011C3F3130343F4D6
:10034000801301FB024400FB034E840A970A44EA2F
:10035000815447EA8357A4FB076802958D0A05FB81
:1003600007854FEA932C04FB0C542705029D4FEAA6
:10037000065847EA1637B5EB08056EEB070C870EF3
:10038000920E47EA811742EA8312A7FB0201B6EBFD
:100390000B0164EB00042B0D43EA0C335E1844EBB5
:1003A0001C50DA465146E7FB0201C5F313044FEA3D
:1003B0000B3343EA14534FEA0432019C43EA060329
:1003C000A4F10C040294009CCDE900B400F04AF9B9
:1003D00003B0BDE8F08F00200146F9E72DE9F04DAC
:1003E00081EA030404F0004B21F0004514464FF06D
:1003F000000A23F0004150EA050220D054EA01022D
:100400001DD0C5F30A570246C5F31303C1F3130009
:10041000C1F30A5640F4801543F48013A7EB060895
:10042000101BD64608F2FD3873EB050002D308F125
:10043000010801E092185B41B8F1000F03DA0020D7
:100440000146BDE8F08D00204FF480110646844639
:100450000EE0171B73EB050705D3121B63EB0503B7
:1004600006434CEA010C49084FEA300092185B4100
:1004700050EA0107EDD152EA030012D082EA0400EB
:1004800083EA0501084305D0101BAB4106D20122C7
:10049000002306E000224FF0004302E06FF001026B
:1004A00053101AEB06004CEB085110EB0A0041EB1D
:1004B0000B01BDE8F04D00F0C6B8962300221146AE
:1004C00000F093B820F00040C10DC0F3160040F4D6
:1004D00000007F2901DA00207047962903DCC1F172
:1004E0009601C840704796398840704700F0004236
:1004F00030F000400AD0C10D01F56071C0F3160064
:1005000042EA0151C20840071143704700200146EA
:10051000704701F0004330B421F0004150EA01027D
:1005200006D00A0DA2F56072C1F31301002A02DCA5
:1005300030BC00207047440F44EAC104C100E018F9
:1005400030BC00EBC25000F047B830B50B46014656
:1005500000202022012409E021FA02F59D4205D362
:1005600003FA02F5491B04FA02F52844151EA2F10C
:100570000102F1DC30BD2DE9F05F05460020924616
:100580009B4688460646814640241BE02846414655
:100590004746224600F0ADF953465A46C01A9141EB
:1005A00010D311461846224600F094F92D1A67EB35
:1005B00001084F4622460120002100F08BF917EB7D
:1005C00000094E41201EA4F10104DFDC48463146FB
:1005D0002A464346BDE8F09F0029A8BF7047401C4B
:1005E000490008BF20F00100704710B4B0FA80FC49
:1005F00000FA0CF050EA010404BF10BC704749B186
:10060000CCF1200421FA04F411FA0CF118BF0121F5
:1006100021430843A3EB0C01CB1D4FEA00614FEAD5
:10062000102042BF002010BC704700EBC3501044A4
:100630000029A4BF10BC7047401C490008BF20F02F
:10064000010010BC704710B5141E73F1000408DAE5
:10065000401C41F1000192185B411A4301D120F086
:10066000010010BD2DE9F04D92469B4611B1B1FA43
:1006700081F202E0B0FA80F22032904600F02AF9CE
:1006800004460F4640EA0A0041EA0B0153465A4627
:10069000084313D0114653EA010019D0C8F14002B3
:1006A000504600F026F905460E4650465946424649
:1006B00000F010F9084305D0012004E02046394637
:1006C000BDE8F08D0020054346EAE0762C43374331
:1006D0000A986305E40AA0EB08000022FD0A44EA38
:1006E00047540A3002D500200146E9E701051019F8
:1006F0006941DDE9084500196941BDE8F04DA2E70F
:100700002DE9FE4F804681EA0300C00F0C460090A1
:1007100021F0004123F00045B8EB0200A94105D2C9
:100720004046214690461C460B46024623F00040B8
:10073000104347D0270DC7F30A00C3F30A510290B4
:10074000401A019040286BDAC3F3130040F4801B79
:100750000098924620B10023D2EB030A63EB0B0B07
:1007600001985946C0F14002504600F0B3F80646E1
:100770000D4650465946019A00F0CBF810EB0800A0
:100780006141002487EA115284EAE7731A4340D09A
:10079000009A62B3019A012A4FEA075215DC001B46
:1007A00061EB02014FF0004202EA0752CDE900423C
:1007B000001C41F5801132462B46FFF753FF03B072
:1007C000BDE8F08F40462146F9E7001B61EB0201CE
:1007D000001C41F5801300185B412018A2F500179A
:1007E00047EB030140EAD570B6196D4111E06D0881
:1007F0004FEA360645EAC0754FEA0752001B61EB27
:100800000201001C41F5801149084FEA300000192F
:10081000514132462B4603B0BDE8F04FFFF713BFFE
:100820000098012240000023D0EB020263EBE0734A
:10083000009821464FEAE074B8EB000061EB040138
:10084000E9E783F000435BE781F0004158E7C1F33B
:100850000A52C1F3130140F2FF3341F480119A426E
:1008600002DA00200146704740F233439A42A2F276
:10087000334202DC524200F03CB800F02BB80000DA
:1008800030B5041E71F1000404DB4FF00044404217
:1008900064EB0101141E73F1000405DB1C464FF0EC
:1008A0000043524263EB0403994208BF904230BDBB
:1008B000064C074D06E0E06840F0010394E80700AD
:1008C00098471034AC42F6D3FFF736FCC83C00081A
:1008D000E83C0008202A04DB203A00FA02F100205C
:1008E00070479140C2F1200320FA03F3194390406E
:1008F0007047202A04DB203A21FA02F000217047D9
:1009000021FA02F3D040C2F1200291400843194677
:100910007047202A06DBCB17203A41FA02F043EA5F
:10092000E07306E041FA02F3D040C2F120029140A8
:1009300008431946704700BFFEE7000008B50022D3
:100940000092054A009200F10802009B1A440092AE
:10095000009A116008BD0000007400402DE9F047C6
:10096000022000F0EDF9002828D015480088FFF794
:10097000A4FD81464FF08B41FFF780FC0446FFF752
:10098000B5FD07464FF066320E4BFFF7B5FC054646
:10099000FFF7BFFD0C490860094801880BA001F072
:1009A000F9FA09480068FFF7A1FD044622460B4604
:1009B0000FA001F0EFFA022000F002F9BDE8F08785
:1009C0000400002066660A40080000200D0A20543A
:1009D00068652063757272656E742041442076618B
:1009E0006C7565203D20307825303458200D0A0084
:1009F0000D0A205468652063757272656E7420411B
:100A0000442076616C7565203D2025662056200DBA
:100A10000A0000002DE9F843202000F091F9002899
:100A20007ED04E490888FFF748FD81464FF08B4144
:100A3000FFF724FC0446FFF759FD07464FF06632E6
:100A4000474BFFF759FC0546FFF763FD4549086032
:100A500042494888FFF731FD81464FF08B41FFF74F
:100A60000DFC0446FFF742FD07464FF066323C4B53
:100A7000FFF742FC0546FFF74CFD3A49486008463F
:100A800001683948FFF7C8FB0646FFF72FFD04460B
:100A900022460B4635A001F07DFA32480168324803
:100AA000FFF7BAFB0546FFF70DFD0446102003468D
:100AB0002246322100901E2000F0E4FB29494868BC
:100AC0003049FFF7A9FB0646FFF710FD0446224612
:100AD0000B462DA001F05EFA224948682949FFF72C
:100AE0009BFB0546FFF7EEFC04461020034622461A
:100AF00046210090322000F0C5FB1A494868214980
:100B0000FFF78AFB2649486026480088FFF7D5FC96
:100B1000054600F0BDFE0446FFF7D4FC224900E084
:100B20001AE008800846008840F6B831884204DAA6
:100B30001D48008800F03AF903E040F6B83000F0B4
:100B400035F91848018819A001F024FA1AA001F01B
:100B500021FA022000F034F8BDE8F8830C000020F0
:100B600066660A40100000200000A0400D0A2043E5
:100B700048302076616C7565203D20256620562022
:100B80000D0A00000000FA430D0A20434831207688
:100B9000616C7565203D202566206D41200D0A00A1
:100BA0007C0000201A00002018000020C9E8B6A828
:100BB000D6B525640A0000000D0A0D0A00000000E9
:100BC00000F0805111B10349086001E0024948601A
:100BD00070470000040402400000024021B1026896
:100BE00042F00102026004E002684FF6FE731A4010
:100BF0000260704701684FF6FE72114001600021EB
:100C0000016041608160C1604B49884208D14A4916
:100C10000839496841F00F01474A083A51608AE0B3
:100C200045491431884208D143490839496841F09F
:100C3000F001414A083A51607DE03F49283188423D
:100C400008D13D490839496841F470613A4A083A87
:100C5000516070E038493C31884208D13649083942
:100C6000496841F47041344A083A516063E03249BE
:100C70005031884208D130490839496841F470211F
:100C80002D4A083A516056E02B496431884208D118
:100C900029490839496841F47001274A083A5160E6
:100CA00049E025497831884208D123490839496803
:100CB00041F07061204A083A51603CE01F49884287
:100CC00006D1011F096841F00F01021F116032E0D7
:100CD0001A491431884208D11849091F096841F09E
:100CE000F001164A121F116025E01449283188428C
:100CF00008D11249091F096841F470610F4A121F97
:100D0000116018E00D493C31884208D10B49091F98
:100D1000096841F47041094A121F11600BE007494C
:100D20005031884207D10549091F096841F47021F3
:100D3000024A121F11607047080002400804024076
:100D400001460020002201F0805313B1054B1A68C0
:100D500001E0054B1A6802EA01030BB1012000E033
:100D600000207047000402400000024010B500223D
:100D7000026847F6F0739A430C6A8B6823430C6948
:100D800023434C6923438C692343CC6923434C6A36
:100D900023438C6A23431A430260CB6843600B6889
:100DA00083604B68C36010BD416070472DE9F04718
:100DB00004462046FFF781FB814610494846FFF76D
:100DC0005DFA81464FF08B414846FFF725FA82468F
:100DD000FFF78CFB07464FF06632094BFFF7FEFA30
:100DE0000546FFF796FB81464846FFF76BFB85B249
:100DF00029460020FFF7A2FDBDE8F08700007A44F5
:100E000066660A407047014642F228324A434FF074
:100E1000E0235A6101221A6100229A6100BF4FF05B
:100E2000E022106900F001021AB100F48032002AB9
:100E3000F5D000224FF0E0231A619A61704710B597
:100E4000082000F021F840B11420FFF7DCFF082053
:100E500000F01AF8082000F011F810BD10B51020AD
:100E600000F012F840B11420FFF7CDFF102000F081
:100E70000BF8102000F002F810BD000001490860D6
:100E80007047000014040140014600200022074B77
:100E90001B6803EA0102054B14331B680B4013B1B6
:100EA0000AB1012000E0002070470000000401406A
:100EB0002DE9F041024600250026002000230024F1
:100EC000002791F803C00CF00F0591F803C00CF057
:100ED000100CBCF1000F03D091F802C04CEA0505DC
:100EE00091F800C0BCF1000F31D0146800202BE055
:100EF0004FF0010C0CFA00F3B1F800C00CEA030645
:100F00009E4220D183004FF00F0C0CFA03F7BC4334
:100F100005FA03FC4CEA040491F803C0BCF1280F65
:100F200006D14FF0010C0CFA00FCC2F814C00AE024
:100F300091F803C0BCF1480F05D14FF0010C0CFA39
:100F400000FCC2F810C0401C0828D1D31460B1F8CE
:100F500000C0BCF1FF0F34DD546800202EE000F12A
:100F6000080C4FF0010808FA0CF3B1F800C00CEAC5
:100F700003069E4221D183004FF00F0C0CFA03F7B9
:100F8000BC4305FA03FC4CEA040491F803C0BCF12D
:100F9000280F05D100F1080C08FA0CF8C2F81480EB
:100FA00091F803C0BCF1480F07D100F1080C4FF0D5
:100FB000010808FA0CF8C2F81080401C0828CED3AB
:100FC0005460BDE8F081416170470161704700BF26
:100FD000FEE7000030B504460D462946204600F0E5
:100FE00017F800F0A5F9024800880249088030BDD2
:100FF000000000200008006C10B50246012000E04F
:1010000050430B1EA1F10104E1B2F9D110BD000063
:1010100010B503460C464048808849F24131884269
:1010200005D03D48808845F21031884214D13A49B4
:10103000488900F077F9181200F06EF9D8B200F084
:101040006BF93549888900F06DF9201200F064F9D8
:10105000E0B200F061F95DE02F48808846F60401B7
:1010600088421DD12C488079012804D12A48008863
:10107000401EC01A83B22849488900F053F918125B
:1010800000F04AF9D8B200F047F92349888900F006
:1010900049F9201200F040F9E0B200F03DF939E0E2
:1010A0001D48808845F21051884220D11A4948894C
:1010B00000F038F9181200F02FF917494989491C36
:1010C00088B200F02FF9D8B200F026F912498889C9
:1010D00000F028F9201200F01FF90F498989491CF6
:1010E00088B200F01FF9E0B200F016F912E00A48E9
:1010F0008079012804D108480088401EC01A83B2B4
:1011000005494889194600F01DF903498889214697
:1011100000F018F910BD00004C0000202DE9F84F38
:1011200005460F4690461E4600975148B0F800907D
:10113000A8F1200000F0FF080A9800284ED10024F2
:1011400049E00C2E07D108EB48004A4901EB80002A
:1011500010F804A004E0484800EB081010F804A0C0
:101160004FF0000B31E00AF0800018B14048A0F8C1
:10117000009003E0414800883D49088039462846F0
:10118000FFF728FF4FEA4A604FEA106A781C87B2DF
:101190003B480088A84204DC3548A0F80090BDE830
:1011A000F88F0098381AB0420BD1009F681C85B2A6
:1011B00033480088A84203DC2D48A0F80090EEE7F1
:1011C00006E00BF1010000F0FF0BBBF1080FCADBDA
:1011D00000BF601CC4B2B442B3DB44E0002440E072
:1011E0000C2E07D108EB4800224901EB800010F8D3
:1011F00004A004E0204800EB081010F804A04FF011
:10120000000B28E00AF0800018B139462846FFF7A5
:10121000E1FE4FEA4A604FEA106A781C87B218482C
:101220004088A84203DC1248A0F80090B7E7009875
:10123000381AB0420BD1009F681C85B21048008854
:10124000A84203DC0A48A0F80090A8E706E00BF1EA
:10125000010000F0FF0BBBF1080FD3DB00BF601CE7
:10126000C4B2B442BCDB0248A0F8009000BF96E7CD
:10127000000000204A2A0008BE2E000802000020BC
:101280004C0000202DE9FF4F81B0074691461E46D5
:101290000E9D4FF0000A002439E0301B401EC1B201
:1012A0000A20FFF7A9FEB9FBF0F00A21B0FBF1F22A
:1012B00001FB1208BAF1000F16D1701EA04213DD17
:1012C000B8F1000F0ED10020AB4605EBDB714910E1
:1012D00001FB0471009088B22B4620220299FFF78F
:1012E0001DFF12E04FF0010A0020AB4605EBDB7159
:1012F000491001FB0471009088B208F13001CAB2B4
:101300002B460299FFF70AFF00BF601CC4B2B4422B
:10131000C3DB05B0BDE8F08F0149088070470000CD
:101320000008006C0149088070470000FE07006C4F
:101330000248008902490880704700004C000020E4
:10134000FE07006C024A1080921C1180704700005A
:10135000FE07006C00BFFEE77047000070B500217B
:1013600000230F22C47804B3154C246804F4E0640D
:10137000C4F5E064210AC1F10403CA40447804FAC8
:1013800003F184781440214309010E4C0678A155DD
:10139000047804F01F050124AC4005786D11AD0000
:1013A00005F1E025C5F8004109E0047804F01F05C7
:1013B0000124AC40044D0678761145F8264070BDF6
:1013C0000CED00E000E400E080E100E002490143B0
:1013D000024A1160704700000000FA050CED00E0C1
:1013E00070B5002419E004F1B001C8B2002100F08A
:1013F00089F90021084600F085F90021102000F04D
:1014000081F9002505E00121002000F07BF9681C2E
:10141000C5B2802DF7DB601CC4B2082CE3DB70BDC5
:1014200008B501214FF4947000F0ACFA4FF4FC7051
:10143000ADF8000010208DF8030003208DF80200A5
:1014400069465648FFF734FD4FF4FC715348FFF7E7
:10145000BCFD0320ADF8000069465148FFF728FDA8
:1014600003214F48FFF7B1FD4FF40040ADF80000F5
:1014700069464C48FFF71CFD4FF400414948FFF70F
:10148000A4FD10214548FFF7A0FD6420FFF7BBFC39
:1014900010214248FFF797FD6420FFF7B4FC1021AC
:1014A0003E48FFF792FD0021AE2000F02BF900210D
:1014B000084600F027F90021102000F023F9002150
:1014C000402000F01FF90021812000F01BF90021CD
:1014D000CF2000F017F90021A12000F013F900211E
:1014E000C82000F00FF90021A62000F00BF9002120
:1014F000A82000F007F900213F2000F003F90021A7
:10150000D32000F0FFF80021084600F0FBF800218E
:10151000D52000F0F7F80021802000F0F3F800213A
:10152000D92000F0EFF80021F12000F0EBF80021C5
:10153000DA2000F0E7F80021122000F0E3F80021A3
:10154000DB2000F0DFF80021402000F0DBF8002174
:10155000202000F0D7F80021022000F0D3F800216D
:101560008D2000F0CFF80021142000F0CBF80021EE
:10157000A42000F0C7F80021A62000F0C3F8002145
:10158000AF2000F0BFF80021AF2000F0BBF8FFF75C
:1015900027FF0021084600F007F808BD00140140AD
:1015A000001001400020014070B504460D4605F1D1
:1015B000B001C8B2002100F0A5F8102141EA1410D2
:1015C000002100F09FF804F00F0141F0010000211C
:1015D00000F098F870BD00002DE9F04107460E4676
:1015E000904600250024A8F12000C5B27F2F02DD1F
:1015F0000027B01CC6B231463846FFF7D5FF00249D
:1016000008E004EB05110F4A505C012100F07AF864
:10161000601CC4B2082CF4DB701CC1B23846FFF762
:10162000C3FF002409E004EB05110831054A505CB2
:10163000012100F067F8601CC4B2082CF3DBBDE8A0
:10164000F0810000D63600082DE9FF5F074691467D
:101650001D460E9E4FF0000A002433E0281B401E5A
:10166000C1B20A2001F0E6F9B9FBF0F00A21B0FBA3
:10167000F1F201FB1208BAF1000F13D1681EA0426B
:1016800010DDB8F1000F0BD1B34606EBDB7149104A
:1016900001FB0471C8B220220199FFF79DFF0FE002
:1016A0004FF0010AB34606EBDB71491001FB0471F0
:1016B000C8B208F13001CAB20199FFF78DFF00BF2F
:1016C000601CC4B2AC42C9DBBDE8FF9F2DE9F0410C
:1016D00004460F46154600260EE0AA5D3946204610
:1016E000FFF77AFF04F10800C4B2782C02DD002471
:1016F000B81CC7B2701CC6B2A85D0028EDD1BDE809
:10170000F081000070B504460E4626B1202118482D
:10171000FFF75BFC03E020211548FFF754FC08218C
:101720001348FFF750FC002517E040211048FFF751
:101730004AFC04F0800020B180210D48FFF745FCF1
:1017400003E080210A48FFF73EFC40210848FFF7EC
:101750003CFC6006040E681CC5B2082DE5DB0821C0
:101760000348FFF732FC20210148FFF72EFC70BD33
:101770000014014000B502463348007840B91078A3
:101780002C2805D101203049087010782F490870A5
:101790002D480078012808D15078122805D1022060
:1017A000294908705078294948702748007802284C
:1017B0000FD1042024490870907824498870D0788B
:1017C000C87010790871507948710120204908804B
:1017D00038E01D480078042820D190795B2805D195
:1017E00000201949087000F037F82BE090795B2849
:1017F00028D00020144908701649088009E000200C
:101800001249144B1B88C85412480088401C1149C7
:101810000880104800880728F1DB13E000200A49FF
:1018200008700C49088009E000200849094B1B8812
:10183000C85408480088401C0649088005480088AC
:101840000728F1DB00BD000032000020200000204E
:101850001C000020280000200848807808490880E3
:101860000648C0780749088004480079064908807E
:101870000248407905490880704700002000002098
:101880002A0000202C0000202E0000203000002024
:101890002DE9F04704462948046002465168106863
:1018A000FEF7B4FC254988600846C1684FF08040C7
:1018B000FEF7B2FC8146214881684846FEF7A9FC44
:1018C00080461E4801694046FEF7A0FC07461B48BB
:1018D000C1693846FEF7A0FC0546184A9168906930
:1018E000FEF79AFC8046154AD1689068FEF78EFC98
:1018F0008146124841694846FEF78EFC074641463C
:10190000FEF732FC06462946FEF72EFC0B49C8625C
:101910000846C068086108468068C8600A46D16AFF
:10192000106BFEF721FC05490863086BFEF7CAFD42
:1019300085B22846FEF7C1FDBDE8F0877C00002097
:101940007047000029B1064A52690243044B5A61AC
:1019500004E0034A52698243014B5A617047000018
:101960000010024029B1064AD2690243044BDA61F1
:1019700004E0034AD2698243014BDA6170470000F8
:101980000010024029B1064A92690243044B9A6151
:1019900004E0034A92698243014B9A617047000058
:1019A0000010024030B500210022002400232D4DFC
:1019B0006D6805F00C0121B1042905D0082923D157
:1019C00005E0294D056022E0274D05601FE0254D0B
:1019D0006D6805F47012234D6D6805F4803402259E
:1019E00005EB92421CB9214D554305600BE01D4D9E
:1019F0006D6805F400351DB11C4D5543056002E0CE
:101A0000194D5543056002E0174D056000BF00BF4A
:101A1000144D6D6805F0F0010909154D6B5C056802
:101A2000DD4045600F4D6D6805F4E061090A104D19
:101A30006B5C4568DD4085600A4D6D6805F460515A
:101A4000C90A0B4D6B5C4568DD40C560054D6D688E
:101A500005F44041890B074D6B5CC568B5FBF3F598
:101A6000056130BD0010024000127A0000093D00FF
:101A70003300002043000020704710B500F002F84A
:101A800010BD00000CB500200190009033480068A4
:101A900040F480303149086000BF3048006800F4ED
:101AA000003000900198401C0190009818B90198EE
:101AB000B0F5A06FF1D12948006800F4003010B1F2
:101AC0000120009001E0002000900098012843D1FF
:101AD0002348006840F0100021490860084600686B
:101AE00020F0030008600846006840F0020008602B
:101AF0001A484068194948600846406848600846E6
:101B0000406840F4806048600846406820F47C10DB
:101B100048600846406840F4E8104860084600689D
:101B200040F08070086000BF0C48006800F0007052
:101B30000028F9D00948406820F0030007494860B0
:101B40000846406840F00200486000BF0348406813
:101B500000F00C000828F9D10CBD00000010024074
:101B6000002002407047000010B51348006840F0A4
:101B700001001149086008464068104908400E49B4
:101B80004860084600680E4908400B49086008464E
:101B9000006820F4802008600846406820F4FE00B9
:101BA00048604FF41F008860FFF767FF4FF0006048
:101BB0000449086010BD0000001002400000FFF85A
:101BC000FFFFF6FE08ED00E010B50121044800F02B
:101BD0000CF818B10121024800F004F810BD000013
:101BE00000100040CA430282704730B50246002010
:101BF00000230024158A05EA0103958905EA0104FA
:101C000013B10CB1012000E0002030BD00B58BB055
:101C100001210846FFF796FE2248FEF7EBFF214818
:101C20001438FEF7E7FF204800902048019010206C
:101C300002900020039004908020059000200690E0
:101C4000079008904FF44050099000200A90694690
:101C50001448FFF78BF814480090154801900020B5
:101C600002904FF480600390002004908020059043
:101C700000200690079008904FF4405009900020F3
:101C80000A90694607481438FFF770F801210548A3
:101C9000FEF7A4FF012103481438FEF79FFF0BB0A5
:101CA00000BD000080000240044400405A000020B3
:101CB0006A00002010B540F22441104800F0A9F855
:101CC000D8B10E480088C4B20C48001D0088C4B2C8
:101CD0000B4880795B2804D10948FFF74BFDFFF7DB
:101CE000BBFD00210748FEF779FF10210548FFF7EB
:101CF0005BF801210348FEF771FF10BD004400406E
:101D00006A0000206C00024010B586B00446012134
:101D10000520FFF737FE01214804FFF723FE0420CA
:101D2000ADF8140003208DF8160018208DF8170068
:101D300005A92048FFF7BCF80820ADF814000420DE
:101D40008DF8170005A91B48FFF7B2F80194002091
:101D5000ADF80800ADF80A00ADF80C00ADF81000C1
:101D60000C20ADF80E0001A9134800F0A1F80122E3
:101D700040F22441104800F076F850210E4800F05F
:101D80001DF801210C4800F022F80122C0210A4868
:101D900000F029F826208DF8000000208DF80100C1
:101DA0008DF8020001208DF803006846FFF7D6FA8F
:101DB00006B010BD000801400044004001F400726C
:101DC000B2F5007F00D100BFCA430280704721B145
:101DD000828942F40052828104E082894DF6FF73C9
:101DE0001A40828170471AB1838A0B43838202E0D2
:101DF000838A8B438382704702460020B1F5007FBF
:101E000000D100BF13880B400BB1012000E000207F
:101E1000704770B50246002400230025002040F6DC
:101E20006A16B14200D100BFC1F3421501F01F0391
:101E3000012606FA03F3012D02D19689334006E00C
:101E4000022D02D1168A334001E0968A33400C12EB
:101E5000012606FA04F41688344013B10CB10120AF
:101E600000E0002070BDF0B50346002400260025E8
:101E7000002040F66A17B94200D100BF1846C1F3EE
:101E8000421401F01F06012707FA06F5012C01D1C3
:101E90000C3004E0022C01D1103000E014301AB1F3
:101EA00007682F43076002E00768AF430760F0BD93
:101EB0002DE9F04786B005460E460024A24600BF35
:101EC000A1460027B08900B100BF2F462C8A4CF6EE
:101ED000FF700440F08804432C82AC894EF6F31066
:101EE0000440B08831890843718908430443AC81B8
:101EF000AC8A4FF6FF400440B0890443AC8201A88D
:101F0000FFF750FD1F48874202D1DDF810A001E025
:101F1000DDF80CA0A88900F4004040B10AEBCA002B
:101F200000EB0A1031684900B0FBF1F807E00AEB5A
:101F3000CA0000EB0A1031688900B0FBF1F8642098
:101F4000B8FBF0F004012009642101FB1089A88985
:101F500000F4004040B1322000EBC900B0FBF1F0CA
:101F600000F00700044308E0322000EB0910642170
:101F7000B0FBF1F000F00F0004432C8106B0BDE887
:101F8000F087000000380140C1F3080282807047EA
:101F900000BFFEE70FB4054B10B503A9044A029831
:101FA00000F0DAF810BC5DF814FB00008928000886
:101FB0004800002002E008C8121F08C1002AFAD118
:101FC00070477047002001E001C1121F002AFBD1B9
:101FD000704700002DE9FF5F82B00021DDE9043089
:101FE000020DDDF840B0034318D044F61050A2F2C1
:101FF000FF3242431514119801281FD0A5EB0B00A6
:10200000401C5FEA000A4FF000064E4FDFF838919F
:10201000B046504615D5CAF1000413E011980124CA
:102020004AA3012801D16FEA0B010298119AC0E975
:102030000031C0E9024206B0BDE8F09FCBF10000DC
:10204000DFE704460021404A491842EB0450CDE93D
:10205000001012E0E00707D032463B4640464946B2
:10206000FEF74AF98046894632463B4610461946F5
:10207000FEF742F906460F466410002CEAD1DDE96E
:102080000401DDE90023BAF1000F06DAFEF734F9A6
:1020900042464B46FEF730F905E0FEF79FF942460F
:1020A0004B46FEF79BF904460E460022284BFEF7EE
:1020B000E7FB03D84FF0FF30014607E00022254B35
:1020C00020463146FEF71CFBFEF7C1FB102409E059
:1020D000002C0ADB0A220023FEF74DFA039B303264
:1020E0001A55641E50EA0102F2D1641C039AC4F12D
:1020F00011031444119A012A03D0012208430DD17F
:102100000AE0084304D000204FF0110B119072E751
:10211000A3EB0B056D1E0DE05B4504DD4FF00002E7
:1021200005F1010504E003DA4FF00002A5F1010515
:10213000002AECD002981199C0E90231C0E90045AB
:1021400079E70000000014400000F03F300000007C
:102150000000F0430000E03F2DE9FF4F95B09B46A3
:102160008946064600250FE2252877D10024274618
:10217000F84A0121059400E0044316F8013F203B92
:1021800001FA03F01042F7D130782A2811D06FF00D
:102190002F033078A0F13002092A16D8059A44F0AE
:1021A000020402EB820203EB42021044761C05900B
:1021B000EFE759F8042B0592002A03DA504244F461
:1021C0000054059044F00204761C30782E2816D175
:1021D00016F8010F44F004042A280DD06FF02F02E6
:1021E0003078A0F13003092B09D807EB870302EB05
:1021F0004303C718761CF3E759F8047B761C307844
:102200006C280FD006DC4C2817D068280DD06A281F
:1022100014D104E0742810D07A280FD10DE044F4D2
:1022200000140AE044F4801401E044F4401472788D
:10223000824202D104F58014761C761C3078662820
:102240000BD013DC582877D009DC002875D045283E
:10225000F6D04628F4D047281AD19DE118E063282B
:1022600035D0642879D0652812D195E1702873D0D3
:1022700008DC6728F1D069286FD06E280DD06F2850
:1022800006D1B5E073282CD0752875D0782874D085
:102290005A46179990476D1C75E1C4F30250022805
:1022A00009D003280DD0D9F8001004280DD00D60F6
:1022B00009F1040967E1D9F80010EA17C1E90052F1
:1022C000F6E7D9F800100D80F2E70D70F0E719F885
:1022D000041B8DF8001000208DF80100EA46012053
:1022E00003E059F804AB4FF0FF3061074FF00001F5
:1022F00002D40DE008F101018846B9420FDA8045A9
:10230000F8DB1AF808100029F4D108E008F10101FF
:1023100088468142FADB1AF808100029F6D10598A0
:102320005B46A0EB080721463846179A00F094FA5E
:10233000284400EB080507E04DE029E10DE01AF81C
:10234000010B5A4617999047B8F10108F7D25B463E
:1023500021463846179A13E142E00A220092C4F35C
:1023600002524FF0000A022A08D059F804CB032A7F
:102370004FEAEC710AD00DE029E02AE009F10701EB
:1023800021F00702F2E802C1914609E00FFA8CFC45
:102390004FEAEC71042A03D14FFA8CFC4FEAEC713E
:1023A000002907DA0A460021DCF1000C61EB02018A
:1023B0002D2202E0220504D52B228DF804200122D3
:1023C00003E0E20701D02022F7E7904659E00A2116
:1023D00002E010220DE010214FF0000A00910BE006
:1023E00010224FF0000A44F004040827009203E092
:1023F00008224FF0000A0092C4F30252022A05D0CC
:1024000059F804CB0021032A08D009E009F107019B
:1024100021F00702F2E802C1914605E01FFA8CFCA8
:10242000042A01D10CF0FF0C4FF00008220728D538
:10243000702806D0009B83F0100353EA0A0305D0EE
:102440000EE040228DF80420012208E05CEA01023F
:1024500006D030228DF804208DF805000222904627
:10246000009B83F0080353EA0A030AD15CEA0102E5
:1024700001D1620705D530228DF804204FF0010804
:102480007F1E582804D034A003900EA802900DE0BF
:1024900036A0F9E753466046009AFEF76CF884468A
:1024A0000398825C0298401E029002705CEA010070
:1024B000F0D1029806A9081A00F1200A600702D597
:1024C00024F4803400E00127574502DDA7EB0A0021
:1024D00000E0002000EB0A01009005984144401AFA
:1024E0000590E00306D45B462146179A059800F054
:1024F000B3F90544002706E001A85A46C05D1799C4
:1025000090476D1C7F1C4745F6DBE0030CD55B460E
:102510002146179A059800F09FF9054404E0302001
:102520005A46179990476D1C0099481E0090002943
:10253000F5DC08E0029802995A460078491C02919D
:10254000179990476D1CBAF10001AAF1010AF1DC5C
:1025500065E1000009280100303132333435363767
:1025600038396162636465660000000030313233DF
:10257000343536373839414243444546000000007F
:1025800000F058F90544761C307800287FF4ECAD53
:1025900019B02846BDE8F08F620700D4062709F17C
:1025A000070222F0070CFCE80223E14603F0004892
:1025B0005FEA080C02D00FF2702C0DE05FEA045CB9
:1025C00002D50FF2682C07E05FEAC47C02D00FF25C
:1025D000602C01E0AFF2700C4FF0FF3823F00043A5
:1025E000CDF850C065280CD006DC452809D0462817
:1025F0001DD047283DD13DE0662818D067287ED100
:1026000038E00021112F01DB112000E0781CCDE91A
:10261000000106A90EA8FFF7DDFCDDE90F010E9A07
:1026200003910021009207F1010A04914DE04FF05F
:1026300000400097CDE9011006A90EA8FFF7CAFCDB
:10264000DDE90F0203920E9B11990022DDF80CA028
:102650000093049211B9791C00EB010AB7EB0A0050
:1026600004D4C0F1FF3007F1010A0490AAEB07007F
:10267000019044E0012F00DA01270021112F01DD34
:10268000112000E03846CDE9000106A90EA8FFF7A9
:10269000A1FCDDE90F010E9A039100210491009243
:1026A000BA4621070CD40399514500DA8A46BAF19B
:1026B000010F05DD009AAAF10101515C302908D013
:1026C000B84202DA10F1040F06DA0121CDE9011057
:1026D00015E0AAF10101E9E7002805DC04990144AD
:1026E0000491AAEB000102E0411C514500DD8A463D
:1026F0000499401A401C01904FF0004002902007BE
:1027000004D40198504501DBCDF8048000208DF8F9
:102710004F0002980DF14F07B0F1004F25D02B204C
:102720000E9002984FF0020800280CDA4042029006
:102730002D200E9007E00A210298FDF706FF3031A8
:10274000029007F8011DB8F10001A8F10108F2DCC0
:1027500002980028EFD1791E0E980870307800F0AA
:10276000200040F0450007F8020D12A8C01B00F140
:1027700007081498007800B1012000EB0A010198C5
:1027800001EBE07105984144401A401E0590E003BA
:1027900006D45B462146179A059800F05DF805447B
:1027A0001498007818B15A46179990476D1CE003A9
:1027B00024D55B462146179A059800F04DF805444C
:1027C0001CE00498002807DBDDE90301884203DDF3
:1027D0000098405C179901E0179930205A469047BD
:1027E000049805F10105401C04900198401E0190D9
:1027F00004D12E205A46179990476D1CBAF100015A
:10280000AAF1010ADDDC05E017F8010B5A46179919
:1028100090476D1CB8F10001A8F10108F4DC5B469B
:102820002146179A0598ABE62D0000002B0000000A
:10283000200000002DE9F041044600251E46174601
:10284000880404D405E039462020B0476D1C641E7E
:10285000F9D52846BDE8F0812DE9F0410446002570
:102860001E469046C80301D5302700E02027880483
:1028700004D505E041463846B0476D1C641EF9D5C5
:102880002846BDE8F081000070B504460D46E1B26F
:102890000548FFF779FB00BF80210348FFF7ACFA3A
:1028A0000028F9D0204670BD0044004008B54FF420
:1028B0004070FEF78BFD4FF4E130FFF725FAFFF78C
:1028C000A5F935A0FFF766FBFEF7AAFDFEF788FD28
:1028D00000BF5FE0FEF784FD35A200210846FEF749
:1028E000F5FE36A202210020FEF7F0FE36A20421FA
:1028F0000020FEF7EBFE37A206210020FEF7E6FEE1
:102900001020032300903648B0F900200021502009
:10291000FEF79AFE1020032300903248B0F9002001
:1029200002215020FEF790FE1020032300902E4835
:10293000B0F9002004214620FEF786FE1020032374
:1029400000902A48B0F9002006214620FEF77CFEC0
:102950004FF4FA50FEF757FA25480088D0B12248C4
:10296000B0F9001023A0FFF715FB2048B0F90010C4
:1029700024A0FFF70FFB1A48B0F9001025A0FFF7BD
:1029800009FB1848B0F9001026A0FFF703FB002050
:10299000174908809EE7000053544D33322B55539E
:1029A0004152542B444D412B49444C450A000000F0
:1029B0004F70656E4D565F58313A00004F70656E2E
:1029C0004D565F59313A00004F70656E4D565F5855
:1029D0003A0000004F70656E4D565F593A00000096
:1029E0002E000020300000202A0000202C000020B3
:1029F0001C000020785F7069616E79693D25640A6A
:102A000000000000795F7069616E79693D25640A94
:102A10000000000078315F7069616E79693D25645E
:102A20000A00000079315F7069616E79693D256443
:102A30000A00000010B50246012000E050430B1EC2
:102A4000A1F10104E1B2F9D110BD000000000000C5
:102A5000000000000000000000003F4000000000F7
:102A6000000000003000400030004000000009007D
:102A70000BC03D000BC03D00090018C024407FE0A2
:102A8000224031800000180024C01B000D8032401D
:102A9000018003801C4027401C800740004010003C
:102AA00060000000000000000000000000000000C6
:102AB0001F80204040200000402020401F80000058
:102AC0000000090006001F80060009000000040045
:102AD00004003F80040004000000001000600000BB
:102AE00000000000000004000400040004000400D2
:102AF0000000000000400000000000000000002076
:102B000001C006003800400000001F802040204027
:102B100020401F800000000010403FC00040000027
:102B2000000018C0214022402440184000001080BE
:102B30002040244024401B80000002000D001100B2
:102B40003FC0014000003C802440244024402380BA
:102B500000001F80244024403440038000003000E7
:102B6000200027C03800200000001B8024402440A3
:102B700024401B8000001C0022C0224022401F80F5
:102B800000000000000008400000000000000000FD
:102B900000000460000000000000000004000A00C3
:102BA00011002080404009000900090009000900C7
:102BB000000000004040208011000A0004001800BE
:102BC000200023402400180000001F8020402740E0
:102BD00029401F400000004007C039000F0001C01D
:102BE000004020403FC0244024401B8000001F8044
:102BF0002040204020403080000020403FC0204046
:102C000020401F80000020403FC024402E4030C0A4
:102C1000000020403FC024402E00300000000F0084
:102C20001080204022403380020020403FC004003A
:102C300004003FC02040204020403FC020402040B2
:102C400000000060202020203FC020002000204005
:102C50003FC024400B0030C0204020403FC02040F7
:102C60000040004000C03FC03C0003C03C003FC0EB
:102C7000000020403FC00C4023003FC020001F80C8
:102C80002040204020401F80000020403FC02440C2
:102C90002400180000001F802140214020E01FA0D8
:102CA000000020403FC02440260019C0004018C04A
:102CB00024402440224031800000300020403FC0AA
:102CC00020403000000020003F80004000403F8056
:102CD000200020003E0001C007003800200038001E
:102CE00007C03C0007C038000000204039C0060083
:102CF00039C0204000002000384007C03840200084
:102D00000000304021C02640384020C000000000B4
:102D100000007FE0402040200000000070000C0018
:102D20000380004000000000402040207FE00000C1
:102D30000000000020004000200000000000001003
:102D400000100010001000100010000000004000F3
:102D5000000000000000000002800540054003C0A4
:102D6000004020003FC004400440038000000000F9
:102D7000038004400440064000000000038004403B
:102D800024403FC000400000038005400540034050
:102D90000000000004401FC0244024402000000028
:102DA00002E0055005500650042020403FC004407A
:102DB000040003C000400000044027C000400000A1
:102DC000000000100010041027E000000000204068
:102DD0003FC00140070004C00440204020403FC0E5
:102DE00000400040000007C0040007C0040003C00A
:102DF0000000044007C00440040003C0004000007D
:102E000003800440044003800000041007F00450D5
:102E1000044003800000000003800440045007F0D9
:102E20000010044007C0024004000400000000003D
:102E300006400540054004C00000000004001F805B
:102E4000044000400000040007800040044007C028
:102E500000400400070004C00180060004000600D2
:102E600001C0070001C006000000044006C00100C8
:102E700006C0044000000410071004E001800600B2
:102E800004000000044005C00640044000000000AB
:102E9000000004007BE04020000000000000000073
:102EA000FFF000000000000040207BE00400000074
:102EB0000000400080004000200020004000000092
:102EC0000000000000000000000000000000000002
:102ED000000000001FCC000C0000000000000000FB
:102EE0000800300060000800300060000000022090
:102EF00003FC1E20022003FC1E2002200000000014
:102F00000E1811043FFF10840C78000000000F0021
:102F100010840F3800C0077818840078000000780B
:102F20000F8410C411240E9800E4008400080800E7
:102F300068007000000000000000000000000000B9
:102F40000000000007E01818200440020000000004
:102F500040022004181807E00000000000000240B2
:102F6000024001800FF0018002400240000000801A
:102F7000008000800FF800800080008000000001C9
:102F8000000D000E00000000000000000000000026
:102F900000800080008000800080008000800000B1
:102FA000000C000C00000000000000000000000009
:102FB00000060018006001800600180020000000D4
:102FC00007F0080810041004080807F000000000CB
:102FD000080408041FFC00040004000000000000B6
:102FE0000E0C10141024104411840E0C000000006C
:102FF0000C1810041104110412880C700000000059
:1030000000E00320042408241FFC0024000000002A
:103010001F98108411041104108810700000000023
:1030200007F00888110411041888007000000000DF
:103030001C00100010FC13001C0010000000000019
:103040000E3811441084108411440E380000000022
:103050000700088C10441044088807F000000000A6
:1030600000000000030C030C000000000000000042
:103070000000000101060000000000000000000048
:103080000080014002200410080810040000022003
:103090000220022002200220022002200000000064
:1030A0001004080804100220014000800000000005
:1030B0000E001200100C106C10800F00000003E0D6
:1030C0000C1813E4142417C4082807D000000004C7
:1030D000003C03C41C40074000E4001C0004100432
:1030E0001FFC1104110411040E880070000003E09D
:1030F0000C1810041004100410081C100000100418
:103100001FFC100410041004080807F0000010044D
:103110001FFC1104110417C4100408180000100447
:103120001FFC1104110017C010000800000003E08C
:103130000C181004100410441C7800400000100407
:103140001FFC10840080008010841FFC100400000D
:10315000100410041FFC1004100400000000000301
:103160000001100110011FFE1000100000001004EB
:103170001FFC110403801464181C100400001004C8
:103180001FFC1004000400040004000C00001004E4
:103190001FFC1F0000FC1F001FFC10040000100497
:1031A0001FFC0C04030000E010181FFC100007F0C7
:1031B0000808100410041004080807F000001004A8
:1031C0001FFC10841080108010800F00000007F09A
:1031D000081810241024101C080A07F2000010041C
:1031E0001FFC1104110011C011300E0C000400006E
:1031F0000E1C11041084108410441C3800001800A8
:10320000100010041FFC1004100018000000100033
:103210001FF810040004000410041FF81000100030
:103220001E0011E0001C007013801C0010001FC065
:10323000103C00E01F0000E0103C1FC00000100424
:10324000180C163401C001C01634180C10041000FC
:103250001C00130400FC13041C00100000000804F0
:10326000101C1064108413041C04101800000000CB
:10327000000000007FFE400240024002000000000B
:1032800030000C0003800060001C00030000000000
:103290004002400240027FFE0000000000000000EB
:1032A000000020004000400040002000000000011D
:1032B0000001000100010001000100010001000007
:1032C000400040002000000000000000000000005E
:1032D0000098012401440144014400FC0004100052
:1032E0001FFC008801040104008800700000000039
:1032F000007000880104010401040088000000003F
:10330000007000880104010411081FFC0004000083
:1033100000F8014401440144014400C800000000D9
:10332000010401040FFC1104110411001800000035
:1033300000D601290129012901C901060000100454
:103340001FFC008401000100010400FC00040000D7
:103350000104190419FC000400040000000000002E
:10336000000300010101190119FE00000000100412
:103370001FFC0024004001B4010C01040000000007
:10338000100410041FFC00040004000000000104ED
:1033900001FC0104010001FC0104010000FC010426
:1033A00001FC008401000100010400FC0004000095
:1033B00000F8010401040104010400F80000010107
:1033C00001FF008501040104008800700000000076
:1033D0000070008801040104010501FF00010104DF
:1033E000010401FC008401040100018000000000D0
:1033F00000CC0124012401240124019800000000D4
:103400000100010007F801040104000000000100B0
:1034100001F8000400040004010801FC000401009C
:1034200001800170000C001001600180010001F0BA
:10343000010C003001C00030010C01F0010000005F
:103440000104018C00740170018C01040000010171
:1034500001810171000E001801600180010000006F
:103460000184010C013401440184010C00000000BE
:1034700000000000000001003EFC4002400200008D
:10348000000000000000FFFF00000000000000003E
:10349000400240023EFC010000000000000000006D
:1034A00060008000800040004000200020000000FC
:1034B000000000000000002F0000000007000700CF
:1034C00000147F147F1400242A7F2A1200626408EB
:1034D0001323003649552250000005030000000068
:1034E0001C224100000041221C000014083E081468
:1034F0000008083E0808000000A060000008080856
:103500000808000060600000002010080402003E6F
:103510005149453E0000427F40000042615149460A
:10352000002141454B31001814127F1000274545FA
:103530004539003C4A49493000017109050300360C
:103540004949493600064949291E0000363600001F
:103550000000563600000008142241000014141424
:10356000141400004122140800020151090600321F
:103570004959513E007C1211127C007F494949365D
:10358000003E41414122007F4141221C007F4949C8
:103590004941007F09090901003E4149497A007FFC
:1035A0000808087F0000417F4100002040413F01A2
:1035B000007F08142241007F40404040007F020C01
:1035C000027F007F0408107F003E4141413E007FA2
:1035D00009090906003E4151215E007F091929466B
:1035E0000046494949310001017F0101003F404047
:1035F000403F001F2040201F003F4038403F0063F5
:103600001408146300070870080700615149454316
:1036100000007F41410000552A552A5500004141D4
:103620007F000004020102040040404040400000CE
:1036300001020400002054545478007F4844443868
:1036400000384444442000384444487F00385454EF
:10365000541800087E0901020018A4A4A47C007F6D
:10366000080404780000447D4000004080847D0010
:10367000007F102844000000417F4000007C0418B7
:103680000478007C0804047800384444443800FC82
:10369000242424180018242418FC007C080404089E
:1036A00000485454542000043F444020003C404013
:1036B000207C001C2040201C003C4030403C00444A
:1036C00028102844001CA0A0A07C004464544C4452
:1036D0001414141414140000000000000000000072
:1036E000000000000000000000F8000000000000E2
:1036F00000333000000000100C06100C0600000023
:1037000000000000000040C07840C0784000043F46
:1037100004043F040400007088FC08300000001816
:1037200020FF211E0000F008F000E018000000213A
:103730001C031E211E0000F00888700000001E21DE
:1037400023241927211010160E000000000000008D
:10375000000000000000000000E01804020000006B
:1037600000071820400000020418E000000000409C
:10377000201807000000404080F080404000020216
:10378000010F01020200000000F000000000010132
:10379000011F01010100000000000000000080B0D6
:1037A00070000000000000000000000000000001A8
:1037B00001010101010100000000000000000030D3
:1037C000300000000000000000008060180400606D
:1037D00018060100000000E010080810E000000FCB
:1037E000102020100F00001010F800000000002032
:1037F000203F20200000007008080888700000307A
:103800002824222130000030088888483000001821
:10381000202020110E000000C02010F8000000073A
:103820000424243F240000F80888880808000019B0
:10383000212020110E0000E0108888180000000FE1
:10384000112020110E0000380808C83808000000B8
:10385000003F000000000070880808887000001C0D
:10386000222121221C0000E010080810E0000000C6
:10387000312222110F00000000C0C0000000000033
:103880000030300000000000008000000000000058
:10389000806000000000000080402010080000014F
:1038A0000204081020004040404040404000040412
:1038B00004040404040000081020408000000020DC
:1038C000100804020100007048080808F000000019
:1038D000003036010000C030C828E810E0000718AA
:1038E000272423140B000000C038E0000000203C17
:1038F00023020227382008F8888888700000203FBB
:10390000202020110E00C0300808080838000718D1
:1039100020202010080008F808080810E000203FC8
:10392000202020100F0008F88888E8081000203FA9
:1039300020202320180008F88888E8081000203F7D
:10394000200003000000C0300808083800000718F5
:103950002020221E020008F808000008F808203F76
:10396000210101213F20000808F80808000000207C
:10397000203F2020000000000808F8080800C08050
:1039800080807F00000008F888C028180800203FC9
:1039900020012638200008F8080000000000203F21
:1039A00020202020300008F8F800F8F80800203F18
:1039B000003F003F200008F830C00008F808203F12
:1039C000200007183F00E01008080810E0000F1062
:1039D000202020100F0008F808080808F000203FF9
:1039E000210101010000E01008080810E0000F1894
:1039F000242438504F0008F8888888887000203FB9
:103A00002000030C302000708808080838000038B7
:103A1000202121221C00180808F8080818000000BE
:103A2000203F2000000008F808000008F808001FE8
:103A3000202020201F000878880000C838080000D7
:103A400007380E010000F80800F80008F800033CF1
:103A50000700073C030008186880806818082030B9
:103A60002C03032C30200838C800C8380800000098
:103A7000203F2000000010080808C838080020383F
:103A8000262120201800000000FE02020200000093
:103A9000007F40404000000C30C0000000000000EB
:103AA00000010638C00000020202FE0000000040D3
:103AB00040407F00000000000402020204000000F9
:103AC00000000000000000000000000000008080F6
:103AD00080808080808000020204000000000000DE
:103AE00000000000000000008080808000000019BD
:103AF000242222223F2008F8008080000000003F9E
:103B0000112020110E000000008080800000000EB7
:103B1000112020201100000000808088F800000E95
:103B2000112020103F200000808080800000001FB6
:103B3000222222221300008080F08888881800202A
:103B4000203F202000000000808080808000006BEB
:103B500094949493600008F8008080800000203FD7
:103B6000210000203F2000809898000000000020E5
:103B7000203F20200000000000809898000000C036
:103B80008080807F000008F8000080808000203F57
:103B900024022D302000000808F80000000000205A
:103BA000203F202000008080808080808000203F97
:103BB00020003F20003F8080008080800000203F68
:103BC000210000203F200000808080800000001F36
:103BD000202020201F00808000808000000080FFC7
:103BE000A12020110E000000008080808000000EC7
:103BF000112020A0FF808080800080808000202015
:103C00003F21200001000000808080808000003380
:103C1000242424241900008080E08080000000001B
:103C2000001F202000008080000000808000001F16
:103C3000202020103F2080808000008080800001B4
:103C40000E300806010080800080008080800F30E8
:103C50000C030C300F00008080008080800000206A
:103C6000312E0E3120008080800000808080808195
:103C70008E70180601000080808080808000002106
:103C8000302C2221300000000000807C0202000065
:103C90000000003F404000000000FF000000000066
:103CA0000000FF0000000002027C800000000040D5
:103CB000403F000000000006010102020404000071
:103CC0000000000000000000E83C000800000020A8
:103CD0004C000000B41F0008343D00084C000020D8
:103CE00064040000C41F00080000FFFF0000000083
:103CF00000000000000000000000000000000000C4
:103D0000000064000000000000000000000000004F
:103D100000000000000000000000000000000001A2
:103D2000020304010203040607080902040608004E
:043D3000000000008F
:0400000508000131BD
:00000001FF
